{
	"Programming/Node/truffle/contracts/supercoin.sol": {
		"SuperToken": {
			"abi": [
				{
					"inputs": [],
					"stateMutability": "nonpayable",
					"type": "constructor"
				},
				{
					"anonymous": false,
					"inputs": [
						{
							"indexed": true,
							"internalType": "address",
							"name": "owner",
							"type": "address"
						},
						{
							"indexed": true,
							"internalType": "address",
							"name": "spender",
							"type": "address"
						},
						{
							"indexed": false,
							"internalType": "uint256",
							"name": "value",
							"type": "uint256"
						}
					],
					"name": "Approval",
					"type": "event"
				},
				{
					"anonymous": false,
					"inputs": [
						{
							"indexed": true,
							"internalType": "address",
							"name": "from",
							"type": "address"
						},
						{
							"indexed": true,
							"internalType": "address",
							"name": "to",
							"type": "address"
						},
						{
							"indexed": false,
							"internalType": "uint256",
							"name": "value",
							"type": "uint256"
						}
					],
					"name": "Transfer",
					"type": "event"
				},
				{
					"inputs": [
						{
							"internalType": "address",
							"name": "owner",
							"type": "address"
						},
						{
							"internalType": "address",
							"name": "spender",
							"type": "address"
						}
					],
					"name": "allowance",
					"outputs": [
						{
							"internalType": "uint256",
							"name": "",
							"type": "uint256"
						}
					],
					"stateMutability": "view",
					"type": "function"
				},
				{
					"inputs": [
						{
							"internalType": "address",
							"name": "spender",
							"type": "address"
						},
						{
							"internalType": "uint256",
							"name": "amount",
							"type": "uint256"
						}
					],
					"name": "approve",
					"outputs": [
						{
							"internalType": "bool",
							"name": "",
							"type": "bool"
						}
					],
					"stateMutability": "nonpayable",
					"type": "function"
				},
				{
					"inputs": [
						{
							"internalType": "address",
							"name": "account",
							"type": "address"
						}
					],
					"name": "balanceOf",
					"outputs": [
						{
							"internalType": "uint256",
							"name": "",
							"type": "uint256"
						}
					],
					"stateMutability": "view",
					"type": "function"
				},
				{
					"inputs": [],
					"name": "decimals",
					"outputs": [
						{
							"internalType": "uint8",
							"name": "",
							"type": "uint8"
						}
					],
					"stateMutability": "view",
					"type": "function"
				},
				{
					"inputs": [
						{
							"internalType": "address",
							"name": "spender",
							"type": "address"
						},
						{
							"internalType": "uint256",
							"name": "subtractedValue",
							"type": "uint256"
						}
					],
					"name": "decreaseAllowance",
					"outputs": [
						{
							"internalType": "bool",
							"name": "",
							"type": "bool"
						}
					],
					"stateMutability": "nonpayable",
					"type": "function"
				},
				{
					"inputs": [
						{
							"internalType": "address",
							"name": "user",
							"type": "address"
						}
					],
					"name": "earningHistory",
					"outputs": [
						{
							"components": [
								{
									"internalType": "uint256",
									"name": "totalEarning",
									"type": "uint256"
								},
								{
									"components": [
										{
											"internalType": "uint256",
											"name": "amount",
											"type": "uint256"
										},
										{
											"internalType": "uint256",
											"name": "createAt",
											"type": "uint256"
										},
										{
											"internalType": "uint256",
											"name": "expiryDate",
											"type": "uint256"
										}
									],
									"internalType": "struct SuperToken.TokenData[]",
									"name": "earningHistory",
									"type": "tuple[]"
								}
							],
							"internalType": "struct SuperToken.UserHistory",
							"name": "",
							"type": "tuple"
						}
					],
					"stateMutability": "view",
					"type": "function"
				},
				{
					"inputs": [
						{
							"internalType": "address",
							"name": "user",
							"type": "address"
						}
					],
					"name": "expireTokens",
					"outputs": [],
					"stateMutability": "nonpayable",
					"type": "function"
				},
				{
					"inputs": [
						{
							"internalType": "address",
							"name": "spender",
							"type": "address"
						},
						{
							"internalType": "uint256",
							"name": "addedValue",
							"type": "uint256"
						}
					],
					"name": "increaseAllowance",
					"outputs": [
						{
							"internalType": "bool",
							"name": "",
							"type": "bool"
						}
					],
					"stateMutability": "nonpayable",
					"type": "function"
				},
				{
					"inputs": [
						{
							"internalType": "address",
							"name": "to",
							"type": "address"
						},
						{
							"internalType": "uint256",
							"name": "amount",
							"type": "uint256"
						}
					],
					"name": "mint",
					"outputs": [],
					"stateMutability": "nonpayable",
					"type": "function"
				},
				{
					"inputs": [],
					"name": "name",
					"outputs": [
						{
							"internalType": "string",
							"name": "",
							"type": "string"
						}
					],
					"stateMutability": "view",
					"type": "function"
				},
				{
					"inputs": [],
					"name": "symbol",
					"outputs": [
						{
							"internalType": "string",
							"name": "",
							"type": "string"
						}
					],
					"stateMutability": "view",
					"type": "function"
				},
				{
					"inputs": [],
					"name": "totalSupply",
					"outputs": [
						{
							"internalType": "uint256",
							"name": "",
							"type": "uint256"
						}
					],
					"stateMutability": "view",
					"type": "function"
				},
				{
					"inputs": [
						{
							"internalType": "address",
							"name": "to",
							"type": "address"
						},
						{
							"internalType": "uint256",
							"name": "amount",
							"type": "uint256"
						}
					],
					"name": "transfer",
					"outputs": [
						{
							"internalType": "bool",
							"name": "",
							"type": "bool"
						}
					],
					"stateMutability": "nonpayable",
					"type": "function"
				},
				{
					"inputs": [
						{
							"internalType": "address",
							"name": "from",
							"type": "address"
						},
						{
							"internalType": "address",
							"name": "to",
							"type": "address"
						},
						{
							"internalType": "uint256",
							"name": "amount",
							"type": "uint256"
						}
					],
					"name": "transferFrom",
					"outputs": [
						{
							"internalType": "bool",
							"name": "",
							"type": "bool"
						}
					],
					"stateMutability": "nonpayable",
					"type": "function"
				},
				{
					"inputs": [
						{
							"internalType": "address",
							"name": "user",
							"type": "address"
						}
					],
					"name": "viewTokens",
					"outputs": [
						{
							"internalType": "uint256",
							"name": "",
							"type": "uint256"
						}
					],
					"stateMutability": "view",
					"type": "function"
				}
			],
			"devdoc": {
				"events": {
					"Approval(address,address,uint256)": {
						"details": "Emitted when the allowance of a `spender` for an `owner` is set by a call to {approve}. `value` is the new allowance."
					},
					"Transfer(address,address,uint256)": {
						"details": "Emitted when `value` tokens are moved from one account (`from`) to another (`to`). Note that `value` may be zero."
					}
				},
				"kind": "dev",
				"methods": {
					"allowance(address,address)": {
						"details": "See {IERC20-allowance}."
					},
					"approve(address,uint256)": {
						"details": "See {IERC20-approve}. NOTE: If `amount` is the maximum `uint256`, the allowance is not updated on `transferFrom`. This is semantically equivalent to an infinite approval. Requirements: - `spender` cannot be the zero address."
					},
					"balanceOf(address)": {
						"details": "See {IERC20-balanceOf}."
					},
					"decimals()": {
						"details": "Returns the number of decimals used to get its user representation. For example, if `decimals` equals `2`, a balance of `505` tokens should be displayed to a user as `5.05` (`505 / 10 ** 2`). Tokens usually opt for a value of 18, imitating the relationship between Ether and Wei. This is the default value returned by this function, unless it's overridden. NOTE: This information is only used for _display_ purposes: it in no way affects any of the arithmetic of the contract, including {IERC20-balanceOf} and {IERC20-transfer}."
					},
					"decreaseAllowance(address,uint256)": {
						"details": "Atomically decreases the allowance granted to `spender` by the caller. This is an alternative to {approve} that can be used as a mitigation for problems described in {IERC20-approve}. Emits an {Approval} event indicating the updated allowance. Requirements: - `spender` cannot be the zero address. - `spender` must have allowance for the caller of at least `subtractedValue`."
					},
					"increaseAllowance(address,uint256)": {
						"details": "Atomically increases the allowance granted to `spender` by the caller. This is an alternative to {approve} that can be used as a mitigation for problems described in {IERC20-approve}. Emits an {Approval} event indicating the updated allowance. Requirements: - `spender` cannot be the zero address."
					},
					"name()": {
						"details": "Returns the name of the token."
					},
					"symbol()": {
						"details": "Returns the symbol of the token, usually a shorter version of the name."
					},
					"totalSupply()": {
						"details": "See {IERC20-totalSupply}."
					},
					"transfer(address,uint256)": {
						"details": "See {IERC20-transfer}. Requirements: - `to` cannot be the zero address. - the caller must have a balance of at least `amount`."
					},
					"transferFrom(address,address,uint256)": {
						"details": "See {IERC20-transferFrom}. Emits an {Approval} event indicating the updated allowance. This is not required by the EIP. See the note at the beginning of {ERC20}. NOTE: Does not update the allowance if the current allowance is the maximum `uint256`. Requirements: - `from` and `to` cannot be the zero address. - `from` must have a balance of at least `amount`. - the caller must have allowance for ``from``'s tokens of at least `amount`."
					}
				},
				"version": 1
			},
			"evm": {
				"assembly": "    /* \"Programming/Node/truffle/contracts/supercoin.sol\":119:3428  contract SuperToken is ERC20{... */\n  mstore(0x40, 0x80)\n    /* \"Programming/Node/truffle/contracts/supercoin.sol\":644:645  0 */\n  0x00\n    /* \"Programming/Node/truffle/contracts/supercoin.sol\":621:645  uint totalTokensIssued=0 */\n  0x07\n  sstore\n    /* \"Programming/Node/truffle/contracts/supercoin.sol\":685:759  constructor() ERC20(\"SuperCoin\",\"SPC\"){... */\n  callvalue\n  dup1\n  iszero\n  tag_1\n  jumpi\n  0x00\n  dup1\n  revert\ntag_1:\n  pop\n    /* \"@openzeppelin/contracts/token/ERC20/ERC20.sol\":1980:2093  constructor(string memory name_, string memory symbol_) {... */\n  mload(0x40)\n  dup1\n  0x40\n  add\n  0x40\n  mstore\n  dup1\n  0x09\n  dup2\n  mstore\n  0x20\n  add\n  0x5375706572436f696e0000000000000000000000000000000000000000000000\n  dup2\n  mstore\n  pop\n  mload(0x40)\n  dup1\n  0x40\n  add\n  0x40\n  mstore\n  dup1\n  0x03\n  dup2\n  mstore\n  0x20\n  add\n  0x5350430000000000000000000000000000000000000000000000000000000000\n  dup2\n  mstore\n  pop\n    /* \"@openzeppelin/contracts/token/ERC20/ERC20.sol\":2054:2059  name_ */\n  dup2\n    /* \"@openzeppelin/contracts/token/ERC20/ERC20.sol\":2046:2051  _name */\n  0x03\n    /* \"@openzeppelin/contracts/token/ERC20/ERC20.sol\":2046:2059  _name = name_ */\n  swap1\n  dup2\n  tag_5\n  swap2\n  swap1\n  tag_6\n  jump\t// in\ntag_5:\n  pop\n    /* \"@openzeppelin/contracts/token/ERC20/ERC20.sol\":2079:2086  symbol_ */\n  dup1\n    /* \"@openzeppelin/contracts/token/ERC20/ERC20.sol\":2069:2076  _symbol */\n  0x04\n    /* \"@openzeppelin/contracts/token/ERC20/ERC20.sol\":2069:2086  _symbol = symbol_ */\n  swap1\n  dup2\n  tag_7\n  swap2\n  swap1\n  tag_6\n  jump\t// in\ntag_7:\n  pop\n    /* \"@openzeppelin/contracts/token/ERC20/ERC20.sol\":1980:2093  constructor(string memory name_, string memory symbol_) {... */\n  pop\n  pop\n    /* \"Programming/Node/truffle/contracts/supercoin.sol\":741:751  msg.sender */\n  caller\n    /* \"Programming/Node/truffle/contracts/supercoin.sol\":734:740  _owner */\n  0x08\n  0x00\n    /* \"Programming/Node/truffle/contracts/supercoin.sol\":734:751  _owner=msg.sender */\n  0x0100\n  exp\n  dup2\n  sload\n  dup2\n  0xffffffffffffffffffffffffffffffffffffffff\n  mul\n  not\n  and\n  swap1\n  dup4\n  0xffffffffffffffffffffffffffffffffffffffff\n  and\n  mul\n  or\n  swap1\n  sstore\n  pop\n    /* \"Programming/Node/truffle/contracts/supercoin.sol\":119:3428  contract SuperToken is ERC20{... */\n  jump(tag_9)\n    /* \"#utility.yul\":7:106   */\ntag_10:\n    /* \"#utility.yul\":59:65   */\n  0x00\n    /* \"#utility.yul\":93:98   */\n  dup2\n    /* \"#utility.yul\":87:99   */\n  mload\n    /* \"#utility.yul\":77:99   */\n  swap1\n  pop\n    /* \"#utility.yul\":7:106   */\n  swap2\n  swap1\n  pop\n  jump\t// out\n    /* \"#utility.yul\":112:292   */\ntag_11:\n    /* \"#utility.yul\":160:237   */\n  0x4e487b7100000000000000000000000000000000000000000000000000000000\n    /* \"#utility.yul\":157:158   */\n  0x00\n    /* \"#utility.yul\":150:238   */\n  mstore\n    /* \"#utility.yul\":257:261   */\n  0x41\n    /* \"#utility.yul\":254:255   */\n  0x04\n    /* \"#utility.yul\":247:262   */\n  mstore\n    /* \"#utility.yul\":281:285   */\n  0x24\n    /* \"#utility.yul\":278:279   */\n  0x00\n    /* \"#utility.yul\":271:286   */\n  revert\n    /* \"#utility.yul\":298:478   */\ntag_12:\n    /* \"#utility.yul\":346:423   */\n  0x4e487b7100000000000000000000000000000000000000000000000000000000\n    /* \"#utility.yul\":343:344   */\n  0x00\n    /* \"#utility.yul\":336:424   */\n  mstore\n    /* \"#utility.yul\":443:447   */\n  0x22\n    /* \"#utility.yul\":440:441   */\n  0x04\n    /* \"#utility.yul\":433:448   */\n  mstore\n    /* \"#utility.yul\":467:471   */\n  0x24\n    /* \"#utility.yul\":464:465   */\n  0x00\n    /* \"#utility.yul\":457:472   */\n  revert\n    /* \"#utility.yul\":484:804   */\ntag_13:\n    /* \"#utility.yul\":528:534   */\n  0x00\n    /* \"#utility.yul\":565:566   */\n  0x02\n    /* \"#utility.yul\":559:563   */\n  dup3\n    /* \"#utility.yul\":555:567   */\n  div\n    /* \"#utility.yul\":545:567   */\n  swap1\n  pop\n    /* \"#utility.yul\":612:613   */\n  0x01\n    /* \"#utility.yul\":606:610   */\n  dup3\n    /* \"#utility.yul\":602:614   */\n  and\n    /* \"#utility.yul\":633:651   */\n  dup1\n    /* \"#utility.yul\":623:704   */\n  tag_35\n  jumpi\n    /* \"#utility.yul\":689:693   */\n  0x7f\n    /* \"#utility.yul\":681:687   */\n  dup3\n    /* \"#utility.yul\":677:694   */\n  and\n    /* \"#utility.yul\":667:694   */\n  swap2\n  pop\n    /* \"#utility.yul\":623:704   */\ntag_35:\n    /* \"#utility.yul\":751:753   */\n  0x20\n    /* \"#utility.yul\":743:749   */\n  dup3\n    /* \"#utility.yul\":740:754   */\n  lt\n    /* \"#utility.yul\":720:738   */\n  dup2\n    /* \"#utility.yul\":717:755   */\n  sub\n    /* \"#utility.yul\":714:798   */\n  tag_36\n  jumpi\n    /* \"#utility.yul\":770:788   */\n  tag_37\n  tag_12\n  jump\t// in\ntag_37:\n    /* \"#utility.yul\":714:798   */\ntag_36:\n    /* \"#utility.yul\":535:804   */\n  pop\n    /* \"#utility.yul\":484:804   */\n  swap2\n  swap1\n  pop\n  jump\t// out\n    /* \"#utility.yul\":810:951   */\ntag_14:\n    /* \"#utility.yul\":859:863   */\n  0x00\n    /* \"#utility.yul\":882:885   */\n  dup2\n    /* \"#utility.yul\":874:885   */\n  swap1\n  pop\n    /* \"#utility.yul\":905:908   */\n  dup2\n    /* \"#utility.yul\":902:903   */\n  0x00\n    /* \"#utility.yul\":895:909   */\n  mstore\n    /* \"#utility.yul\":939:943   */\n  0x20\n    /* \"#utility.yul\":936:937   */\n  0x00\n    /* \"#utility.yul\":926:944   */\n  keccak256\n    /* \"#utility.yul\":918:944   */\n  swap1\n  pop\n    /* \"#utility.yul\":810:951   */\n  swap2\n  swap1\n  pop\n  jump\t// out\n    /* \"#utility.yul\":957:1050   */\ntag_15:\n    /* \"#utility.yul\":994:1000   */\n  0x00\n    /* \"#utility.yul\":1041:1043   */\n  0x20\n    /* \"#utility.yul\":1036:1038   */\n  0x1f\n    /* \"#utility.yul\":1029:1034   */\n  dup4\n    /* \"#utility.yul\":1025:1039   */\n  add\n    /* \"#utility.yul\":1021:1044   */\n  div\n    /* \"#utility.yul\":1011:1044   */\n  swap1\n  pop\n    /* \"#utility.yul\":957:1050   */\n  swap2\n  swap1\n  pop\n  jump\t// out\n    /* \"#utility.yul\":1056:1163   */\ntag_16:\n    /* \"#utility.yul\":1100:1108   */\n  0x00\n    /* \"#utility.yul\":1150:1155   */\n  dup3\n    /* \"#utility.yul\":1144:1148   */\n  dup3\n    /* \"#utility.yul\":1140:1156   */\n  shl\n    /* \"#utility.yul\":1119:1156   */\n  swap1\n  pop\n    /* \"#utility.yul\":1056:1163   */\n  swap3\n  swap2\n  pop\n  pop\n  jump\t// out\n    /* \"#utility.yul\":1169:1562   */\ntag_17:\n    /* \"#utility.yul\":1238:1244   */\n  0x00\n    /* \"#utility.yul\":1288:1289   */\n  0x08\n    /* \"#utility.yul\":1276:1286   */\n  dup4\n    /* \"#utility.yul\":1272:1290   */\n  mul\n    /* \"#utility.yul\":1311:1408   */\n  tag_42\n    /* \"#utility.yul\":1341:1407   */\n  0xffffffffffffffffffffffffffffffffffffffffffffffffffffffffffffffff\n    /* \"#utility.yul\":1330:1339   */\n  dup3\n    /* \"#utility.yul\":1311:1408   */\n  tag_16\n  jump\t// in\ntag_42:\n    /* \"#utility.yul\":1429:1468   */\n  tag_43\n    /* \"#utility.yul\":1459:1467   */\n  dup7\n    /* \"#utility.yul\":1448:1457   */\n  dup4\n    /* \"#utility.yul\":1429:1468   */\n  tag_16\n  jump\t// in\ntag_43:\n    /* \"#utility.yul\":1417:1468   */\n  swap6\n  pop\n    /* \"#utility.yul\":1501:1505   */\n  dup1\n    /* \"#utility.yul\":1497:1506   */\n  not\n    /* \"#utility.yul\":1490:1495   */\n  dup5\n    /* \"#utility.yul\":1486:1507   */\n  and\n    /* \"#utility.yul\":1477:1507   */\n  swap4\n  pop\n    /* \"#utility.yul\":1550:1554   */\n  dup1\n    /* \"#utility.yul\":1540:1548   */\n  dup7\n    /* \"#utility.yul\":1536:1555   */\n  and\n    /* \"#utility.yul\":1529:1534   */\n  dup5\n    /* \"#utility.yul\":1526:1556   */\n  or\n    /* \"#utility.yul\":1516:1556   */\n  swap3\n  pop\n    /* \"#utility.yul\":1245:1562   */\n  pop\n  pop\n    /* \"#utility.yul\":1169:1562   */\n  swap4\n  swap3\n  pop\n  pop\n  pop\n  jump\t// out\n    /* \"#utility.yul\":1568:1645   */\ntag_18:\n    /* \"#utility.yul\":1605:1612   */\n  0x00\n    /* \"#utility.yul\":1634:1639   */\n  dup2\n    /* \"#utility.yul\":1623:1639   */\n  swap1\n  pop\n    /* \"#utility.yul\":1568:1645   */\n  swap2\n  swap1\n  pop\n  jump\t// out\n    /* \"#utility.yul\":1651:1711   */\ntag_19:\n    /* \"#utility.yul\":1679:1682   */\n  0x00\n    /* \"#utility.yul\":1700:1705   */\n  dup2\n    /* \"#utility.yul\":1693:1705   */\n  swap1\n  pop\n    /* \"#utility.yul\":1651:1711   */\n  swap2\n  swap1\n  pop\n  jump\t// out\n    /* \"#utility.yul\":1717:1859   */\ntag_20:\n    /* \"#utility.yul\":1767:1776   */\n  0x00\n    /* \"#utility.yul\":1800:1853   */\n  tag_47\n    /* \"#utility.yul\":1818:1852   */\n  tag_48\n    /* \"#utility.yul\":1827:1851   */\n  tag_49\n    /* \"#utility.yul\":1845:1850   */\n  dup5\n    /* \"#utility.yul\":1827:1851   */\n  tag_18\n  jump\t// in\ntag_49:\n    /* \"#utility.yul\":1818:1852   */\n  tag_19\n  jump\t// in\ntag_48:\n    /* \"#utility.yul\":1800:1853   */\n  tag_18\n  jump\t// in\ntag_47:\n    /* \"#utility.yul\":1787:1853   */\n  swap1\n  pop\n    /* \"#utility.yul\":1717:1859   */\n  swap2\n  swap1\n  pop\n  jump\t// out\n    /* \"#utility.yul\":1865:1940   */\ntag_21:\n    /* \"#utility.yul\":1908:1911   */\n  0x00\n    /* \"#utility.yul\":1929:1934   */\n  dup2\n    /* \"#utility.yul\":1922:1934   */\n  swap1\n  pop\n    /* \"#utility.yul\":1865:1940   */\n  swap2\n  swap1\n  pop\n  jump\t// out\n    /* \"#utility.yul\":1946:2215   */\ntag_22:\n    /* \"#utility.yul\":2056:2095   */\n  tag_52\n    /* \"#utility.yul\":2087:2094   */\n  dup4\n    /* \"#utility.yul\":2056:2095   */\n  tag_20\n  jump\t// in\ntag_52:\n    /* \"#utility.yul\":2117:2208   */\n  tag_53\n    /* \"#utility.yul\":2166:2207   */\n  tag_54\n    /* \"#utility.yul\":2190:2206   */\n  dup3\n    /* \"#utility.yul\":2166:2207   */\n  tag_21\n  jump\t// in\ntag_54:\n    /* \"#utility.yul\":2158:2164   */\n  dup5\n    /* \"#utility.yul\":2151:2155   */\n  dup5\n    /* \"#utility.yul\":2145:2156   */\n  sload\n    /* \"#utility.yul\":2117:2208   */\n  tag_17\n  jump\t// in\ntag_53:\n    /* \"#utility.yul\":2111:2115   */\n  dup3\n    /* \"#utility.yul\":2104:2209   */\n  sstore\n    /* \"#utility.yul\":2022:2215   */\n  pop\n    /* \"#utility.yul\":1946:2215   */\n  pop\n  pop\n  pop\n  jump\t// out\n    /* \"#utility.yul\":2221:2294   */\ntag_23:\n    /* \"#utility.yul\":2266:2269   */\n  0x00\n    /* \"#utility.yul\":2221:2294   */\n  swap1\n  jump\t// out\n    /* \"#utility.yul\":2300:2489   */\ntag_24:\n    /* \"#utility.yul\":2377:2409   */\n  tag_57\n  tag_23\n  jump\t// in\ntag_57:\n    /* \"#utility.yul\":2418:2483   */\n  tag_58\n    /* \"#utility.yul\":2476:2482   */\n  dup2\n    /* \"#utility.yul\":2468:2474   */\n  dup5\n    /* \"#utility.yul\":2462:2466   */\n  dup5\n    /* \"#utility.yul\":2418:2483   */\n  tag_22\n  jump\t// in\ntag_58:\n    /* \"#utility.yul\":2353:2489   */\n  pop\n    /* \"#utility.yul\":2300:2489   */\n  pop\n  pop\n  jump\t// out\n    /* \"#utility.yul\":2495:2681   */\ntag_25:\n    /* \"#utility.yul\":2555:2675   */\ntag_60:\n    /* \"#utility.yul\":2572:2575   */\n  dup2\n    /* \"#utility.yul\":2565:2570   */\n  dup2\n    /* \"#utility.yul\":2562:2576   */\n  lt\n    /* \"#utility.yul\":2555:2675   */\n  iszero\n  tag_62\n  jumpi\n    /* \"#utility.yul\":2626:2665   */\n  tag_63\n    /* \"#utility.yul\":2663:2664   */\n  0x00\n    /* \"#utility.yul\":2656:2661   */\n  dup3\n    /* \"#utility.yul\":2626:2665   */\n  tag_24\n  jump\t// in\ntag_63:\n    /* \"#utility.yul\":2599:2600   */\n  0x01\n    /* \"#utility.yul\":2592:2597   */\n  dup2\n    /* \"#utility.yul\":2588:2601   */\n  add\n    /* \"#utility.yul\":2579:2601   */\n  swap1\n  pop\n    /* \"#utility.yul\":2555:2675   */\n  jump(tag_60)\ntag_62:\n    /* \"#utility.yul\":2495:2681   */\n  pop\n  pop\n  jump\t// out\n    /* \"#utility.yul\":2687:3230   */\ntag_26:\n    /* \"#utility.yul\":2788:2790   */\n  0x1f\n    /* \"#utility.yul\":2783:2786   */\n  dup3\n    /* \"#utility.yul\":2780:2791   */\n  gt\n    /* \"#utility.yul\":2777:3223   */\n  iszero\n  tag_65\n  jumpi\n    /* \"#utility.yul\":2822:2860   */\n  tag_66\n    /* \"#utility.yul\":2854:2859   */\n  dup2\n    /* \"#utility.yul\":2822:2860   */\n  tag_14\n  jump\t// in\ntag_66:\n    /* \"#utility.yul\":2906:2935   */\n  tag_67\n    /* \"#utility.yul\":2924:2934   */\n  dup5\n    /* \"#utility.yul\":2906:2935   */\n  tag_15\n  jump\t// in\ntag_67:\n    /* \"#utility.yul\":2896:2904   */\n  dup2\n    /* \"#utility.yul\":2892:2936   */\n  add\n    /* \"#utility.yul\":3089:3091   */\n  0x20\n    /* \"#utility.yul\":3077:3087   */\n  dup6\n    /* \"#utility.yul\":3074:3092   */\n  lt\n    /* \"#utility.yul\":3071:3120   */\n  iszero\n  tag_68\n  jumpi\n    /* \"#utility.yul\":3110:3118   */\n  dup2\n    /* \"#utility.yul\":3095:3118   */\n  swap1\n  pop\n    /* \"#utility.yul\":3071:3120   */\ntag_68:\n    /* \"#utility.yul\":3133:3213   */\n  tag_69\n    /* \"#utility.yul\":3189:3211   */\n  tag_70\n    /* \"#utility.yul\":3207:3210   */\n  dup6\n    /* \"#utility.yul\":3189:3211   */\n  tag_15\n  jump\t// in\ntag_70:\n    /* \"#utility.yul\":3179:3187   */\n  dup4\n    /* \"#utility.yul\":3175:3212   */\n  add\n    /* \"#utility.yul\":3162:3173   */\n  dup3\n    /* \"#utility.yul\":3133:3213   */\n  tag_25\n  jump\t// in\ntag_69:\n    /* \"#utility.yul\":2792:3223   */\n  pop\n  pop\n    /* \"#utility.yul\":2777:3223   */\ntag_65:\n    /* \"#utility.yul\":2687:3230   */\n  pop\n  pop\n  pop\n  jump\t// out\n    /* \"#utility.yul\":3236:3353   */\ntag_27:\n    /* \"#utility.yul\":3290:3298   */\n  0x00\n    /* \"#utility.yul\":3340:3345   */\n  dup3\n    /* \"#utility.yul\":3334:3338   */\n  dup3\n    /* \"#utility.yul\":3330:3346   */\n  shr\n    /* \"#utility.yul\":3309:3346   */\n  swap1\n  pop\n    /* \"#utility.yul\":3236:3353   */\n  swap3\n  swap2\n  pop\n  pop\n  jump\t// out\n    /* \"#utility.yul\":3359:3528   */\ntag_28:\n    /* \"#utility.yul\":3403:3409   */\n  0x00\n    /* \"#utility.yul\":3436:3487   */\n  tag_73\n    /* \"#utility.yul\":3484:3485   */\n  0x00\n    /* \"#utility.yul\":3480:3486   */\n  not\n    /* \"#utility.yul\":3472:3477   */\n  dup5\n    /* \"#utility.yul\":3469:3470   */\n  0x08\n    /* \"#utility.yul\":3465:3478   */\n  mul\n    /* \"#utility.yul\":3436:3487   */\n  tag_27\n  jump\t// in\ntag_73:\n    /* \"#utility.yul\":3432:3488   */\n  not\n    /* \"#utility.yul\":3517:3521   */\n  dup1\n    /* \"#utility.yul\":3511:3515   */\n  dup4\n    /* \"#utility.yul\":3507:3522   */\n  and\n    /* \"#utility.yul\":3497:3522   */\n  swap2\n  pop\n    /* \"#utility.yul\":3410:3528   */\n  pop\n    /* \"#utility.yul\":3359:3528   */\n  swap3\n  swap2\n  pop\n  pop\n  jump\t// out\n    /* \"#utility.yul\":3533:3828   */\ntag_29:\n    /* \"#utility.yul\":3609:3613   */\n  0x00\n    /* \"#utility.yul\":3755:3784   */\n  tag_75\n    /* \"#utility.yul\":3780:3783   */\n  dup4\n    /* \"#utility.yul\":3774:3778   */\n  dup4\n    /* \"#utility.yul\":3755:3784   */\n  tag_28\n  jump\t// in\ntag_75:\n    /* \"#utility.yul\":3747:3784   */\n  swap2\n  pop\n    /* \"#utility.yul\":3817:3820   */\n  dup3\n    /* \"#utility.yul\":3814:3815   */\n  0x02\n    /* \"#utility.yul\":3810:3821   */\n  mul\n    /* \"#utility.yul\":3804:3808   */\n  dup3\n    /* \"#utility.yul\":3801:3822   */\n  or\n    /* \"#utility.yul\":3793:3822   */\n  swap1\n  pop\n    /* \"#utility.yul\":3533:3828   */\n  swap3\n  swap2\n  pop\n  pop\n  jump\t// out\n    /* \"#utility.yul\":3833:5228   */\ntag_6:\n    /* \"#utility.yul\":3950:3987   */\n  tag_77\n    /* \"#utility.yul\":3983:3986   */\n  dup3\n    /* \"#utility.yul\":3950:3987   */\n  tag_10\n  jump\t// in\ntag_77:\n    /* \"#utility.yul\":4052:4070   */\n  0xffffffffffffffff\n    /* \"#utility.yul\":4044:4050   */\n  dup2\n    /* \"#utility.yul\":4041:4071   */\n  gt\n    /* \"#utility.yul\":4038:4094   */\n  iszero\n  tag_78\n  jumpi\n    /* \"#utility.yul\":4074:4092   */\n  tag_79\n  tag_11\n  jump\t// in\ntag_79:\n    /* \"#utility.yul\":4038:4094   */\ntag_78:\n    /* \"#utility.yul\":4118:4156   */\n  tag_80\n    /* \"#utility.yul\":4150:4154   */\n  dup3\n    /* \"#utility.yul\":4144:4155   */\n  sload\n    /* \"#utility.yul\":4118:4156   */\n  tag_13\n  jump\t// in\ntag_80:\n    /* \"#utility.yul\":4203:4270   */\n  tag_81\n    /* \"#utility.yul\":4263:4269   */\n  dup3\n    /* \"#utility.yul\":4255:4261   */\n  dup3\n    /* \"#utility.yul\":4249:4253   */\n  dup6\n    /* \"#utility.yul\":4203:4270   */\n  tag_26\n  jump\t// in\ntag_81:\n    /* \"#utility.yul\":4297:4298   */\n  0x00\n    /* \"#utility.yul\":4321:4325   */\n  0x20\n    /* \"#utility.yul\":4308:4325   */\n  swap1\n  pop\n    /* \"#utility.yul\":4353:4355   */\n  0x1f\n    /* \"#utility.yul\":4345:4351   */\n  dup4\n    /* \"#utility.yul\":4342:4356   */\n  gt\n    /* \"#utility.yul\":4370:4371   */\n  0x01\n    /* \"#utility.yul\":4365:4983   */\n  dup2\n  eq\n  tag_83\n  jumpi\n    /* \"#utility.yul\":5027:5028   */\n  0x00\n    /* \"#utility.yul\":5044:5050   */\n  dup5\n    /* \"#utility.yul\":5041:5118   */\n  iszero\n  tag_84\n  jumpi\n    /* \"#utility.yul\":5093:5102   */\n  dup3\n    /* \"#utility.yul\":5088:5091   */\n  dup8\n    /* \"#utility.yul\":5084:5103   */\n  add\n    /* \"#utility.yul\":5078:5104   */\n  mload\n    /* \"#utility.yul\":5069:5104   */\n  swap1\n  pop\n    /* \"#utility.yul\":5041:5118   */\ntag_84:\n    /* \"#utility.yul\":5144:5211   */\n  tag_85\n    /* \"#utility.yul\":5204:5210   */\n  dup6\n    /* \"#utility.yul\":5197:5202   */\n  dup3\n    /* \"#utility.yul\":5144:5211   */\n  tag_29\n  jump\t// in\ntag_85:\n    /* \"#utility.yul\":5138:5142   */\n  dup7\n    /* \"#utility.yul\":5131:5212   */\n  sstore\n    /* \"#utility.yul\":5000:5222   */\n  pop\n    /* \"#utility.yul\":4335:5222   */\n  jump(tag_82)\n    /* \"#utility.yul\":4365:4983   */\ntag_83:\n    /* \"#utility.yul\":4417:4421   */\n  0x1f\n    /* \"#utility.yul\":4413:4422   */\n  not\n    /* \"#utility.yul\":4405:4411   */\n  dup5\n    /* \"#utility.yul\":4401:4423   */\n  and\n    /* \"#utility.yul\":4451:4488   */\n  tag_86\n    /* \"#utility.yul\":4483:4487   */\n  dup7\n    /* \"#utility.yul\":4451:4488   */\n  tag_14\n  jump\t// in\ntag_86:\n    /* \"#utility.yul\":4510:4511   */\n  0x00\n    /* \"#utility.yul\":4524:4732   */\ntag_87:\n    /* \"#utility.yul\":4538:4545   */\n  dup3\n    /* \"#utility.yul\":4535:4536   */\n  dup2\n    /* \"#utility.yul\":4532:4546   */\n  lt\n    /* \"#utility.yul\":4524:4732   */\n  iszero\n  tag_89\n  jumpi\n    /* \"#utility.yul\":4617:4626   */\n  dup5\n    /* \"#utility.yul\":4612:4615   */\n  dup10\n    /* \"#utility.yul\":4608:4627   */\n  add\n    /* \"#utility.yul\":4602:4628   */\n  mload\n    /* \"#utility.yul\":4594:4600   */\n  dup3\n    /* \"#utility.yul\":4587:4629   */\n  sstore\n    /* \"#utility.yul\":4668:4669   */\n  0x01\n    /* \"#utility.yul\":4660:4666   */\n  dup3\n    /* \"#utility.yul\":4656:4670   */\n  add\n    /* \"#utility.yul\":4646:4670   */\n  swap2\n  pop\n    /* \"#utility.yul\":4715:4717   */\n  0x20\n    /* \"#utility.yul\":4704:4713   */\n  dup6\n    /* \"#utility.yul\":4700:4718   */\n  add\n    /* \"#utility.yul\":4687:4718   */\n  swap5\n  pop\n    /* \"#utility.yul\":4561:4565   */\n  0x20\n    /* \"#utility.yul\":4558:4559   */\n  dup2\n    /* \"#utility.yul\":4554:4566   */\n  add\n    /* \"#utility.yul\":4549:4566   */\n  swap1\n  pop\n    /* \"#utility.yul\":4524:4732   */\n  jump(tag_87)\ntag_89:\n    /* \"#utility.yul\":4760:4766   */\n  dup7\n    /* \"#utility.yul\":4751:4758   */\n  dup4\n    /* \"#utility.yul\":4748:4767   */\n  lt\n    /* \"#utility.yul\":4745:4924   */\n  iszero\n  tag_90\n  jumpi\n    /* \"#utility.yul\":4818:4827   */\n  dup5\n    /* \"#utility.yul\":4813:4816   */\n  dup10\n    /* \"#utility.yul\":4809:4828   */\n  add\n    /* \"#utility.yul\":4803:4829   */\n  mload\n    /* \"#utility.yul\":4861:4909   */\n  tag_91\n    /* \"#utility.yul\":4903:4907   */\n  0x1f\n    /* \"#utility.yul\":4895:4901   */\n  dup10\n    /* \"#utility.yul\":4891:4908   */\n  and\n    /* \"#utility.yul\":4880:4889   */\n  dup3\n    /* \"#utility.yul\":4861:4909   */\n  tag_28\n  jump\t// in\ntag_91:\n    /* \"#utility.yul\":4853:4859   */\n  dup4\n    /* \"#utility.yul\":4846:4910   */\n  sstore\n    /* \"#utility.yul\":4768:4924   */\n  pop\n    /* \"#utility.yul\":4745:4924   */\ntag_90:\n    /* \"#utility.yul\":4970:4971   */\n  0x01\n    /* \"#utility.yul\":4966:4967   */\n  0x02\n    /* \"#utility.yul\":4958:4964   */\n  dup9\n    /* \"#utility.yul\":4954:4968   */\n  mul\n    /* \"#utility.yul\":4950:4972   */\n  add\n    /* \"#utility.yul\":4944:4948   */\n  dup9\n    /* \"#utility.yul\":4937:4973   */\n  sstore\n    /* \"#utility.yul\":4372:4983   */\n  pop\n  pop\n  pop\n    /* \"#utility.yul\":4335:5222   */\ntag_82:\n  pop\n    /* \"#utility.yul\":3925:5228   */\n  pop\n  pop\n  pop\n    /* \"#utility.yul\":3833:5228   */\n  pop\n  pop\n  jump\t// out\n    /* \"Programming/Node/truffle/contracts/supercoin.sol\":119:3428  contract SuperToken is ERC20{... */\ntag_9:\n  dataSize(sub_0)\n  dup1\n  dataOffset(sub_0)\n  0x00\n  codecopy\n  0x00\n  return\nstop\n\nsub_0: assembly {\n        /* \"Programming/Node/truffle/contracts/supercoin.sol\":119:3428  contract SuperToken is ERC20{... */\n      mstore(0x40, 0x80)\n      callvalue\n      dup1\n      iszero\n      tag_1\n      jumpi\n      0x00\n      dup1\n      revert\n    tag_1:\n      pop\n      jumpi(tag_2, lt(calldatasize, 0x04))\n      shr(0xe0, calldataload(0x00))\n      dup1\n      0x39509351\n      gt\n      tag_18\n      jumpi\n      dup1\n      0xa457c2d7\n      gt\n      tag_19\n      jumpi\n      dup1\n      0xa457c2d7\n      eq\n      tag_14\n      jumpi\n      dup1\n      0xa9059cbb\n      eq\n      tag_15\n      jumpi\n      dup1\n      0xbbe6331b\n      eq\n      tag_16\n      jumpi\n      dup1\n      0xdd62ed3e\n      eq\n      tag_17\n      jumpi\n      jump(tag_2)\n    tag_19:\n      dup1\n      0x39509351\n      eq\n      tag_10\n      jumpi\n      dup1\n      0x40c10f19\n      eq\n      tag_11\n      jumpi\n      dup1\n      0x70a08231\n      eq\n      tag_12\n      jumpi\n      dup1\n      0x95d89b41\n      eq\n      tag_13\n      jumpi\n      jump(tag_2)\n    tag_18:\n      dup1\n      0x2312db25\n      gt\n      tag_20\n      jumpi\n      dup1\n      0x2312db25\n      eq\n      tag_6\n      jumpi\n      dup1\n      0x23b872dd\n      eq\n      tag_7\n      jumpi\n      dup1\n      0x29db5884\n      eq\n      tag_8\n      jumpi\n      dup1\n      0x313ce567\n      eq\n      tag_9\n      jumpi\n      jump(tag_2)\n    tag_20:\n      dup1\n      0x06fdde03\n      eq\n      tag_3\n      jumpi\n      dup1\n      0x095ea7b3\n      eq\n      tag_4\n      jumpi\n      dup1\n      0x18160ddd\n      eq\n      tag_5\n      jumpi\n    tag_2:\n      0x00\n      dup1\n      revert\n        /* \"@openzeppelin/contracts/token/ERC20/ERC20.sol\":2158:2256  function name() public view virtual override returns (string memory) {... */\n    tag_3:\n      tag_21\n      tag_22\n      jump\t// in\n    tag_21:\n      mload(0x40)\n      tag_23\n      swap2\n      swap1\n      tag_24\n      jump\t// in\n    tag_23:\n      mload(0x40)\n      dup1\n      swap2\n      sub\n      swap1\n      return\n        /* \"@openzeppelin/contracts/token/ERC20/ERC20.sol\":4444:4641  function approve(address spender, uint256 amount) public virtual override returns (bool) {... */\n    tag_4:\n      tag_25\n      0x04\n      dup1\n      calldatasize\n      sub\n      dup2\n      add\n      swap1\n      tag_26\n      swap2\n      swap1\n      tag_27\n      jump\t// in\n    tag_26:\n      tag_28\n      jump\t// in\n    tag_25:\n      mload(0x40)\n      tag_29\n      swap2\n      swap1\n      tag_30\n      jump\t// in\n    tag_29:\n      mload(0x40)\n      dup1\n      swap2\n      sub\n      swap1\n      return\n        /* \"Programming/Node/truffle/contracts/supercoin.sol\":3217:3320  function totalSupply() public override view returns(uint256){... */\n    tag_5:\n      tag_31\n      tag_32\n      jump\t// in\n    tag_31:\n      mload(0x40)\n      tag_33\n      swap2\n      swap1\n      tag_34\n      jump\t// in\n    tag_33:\n      mload(0x40)\n      dup1\n      swap2\n      sub\n      swap1\n      return\n        /* \"Programming/Node/truffle/contracts/supercoin.sol\":2962:3080  function viewTokens(address user) public view returns(uint256){... */\n    tag_6:\n      tag_35\n      0x04\n      dup1\n      calldatasize\n      sub\n      dup2\n      add\n      swap1\n      tag_36\n      swap2\n      swap1\n      tag_37\n      jump\t// in\n    tag_36:\n      tag_38\n      jump\t// in\n    tag_35:\n      mload(0x40)\n      tag_39\n      swap2\n      swap1\n      tag_34\n      jump\t// in\n    tag_39:\n      mload(0x40)\n      dup1\n      swap2\n      sub\n      swap1\n      return\n        /* \"Programming/Node/truffle/contracts/supercoin.sol\":1560:2368  function transferFrom(address from, address to, uint256 amount) public override returns(bool){... */\n    tag_7:\n      tag_40\n      0x04\n      dup1\n      calldatasize\n      sub\n      dup2\n      add\n      swap1\n      tag_41\n      swap2\n      swap1\n      tag_42\n      jump\t// in\n    tag_41:\n      tag_43\n      jump\t// in\n    tag_40:\n      mload(0x40)\n      tag_44\n      swap2\n      swap1\n      tag_30\n      jump\t// in\n    tag_44:\n      mload(0x40)\n      dup1\n      swap2\n      sub\n      swap1\n      return\n        /* \"Programming/Node/truffle/contracts/supercoin.sol\":2378:2954  function expireTokens(address user) public{... */\n    tag_8:\n      tag_45\n      0x04\n      dup1\n      calldatasize\n      sub\n      dup2\n      add\n      swap1\n      tag_46\n      swap2\n      swap1\n      tag_37\n      jump\t// in\n    tag_46:\n      tag_47\n      jump\t// in\n    tag_45:\n      stop\n        /* \"@openzeppelin/contracts/token/ERC20/ERC20.sol\":3104:3195  function decimals() public view virtual override returns (uint8) {... */\n    tag_9:\n      tag_48\n      tag_49\n      jump\t// in\n    tag_48:\n      mload(0x40)\n      tag_50\n      swap2\n      swap1\n      tag_51\n      jump\t// in\n    tag_50:\n      mload(0x40)\n      dup1\n      swap2\n      sub\n      swap1\n      return\n        /* \"@openzeppelin/contracts/token/ERC20/ERC20.sol\":5854:6088  function increaseAllowance(address spender, uint256 addedValue) public virtual returns (bool) {... */\n    tag_10:\n      tag_52\n      0x04\n      dup1\n      calldatasize\n      sub\n      dup2\n      add\n      swap1\n      tag_53\n      swap2\n      swap1\n      tag_27\n      jump\t// in\n    tag_53:\n      tag_54\n      jump\t// in\n    tag_52:\n      mload(0x40)\n      tag_55\n      swap2\n      swap1\n      tag_30\n      jump\t// in\n    tag_55:\n      mload(0x40)\n      dup1\n      swap2\n      sub\n      swap1\n      return\n        /* \"Programming/Node/truffle/contracts/supercoin.sol\":767:1550  function mint(address to,uint256 amount) external  onlyOwner {... */\n    tag_11:\n      tag_56\n      0x04\n      dup1\n      calldatasize\n      sub\n      dup2\n      add\n      swap1\n      tag_57\n      swap2\n      swap1\n      tag_27\n      jump\t// in\n    tag_57:\n      tag_58\n      jump\t// in\n    tag_56:\n      stop\n        /* \"@openzeppelin/contracts/token/ERC20/ERC20.sol\":3419:3544  function balanceOf(address account) public view virtual override returns (uint256) {... */\n    tag_12:\n      tag_59\n      0x04\n      dup1\n      calldatasize\n      sub\n      dup2\n      add\n      swap1\n      tag_60\n      swap2\n      swap1\n      tag_37\n      jump\t// in\n    tag_60:\n      tag_61\n      jump\t// in\n    tag_59:\n      mload(0x40)\n      tag_62\n      swap2\n      swap1\n      tag_34\n      jump\t// in\n    tag_62:\n      mload(0x40)\n      dup1\n      swap2\n      sub\n      swap1\n      return\n        /* \"@openzeppelin/contracts/token/ERC20/ERC20.sol\":2369:2471  function symbol() public view virtual override returns (string memory) {... */\n    tag_13:\n      tag_63\n      tag_64\n      jump\t// in\n    tag_63:\n      mload(0x40)\n      tag_65\n      swap2\n      swap1\n      tag_24\n      jump\t// in\n    tag_65:\n      mload(0x40)\n      dup1\n      swap2\n      sub\n      swap1\n      return\n        /* \"@openzeppelin/contracts/token/ERC20/ERC20.sol\":6575:7002  function decreaseAllowance(address spender, uint256 subtractedValue) public virtual returns (bool) {... */\n    tag_14:\n      tag_66\n      0x04\n      dup1\n      calldatasize\n      sub\n      dup2\n      add\n      swap1\n      tag_67\n      swap2\n      swap1\n      tag_27\n      jump\t// in\n    tag_67:\n      tag_68\n      jump\t// in\n    tag_66:\n      mload(0x40)\n      tag_69\n      swap2\n      swap1\n      tag_30\n      jump\t// in\n    tag_69:\n      mload(0x40)\n      dup1\n      swap2\n      sub\n      swap1\n      return\n        /* \"@openzeppelin/contracts/token/ERC20/ERC20.sol\":3740:3929  function transfer(address to, uint256 amount) public virtual override returns (bool) {... */\n    tag_15:\n      tag_70\n      0x04\n      dup1\n      calldatasize\n      sub\n      dup2\n      add\n      swap1\n      tag_71\n      swap2\n      swap1\n      tag_27\n      jump\t// in\n    tag_71:\n      tag_72\n      jump\t// in\n    tag_70:\n      mload(0x40)\n      tag_73\n      swap2\n      swap1\n      tag_30\n      jump\t// in\n    tag_73:\n      mload(0x40)\n      dup1\n      swap2\n      sub\n      swap1\n      return\n        /* \"Programming/Node/truffle/contracts/supercoin.sol\":3088:3209  function earningHistory(address user) public view returns(UserHistory memory){... */\n    tag_16:\n      tag_74\n      0x04\n      dup1\n      calldatasize\n      sub\n      dup2\n      add\n      swap1\n      tag_75\n      swap2\n      swap1\n      tag_37\n      jump\t// in\n    tag_75:\n      tag_76\n      jump\t// in\n    tag_74:\n      mload(0x40)\n      tag_77\n      swap2\n      swap1\n      tag_78\n      jump\t// in\n    tag_77:\n      mload(0x40)\n      dup1\n      swap2\n      sub\n      swap1\n      return\n        /* \"@openzeppelin/contracts/token/ERC20/ERC20.sol\":3987:4136  function allowance(address owner, address spender) public view virtual override returns (uint256) {... */\n    tag_17:\n      tag_79\n      0x04\n      dup1\n      calldatasize\n      sub\n      dup2\n      add\n      swap1\n      tag_80\n      swap2\n      swap1\n      tag_81\n      jump\t// in\n    tag_80:\n      tag_82\n      jump\t// in\n    tag_79:\n      mload(0x40)\n      tag_83\n      swap2\n      swap1\n      tag_34\n      jump\t// in\n    tag_83:\n      mload(0x40)\n      dup1\n      swap2\n      sub\n      swap1\n      return\n        /* \"@openzeppelin/contracts/token/ERC20/ERC20.sol\":2158:2256  function name() public view virtual override returns (string memory) {... */\n    tag_22:\n        /* \"@openzeppelin/contracts/token/ERC20/ERC20.sol\":2212:2225  string memory */\n      0x60\n        /* \"@openzeppelin/contracts/token/ERC20/ERC20.sol\":2244:2249  _name */\n      0x03\n        /* \"@openzeppelin/contracts/token/ERC20/ERC20.sol\":2237:2249  return _name */\n      dup1\n      sload\n      tag_85\n      swap1\n      tag_86\n      jump\t// in\n    tag_85:\n      dup1\n      0x1f\n      add\n      0x20\n      dup1\n      swap2\n      div\n      mul\n      0x20\n      add\n      mload(0x40)\n      swap1\n      dup2\n      add\n      0x40\n      mstore\n      dup1\n      swap3\n      swap2\n      swap1\n      dup2\n      dup2\n      mstore\n      0x20\n      add\n      dup3\n      dup1\n      sload\n      tag_87\n      swap1\n      tag_86\n      jump\t// in\n    tag_87:\n      dup1\n      iszero\n      tag_88\n      jumpi\n      dup1\n      0x1f\n      lt\n      tag_89\n      jumpi\n      0x0100\n      dup1\n      dup4\n      sload\n      div\n      mul\n      dup4\n      mstore\n      swap2\n      0x20\n      add\n      swap2\n      jump(tag_88)\n    tag_89:\n      dup3\n      add\n      swap2\n      swap1\n      0x00\n      mstore\n      keccak256(0x00, 0x20)\n      swap1\n    tag_90:\n      dup2\n      sload\n      dup2\n      mstore\n      swap1\n      0x01\n      add\n      swap1\n      0x20\n      add\n      dup1\n      dup4\n      gt\n      tag_90\n      jumpi\n      dup3\n      swap1\n      sub\n      0x1f\n      and\n      dup3\n      add\n      swap2\n    tag_88:\n      pop\n      pop\n      pop\n      pop\n      pop\n      swap1\n      pop\n        /* \"@openzeppelin/contracts/token/ERC20/ERC20.sol\":2158:2256  function name() public view virtual override returns (string memory) {... */\n      swap1\n      jump\t// out\n        /* \"@openzeppelin/contracts/token/ERC20/ERC20.sol\":4444:4641  function approve(address spender, uint256 amount) public virtual override returns (bool) {... */\n    tag_28:\n        /* \"@openzeppelin/contracts/token/ERC20/ERC20.sol\":4527:4531  bool */\n      0x00\n        /* \"@openzeppelin/contracts/token/ERC20/ERC20.sol\":4543:4556  address owner */\n      dup1\n        /* \"@openzeppelin/contracts/token/ERC20/ERC20.sol\":4559:4571  _msgSender() */\n      tag_92\n        /* \"@openzeppelin/contracts/token/ERC20/ERC20.sol\":4559:4569  _msgSender */\n      tag_93\n        /* \"@openzeppelin/contracts/token/ERC20/ERC20.sol\":4559:4571  _msgSender() */\n      jump\t// in\n    tag_92:\n        /* \"@openzeppelin/contracts/token/ERC20/ERC20.sol\":4543:4571  address owner = _msgSender() */\n      swap1\n      pop\n        /* \"@openzeppelin/contracts/token/ERC20/ERC20.sol\":4581:4613  _approve(owner, spender, amount) */\n      tag_94\n        /* \"@openzeppelin/contracts/token/ERC20/ERC20.sol\":4590:4595  owner */\n      dup2\n        /* \"@openzeppelin/contracts/token/ERC20/ERC20.sol\":4597:4604  spender */\n      dup6\n        /* \"@openzeppelin/contracts/token/ERC20/ERC20.sol\":4606:4612  amount */\n      dup6\n        /* \"@openzeppelin/contracts/token/ERC20/ERC20.sol\":4581:4589  _approve */\n      tag_95\n        /* \"@openzeppelin/contracts/token/ERC20/ERC20.sol\":4581:4613  _approve(owner, spender, amount) */\n      jump\t// in\n    tag_94:\n        /* \"@openzeppelin/contracts/token/ERC20/ERC20.sol\":4630:4634  true */\n      0x01\n        /* \"@openzeppelin/contracts/token/ERC20/ERC20.sol\":4623:4634  return true */\n      swap2\n      pop\n      pop\n        /* \"@openzeppelin/contracts/token/ERC20/ERC20.sol\":4444:4641  function approve(address spender, uint256 amount) public virtual override returns (bool) {... */\n      swap3\n      swap2\n      pop\n      pop\n      jump\t// out\n        /* \"Programming/Node/truffle/contracts/supercoin.sol\":3217:3320  function totalSupply() public override view returns(uint256){... */\n    tag_32:\n        /* \"Programming/Node/truffle/contracts/supercoin.sol\":3269:3276  uint256 */\n      0x00\n        /* \"Programming/Node/truffle/contracts/supercoin.sol\":3295:3312  totalTokensIssued */\n      sload(0x07)\n        /* \"Programming/Node/truffle/contracts/supercoin.sol\":3288:3312  return totalTokensIssued */\n      swap1\n      pop\n        /* \"Programming/Node/truffle/contracts/supercoin.sol\":3217:3320  function totalSupply() public override view returns(uint256){... */\n      swap1\n      jump\t// out\n        /* \"Programming/Node/truffle/contracts/supercoin.sol\":2962:3080  function viewTokens(address user) public view returns(uint256){... */\n    tag_38:\n        /* \"Programming/Node/truffle/contracts/supercoin.sol\":3016:3023  uint256 */\n      0x00\n        /* \"Programming/Node/truffle/contracts/supercoin.sol\":3042:3054  tokenBalance */\n      0x05\n        /* \"Programming/Node/truffle/contracts/supercoin.sol\":3042:3060  tokenBalance[user] */\n      0x00\n        /* \"Programming/Node/truffle/contracts/supercoin.sol\":3055:3059  user */\n      dup4\n        /* \"Programming/Node/truffle/contracts/supercoin.sol\":3042:3060  tokenBalance[user] */\n      0xffffffffffffffffffffffffffffffffffffffff\n      and\n      0xffffffffffffffffffffffffffffffffffffffff\n      and\n      dup2\n      mstore\n      0x20\n      add\n      swap1\n      dup2\n      mstore\n      0x20\n      add\n      0x00\n      keccak256\n        /* \"Programming/Node/truffle/contracts/supercoin.sol\":3042:3072  tokenBalance[user].totalTokens */\n      0x00\n      add\n      sload\n        /* \"Programming/Node/truffle/contracts/supercoin.sol\":3035:3072  return tokenBalance[user].totalTokens */\n      swap1\n      pop\n        /* \"Programming/Node/truffle/contracts/supercoin.sol\":2962:3080  function viewTokens(address user) public view returns(uint256){... */\n      swap2\n      swap1\n      pop\n      jump\t// out\n        /* \"Programming/Node/truffle/contracts/supercoin.sol\":1560:2368  function transferFrom(address from, address to, uint256 amount) public override returns(bool){... */\n    tag_43:\n        /* \"Programming/Node/truffle/contracts/supercoin.sol\":1648:1652  bool */\n      0x00\n        /* \"Programming/Node/truffle/contracts/supercoin.sol\":1664:1682  expireTokens(from) */\n      tag_99\n        /* \"Programming/Node/truffle/contracts/supercoin.sol\":1677:1681  from */\n      dup5\n        /* \"Programming/Node/truffle/contracts/supercoin.sol\":1664:1676  expireTokens */\n      tag_47\n        /* \"Programming/Node/truffle/contracts/supercoin.sol\":1664:1682  expireTokens(from) */\n      jump\t// in\n    tag_99:\n        /* \"Programming/Node/truffle/contracts/supercoin.sol\":1735:1741  amount */\n      dup2\n        /* \"Programming/Node/truffle/contracts/supercoin.sol\":1703:1715  tokenBalance */\n      0x05\n        /* \"Programming/Node/truffle/contracts/supercoin.sol\":1703:1721  tokenBalance[from] */\n      0x00\n        /* \"Programming/Node/truffle/contracts/supercoin.sol\":1716:1720  from */\n      dup7\n        /* \"Programming/Node/truffle/contracts/supercoin.sol\":1703:1721  tokenBalance[from] */\n      0xffffffffffffffffffffffffffffffffffffffff\n      and\n      0xffffffffffffffffffffffffffffffffffffffff\n      and\n      dup2\n      mstore\n      0x20\n      add\n      swap1\n      dup2\n      mstore\n      0x20\n      add\n      0x00\n      keccak256\n        /* \"Programming/Node/truffle/contracts/supercoin.sol\":1703:1733  tokenBalance[from].totalTokens */\n      0x00\n      add\n      sload\n        /* \"Programming/Node/truffle/contracts/supercoin.sol\":1703:1741  tokenBalance[from].totalTokens>=amount */\n      lt\n      iszero\n        /* \"Programming/Node/truffle/contracts/supercoin.sol\":1695:1763  require(tokenBalance[from].totalTokens>=amount,\"Not Enough tokens!\") */\n      tag_100\n      jumpi\n      mload(0x40)\n      0x08c379a000000000000000000000000000000000000000000000000000000000\n      dup2\n      mstore\n      0x04\n      add\n      tag_101\n      swap1\n      tag_102\n      jump\t// in\n    tag_101:\n      mload(0x40)\n      dup1\n      swap2\n      sub\n      swap1\n      revert\n    tag_100:\n        /* \"Programming/Node/truffle/contracts/supercoin.sol\":1780:1789  uint256 i */\n      0x00\n        /* \"Programming/Node/truffle/contracts/supercoin.sol\":1776:2297  for(uint256 i=0;i<tokenBalance[from].tokenDetails.length;i++){... */\n    tag_103:\n        /* \"Programming/Node/truffle/contracts/supercoin.sol\":1794:1806  tokenBalance */\n      0x05\n        /* \"Programming/Node/truffle/contracts/supercoin.sol\":1794:1812  tokenBalance[from] */\n      0x00\n        /* \"Programming/Node/truffle/contracts/supercoin.sol\":1807:1811  from */\n      dup7\n        /* \"Programming/Node/truffle/contracts/supercoin.sol\":1794:1812  tokenBalance[from] */\n      0xffffffffffffffffffffffffffffffffffffffff\n      and\n      0xffffffffffffffffffffffffffffffffffffffff\n      and\n      dup2\n      mstore\n      0x20\n      add\n      swap1\n      dup2\n      mstore\n      0x20\n      add\n      0x00\n      keccak256\n        /* \"Programming/Node/truffle/contracts/supercoin.sol\":1794:1825  tokenBalance[from].tokenDetails */\n      0x01\n      add\n        /* \"Programming/Node/truffle/contracts/supercoin.sol\":1794:1832  tokenBalance[from].tokenDetails.length */\n      dup1\n      sload\n      swap1\n      pop\n        /* \"Programming/Node/truffle/contracts/supercoin.sol\":1792:1793  i */\n      dup2\n        /* \"Programming/Node/truffle/contracts/supercoin.sol\":1792:1832  i<tokenBalance[from].tokenDetails.length */\n      lt\n        /* \"Programming/Node/truffle/contracts/supercoin.sol\":1776:2297  for(uint256 i=0;i<tokenBalance[from].tokenDetails.length;i++){... */\n      iszero\n      tag_104\n      jumpi\n        /* \"Programming/Node/truffle/contracts/supercoin.sol\":1897:1898  0 */\n      0x00\n        /* \"Programming/Node/truffle/contracts/supercoin.sol\":1855:1867  tokenBalance */\n      0x05\n        /* \"Programming/Node/truffle/contracts/supercoin.sol\":1855:1873  tokenBalance[from] */\n      0x00\n        /* \"Programming/Node/truffle/contracts/supercoin.sol\":1868:1872  from */\n      dup8\n        /* \"Programming/Node/truffle/contracts/supercoin.sol\":1855:1873  tokenBalance[from] */\n      0xffffffffffffffffffffffffffffffffffffffff\n      and\n      0xffffffffffffffffffffffffffffffffffffffff\n      and\n      dup2\n      mstore\n      0x20\n      add\n      swap1\n      dup2\n      mstore\n      0x20\n      add\n      0x00\n      keccak256\n        /* \"Programming/Node/truffle/contracts/supercoin.sol\":1855:1886  tokenBalance[from].tokenDetails */\n      0x01\n      add\n        /* \"Programming/Node/truffle/contracts/supercoin.sol\":1887:1888  i */\n      dup3\n        /* \"Programming/Node/truffle/contracts/supercoin.sol\":1855:1889  tokenBalance[from].tokenDetails[i] */\n      dup2\n      sload\n      dup2\n      lt\n      tag_106\n      jumpi\n      tag_107\n      tag_108\n      jump\t// in\n    tag_107:\n    tag_106:\n      swap1\n      0x00\n      mstore\n      keccak256(0x00, 0x20)\n      swap1\n      0x03\n      mul\n      add\n        /* \"Programming/Node/truffle/contracts/supercoin.sol\":1855:1896  tokenBalance[from].tokenDetails[i].amount */\n      0x00\n      add\n      sload\n        /* \"Programming/Node/truffle/contracts/supercoin.sol\":1855:1898  tokenBalance[from].tokenDetails[i].amount>0 */\n      gt\n        /* \"Programming/Node/truffle/contracts/supercoin.sol\":1852:2286  if(tokenBalance[from].tokenDetails[i].amount>0){... */\n      iszero\n      tag_110\n      jumpi\n        /* \"Programming/Node/truffle/contracts/supercoin.sol\":1964:1970  amount */\n      dup3\n        /* \"Programming/Node/truffle/contracts/supercoin.sol\":1921:1933  tokenBalance */\n      0x05\n        /* \"Programming/Node/truffle/contracts/supercoin.sol\":1921:1939  tokenBalance[from] */\n      0x00\n        /* \"Programming/Node/truffle/contracts/supercoin.sol\":1934:1938  from */\n      dup8\n        /* \"Programming/Node/truffle/contracts/supercoin.sol\":1921:1939  tokenBalance[from] */\n      0xffffffffffffffffffffffffffffffffffffffff\n      and\n      0xffffffffffffffffffffffffffffffffffffffff\n      and\n      dup2\n      mstore\n      0x20\n      add\n      swap1\n      dup2\n      mstore\n      0x20\n      add\n      0x00\n      keccak256\n        /* \"Programming/Node/truffle/contracts/supercoin.sol\":1921:1952  tokenBalance[from].tokenDetails */\n      0x01\n      add\n        /* \"Programming/Node/truffle/contracts/supercoin.sol\":1953:1954  i */\n      dup3\n        /* \"Programming/Node/truffle/contracts/supercoin.sol\":1921:1955  tokenBalance[from].tokenDetails[i] */\n      dup2\n      sload\n      dup2\n      lt\n      tag_111\n      jumpi\n      tag_112\n      tag_108\n      jump\t// in\n    tag_112:\n    tag_111:\n      swap1\n      0x00\n      mstore\n      keccak256(0x00, 0x20)\n      swap1\n      0x03\n      mul\n      add\n        /* \"Programming/Node/truffle/contracts/supercoin.sol\":1921:1962  tokenBalance[from].tokenDetails[i].amount */\n      0x00\n      add\n      sload\n        /* \"Programming/Node/truffle/contracts/supercoin.sol\":1921:1970  tokenBalance[from].tokenDetails[i].amount>=amount */\n      lt\n        /* \"Programming/Node/truffle/contracts/supercoin.sol\":1918:2271  if(tokenBalance[from].tokenDetails[i].amount>=amount){... */\n      tag_114\n      jumpi\n        /* \"Programming/Node/truffle/contracts/supercoin.sol\":2037:2043  amount */\n      dup3\n        /* \"Programming/Node/truffle/contracts/supercoin.sol\":1994:2006  tokenBalance */\n      0x05\n        /* \"Programming/Node/truffle/contracts/supercoin.sol\":1994:2012  tokenBalance[from] */\n      0x00\n        /* \"Programming/Node/truffle/contracts/supercoin.sol\":2007:2011  from */\n      dup8\n        /* \"Programming/Node/truffle/contracts/supercoin.sol\":1994:2012  tokenBalance[from] */\n      0xffffffffffffffffffffffffffffffffffffffff\n      and\n      0xffffffffffffffffffffffffffffffffffffffff\n      and\n      dup2\n      mstore\n      0x20\n      add\n      swap1\n      dup2\n      mstore\n      0x20\n      add\n      0x00\n      keccak256\n        /* \"Programming/Node/truffle/contracts/supercoin.sol\":1994:2025  tokenBalance[from].tokenDetails */\n      0x01\n      add\n        /* \"Programming/Node/truffle/contracts/supercoin.sol\":2026:2027  i */\n      dup3\n        /* \"Programming/Node/truffle/contracts/supercoin.sol\":1994:2028  tokenBalance[from].tokenDetails[i] */\n      dup2\n      sload\n      dup2\n      lt\n      tag_115\n      jumpi\n      tag_116\n      tag_108\n      jump\t// in\n    tag_116:\n    tag_115:\n      swap1\n      0x00\n      mstore\n      keccak256(0x00, 0x20)\n      swap1\n      0x03\n      mul\n      add\n        /* \"Programming/Node/truffle/contracts/supercoin.sol\":1994:2035  tokenBalance[from].tokenDetails[i].amount */\n      0x00\n      add\n      0x00\n        /* \"Programming/Node/truffle/contracts/supercoin.sol\":1994:2043  tokenBalance[from].tokenDetails[i].amount-=amount */\n      dup3\n      dup3\n      sload\n      tag_118\n      swap2\n      swap1\n      tag_119\n      jump\t// in\n    tag_118:\n      swap3\n      pop\n      pop\n      dup2\n      swap1\n      sstore\n      pop\n        /* \"Programming/Node/truffle/contracts/supercoin.sol\":2066:2071  break */\n      jump(tag_104)\n        /* \"Programming/Node/truffle/contracts/supercoin.sol\":1918:2271  if(tokenBalance[from].tokenDetails[i].amount>=amount){... */\n    tag_114:\n        /* \"Programming/Node/truffle/contracts/supercoin.sol\":2144:2156  tokenBalance */\n      0x05\n        /* \"Programming/Node/truffle/contracts/supercoin.sol\":2144:2162  tokenBalance[from] */\n      0x00\n        /* \"Programming/Node/truffle/contracts/supercoin.sol\":2157:2161  from */\n      dup7\n        /* \"Programming/Node/truffle/contracts/supercoin.sol\":2144:2162  tokenBalance[from] */\n      0xffffffffffffffffffffffffffffffffffffffff\n      and\n      0xffffffffffffffffffffffffffffffffffffffff\n      and\n      dup2\n      mstore\n      0x20\n      add\n      swap1\n      dup2\n      mstore\n      0x20\n      add\n      0x00\n      keccak256\n        /* \"Programming/Node/truffle/contracts/supercoin.sol\":2144:2175  tokenBalance[from].tokenDetails */\n      0x01\n      add\n        /* \"Programming/Node/truffle/contracts/supercoin.sol\":2176:2177  i */\n      dup2\n        /* \"Programming/Node/truffle/contracts/supercoin.sol\":2144:2178  tokenBalance[from].tokenDetails[i] */\n      dup2\n      sload\n      dup2\n      lt\n      tag_121\n      jumpi\n      tag_122\n      tag_108\n      jump\t// in\n    tag_122:\n    tag_121:\n      swap1\n      0x00\n      mstore\n      keccak256(0x00, 0x20)\n      swap1\n      0x03\n      mul\n      add\n        /* \"Programming/Node/truffle/contracts/supercoin.sol\":2144:2185  tokenBalance[from].tokenDetails[i].amount */\n      0x00\n      add\n      sload\n        /* \"Programming/Node/truffle/contracts/supercoin.sol\":2136:2185  amount-=tokenBalance[from].tokenDetails[i].amount */\n      dup4\n      tag_124\n      swap2\n      swap1\n      tag_119\n      jump\t// in\n    tag_124:\n      swap3\n      pop\n        /* \"Programming/Node/truffle/contracts/supercoin.sol\":2250:2251  0 */\n      0x00\n        /* \"Programming/Node/truffle/contracts/supercoin.sol\":2208:2220  tokenBalance */\n      0x05\n        /* \"Programming/Node/truffle/contracts/supercoin.sol\":2208:2226  tokenBalance[from] */\n      0x00\n        /* \"Programming/Node/truffle/contracts/supercoin.sol\":2221:2225  from */\n      dup8\n        /* \"Programming/Node/truffle/contracts/supercoin.sol\":2208:2226  tokenBalance[from] */\n      0xffffffffffffffffffffffffffffffffffffffff\n      and\n      0xffffffffffffffffffffffffffffffffffffffff\n      and\n      dup2\n      mstore\n      0x20\n      add\n      swap1\n      dup2\n      mstore\n      0x20\n      add\n      0x00\n      keccak256\n        /* \"Programming/Node/truffle/contracts/supercoin.sol\":2208:2239  tokenBalance[from].tokenDetails */\n      0x01\n      add\n        /* \"Programming/Node/truffle/contracts/supercoin.sol\":2240:2241  i */\n      dup3\n        /* \"Programming/Node/truffle/contracts/supercoin.sol\":2208:2242  tokenBalance[from].tokenDetails[i] */\n      dup2\n      sload\n      dup2\n      lt\n      tag_125\n      jumpi\n      tag_126\n      tag_108\n      jump\t// in\n    tag_126:\n    tag_125:\n      swap1\n      0x00\n      mstore\n      keccak256(0x00, 0x20)\n      swap1\n      0x03\n      mul\n      add\n        /* \"Programming/Node/truffle/contracts/supercoin.sol\":2208:2249  tokenBalance[from].tokenDetails[i].amount */\n      0x00\n      add\n        /* \"Programming/Node/truffle/contracts/supercoin.sol\":2208:2251  tokenBalance[from].tokenDetails[i].amount=0 */\n      dup2\n      swap1\n      sstore\n      pop\n        /* \"Programming/Node/truffle/contracts/supercoin.sol\":1852:2286  if(tokenBalance[from].tokenDetails[i].amount>0){... */\n    tag_110:\n        /* \"Programming/Node/truffle/contracts/supercoin.sol\":1833:1836  i++ */\n      dup1\n      dup1\n      tag_128\n      swap1\n      tag_129\n      jump\t// in\n    tag_128:\n      swap2\n      pop\n      pop\n        /* \"Programming/Node/truffle/contracts/supercoin.sol\":1776:2297  for(uint256 i=0;i<tokenBalance[from].tokenDetails.length;i++){... */\n      jump(tag_103)\n    tag_104:\n      pop\n        /* \"Programming/Node/truffle/contracts/supercoin.sol\":2309:2336  _transfer(from, to, amount) */\n      tag_130\n        /* \"Programming/Node/truffle/contracts/supercoin.sol\":2319:2323  from */\n      dup5\n        /* \"Programming/Node/truffle/contracts/supercoin.sol\":2325:2327  to */\n      dup5\n        /* \"Programming/Node/truffle/contracts/supercoin.sol\":2329:2335  amount */\n      dup5\n        /* \"Programming/Node/truffle/contracts/supercoin.sol\":2309:2318  _transfer */\n      tag_131\n        /* \"Programming/Node/truffle/contracts/supercoin.sol\":2309:2336  _transfer(from, to, amount) */\n      jump\t// in\n    tag_130:\n        /* \"Programming/Node/truffle/contracts/supercoin.sol\":2356:2360  true */\n      0x01\n        /* \"Programming/Node/truffle/contracts/supercoin.sol\":2349:2360  return true */\n      swap1\n      pop\n        /* \"Programming/Node/truffle/contracts/supercoin.sol\":1560:2368  function transferFrom(address from, address to, uint256 amount) public override returns(bool){... */\n      swap4\n      swap3\n      pop\n      pop\n      pop\n      jump\t// out\n        /* \"Programming/Node/truffle/contracts/supercoin.sol\":2378:2954  function expireTokens(address user) public{... */\n    tag_47:\n        /* \"Programming/Node/truffle/contracts/supercoin.sol\":2431:2449  uint expiredTokens */\n      0x00\n        /* \"Programming/Node/truffle/contracts/supercoin.sol\":2466:2472  uint i */\n      dup1\n        /* \"Programming/Node/truffle/contracts/supercoin.sol\":2462:2811  for(uint i=0;i<tokenBalance[user].tokenDetails.length;i++){... */\n    tag_133:\n        /* \"Programming/Node/truffle/contracts/supercoin.sol\":2477:2489  tokenBalance */\n      0x05\n        /* \"Programming/Node/truffle/contracts/supercoin.sol\":2477:2495  tokenBalance[user] */\n      0x00\n        /* \"Programming/Node/truffle/contracts/supercoin.sol\":2490:2494  user */\n      dup5\n        /* \"Programming/Node/truffle/contracts/supercoin.sol\":2477:2495  tokenBalance[user] */\n      0xffffffffffffffffffffffffffffffffffffffff\n      and\n      0xffffffffffffffffffffffffffffffffffffffff\n      and\n      dup2\n      mstore\n      0x20\n      add\n      swap1\n      dup2\n      mstore\n      0x20\n      add\n      0x00\n      keccak256\n        /* \"Programming/Node/truffle/contracts/supercoin.sol\":2477:2508  tokenBalance[user].tokenDetails */\n      0x01\n      add\n        /* \"Programming/Node/truffle/contracts/supercoin.sol\":2477:2515  tokenBalance[user].tokenDetails.length */\n      dup1\n      sload\n      swap1\n      pop\n        /* \"Programming/Node/truffle/contracts/supercoin.sol\":2475:2476  i */\n      dup2\n        /* \"Programming/Node/truffle/contracts/supercoin.sol\":2475:2515  i<tokenBalance[user].tokenDetails.length */\n      lt\n        /* \"Programming/Node/truffle/contracts/supercoin.sol\":2462:2811  for(uint i=0;i<tokenBalance[user].tokenDetails.length;i++){... */\n      iszero\n      tag_134\n      jumpi\n        /* \"Programming/Node/truffle/contracts/supercoin.sol\":2584:2599  block.timestamp */\n      timestamp\n        /* \"Programming/Node/truffle/contracts/supercoin.sol\":2538:2550  tokenBalance */\n      0x05\n        /* \"Programming/Node/truffle/contracts/supercoin.sol\":2538:2556  tokenBalance[user] */\n      0x00\n        /* \"Programming/Node/truffle/contracts/supercoin.sol\":2551:2555  user */\n      dup6\n        /* \"Programming/Node/truffle/contracts/supercoin.sol\":2538:2556  tokenBalance[user] */\n      0xffffffffffffffffffffffffffffffffffffffff\n      and\n      0xffffffffffffffffffffffffffffffffffffffff\n      and\n      dup2\n      mstore\n      0x20\n      add\n      swap1\n      dup2\n      mstore\n      0x20\n      add\n      0x00\n      keccak256\n        /* \"Programming/Node/truffle/contracts/supercoin.sol\":2538:2569  tokenBalance[user].tokenDetails */\n      0x01\n      add\n        /* \"Programming/Node/truffle/contracts/supercoin.sol\":2570:2571  i */\n      dup3\n        /* \"Programming/Node/truffle/contracts/supercoin.sol\":2538:2572  tokenBalance[user].tokenDetails[i] */\n      dup2\n      sload\n      dup2\n      lt\n      tag_136\n      jumpi\n      tag_137\n      tag_108\n      jump\t// in\n    tag_137:\n    tag_136:\n      swap1\n      0x00\n      mstore\n      keccak256(0x00, 0x20)\n      swap1\n      0x03\n      mul\n      add\n        /* \"Programming/Node/truffle/contracts/supercoin.sol\":2538:2583  tokenBalance[user].tokenDetails[i].expiryDate */\n      0x02\n      add\n      sload\n        /* \"Programming/Node/truffle/contracts/supercoin.sol\":2538:2599  tokenBalance[user].tokenDetails[i].expiryDate<block.timestamp */\n      lt\n        /* \"Programming/Node/truffle/contracts/supercoin.sol\":2538:2646  tokenBalance[user].tokenDetails[i].expiryDate<block.timestamp && tokenBalance[user].tokenDetails[i].amount>0 */\n      dup1\n      iszero\n      tag_139\n      jumpi\n      pop\n        /* \"Programming/Node/truffle/contracts/supercoin.sol\":2645:2646  0 */\n      0x00\n        /* \"Programming/Node/truffle/contracts/supercoin.sol\":2603:2615  tokenBalance */\n      0x05\n        /* \"Programming/Node/truffle/contracts/supercoin.sol\":2603:2621  tokenBalance[user] */\n      0x00\n        /* \"Programming/Node/truffle/contracts/supercoin.sol\":2616:2620  user */\n      dup6\n        /* \"Programming/Node/truffle/contracts/supercoin.sol\":2603:2621  tokenBalance[user] */\n      0xffffffffffffffffffffffffffffffffffffffff\n      and\n      0xffffffffffffffffffffffffffffffffffffffff\n      and\n      dup2\n      mstore\n      0x20\n      add\n      swap1\n      dup2\n      mstore\n      0x20\n      add\n      0x00\n      keccak256\n        /* \"Programming/Node/truffle/contracts/supercoin.sol\":2603:2634  tokenBalance[user].tokenDetails */\n      0x01\n      add\n        /* \"Programming/Node/truffle/contracts/supercoin.sol\":2635:2636  i */\n      dup3\n        /* \"Programming/Node/truffle/contracts/supercoin.sol\":2603:2637  tokenBalance[user].tokenDetails[i] */\n      dup2\n      sload\n      dup2\n      lt\n      tag_140\n      jumpi\n      tag_141\n      tag_108\n      jump\t// in\n    tag_141:\n    tag_140:\n      swap1\n      0x00\n      mstore\n      keccak256(0x00, 0x20)\n      swap1\n      0x03\n      mul\n      add\n        /* \"Programming/Node/truffle/contracts/supercoin.sol\":2603:2644  tokenBalance[user].tokenDetails[i].amount */\n      0x00\n      add\n      sload\n        /* \"Programming/Node/truffle/contracts/supercoin.sol\":2603:2646  tokenBalance[user].tokenDetails[i].amount>0 */\n      gt\n        /* \"Programming/Node/truffle/contracts/supercoin.sol\":2538:2646  tokenBalance[user].tokenDetails[i].expiryDate<block.timestamp && tokenBalance[user].tokenDetails[i].amount>0 */\n    tag_139:\n        /* \"Programming/Node/truffle/contracts/supercoin.sol\":2535:2800  if(tokenBalance[user].tokenDetails[i].expiryDate<block.timestamp && tokenBalance[user].tokenDetails[i].amount>0){... */\n      iszero\n      tag_143\n      jumpi\n        /* \"Programming/Node/truffle/contracts/supercoin.sol\":2681:2693  tokenBalance */\n      0x05\n        /* \"Programming/Node/truffle/contracts/supercoin.sol\":2681:2699  tokenBalance[user] */\n      0x00\n        /* \"Programming/Node/truffle/contracts/supercoin.sol\":2694:2698  user */\n      dup5\n        /* \"Programming/Node/truffle/contracts/supercoin.sol\":2681:2699  tokenBalance[user] */\n      0xffffffffffffffffffffffffffffffffffffffff\n      and\n      0xffffffffffffffffffffffffffffffffffffffff\n      and\n      dup2\n      mstore\n      0x20\n      add\n      swap1\n      dup2\n      mstore\n      0x20\n      add\n      0x00\n      keccak256\n        /* \"Programming/Node/truffle/contracts/supercoin.sol\":2681:2712  tokenBalance[user].tokenDetails */\n      0x01\n      add\n        /* \"Programming/Node/truffle/contracts/supercoin.sol\":2713:2714  i */\n      dup2\n        /* \"Programming/Node/truffle/contracts/supercoin.sol\":2681:2715  tokenBalance[user].tokenDetails[i] */\n      dup2\n      sload\n      dup2\n      lt\n      tag_144\n      jumpi\n      tag_145\n      tag_108\n      jump\t// in\n    tag_145:\n    tag_144:\n      swap1\n      0x00\n      mstore\n      keccak256(0x00, 0x20)\n      swap1\n      0x03\n      mul\n      add\n        /* \"Programming/Node/truffle/contracts/supercoin.sol\":2681:2722  tokenBalance[user].tokenDetails[i].amount */\n      0x00\n      add\n      sload\n        /* \"Programming/Node/truffle/contracts/supercoin.sol\":2666:2722  expiredTokens+=tokenBalance[user].tokenDetails[i].amount */\n      dup3\n      tag_147\n      swap2\n      swap1\n      tag_148\n      jump\t// in\n    tag_147:\n      swap2\n      pop\n        /* \"Programming/Node/truffle/contracts/supercoin.sol\":2783:2784  0 */\n      0x00\n        /* \"Programming/Node/truffle/contracts/supercoin.sol\":2741:2753  tokenBalance */\n      0x05\n        /* \"Programming/Node/truffle/contracts/supercoin.sol\":2741:2759  tokenBalance[user] */\n      0x00\n        /* \"Programming/Node/truffle/contracts/supercoin.sol\":2754:2758  user */\n      dup6\n        /* \"Programming/Node/truffle/contracts/supercoin.sol\":2741:2759  tokenBalance[user] */\n      0xffffffffffffffffffffffffffffffffffffffff\n      and\n      0xffffffffffffffffffffffffffffffffffffffff\n      and\n      dup2\n      mstore\n      0x20\n      add\n      swap1\n      dup2\n      mstore\n      0x20\n      add\n      0x00\n      keccak256\n        /* \"Programming/Node/truffle/contracts/supercoin.sol\":2741:2772  tokenBalance[user].tokenDetails */\n      0x01\n      add\n        /* \"Programming/Node/truffle/contracts/supercoin.sol\":2773:2774  i */\n      dup3\n        /* \"Programming/Node/truffle/contracts/supercoin.sol\":2741:2775  tokenBalance[user].tokenDetails[i] */\n      dup2\n      sload\n      dup2\n      lt\n      tag_149\n      jumpi\n      tag_150\n      tag_108\n      jump\t// in\n    tag_150:\n    tag_149:\n      swap1\n      0x00\n      mstore\n      keccak256(0x00, 0x20)\n      swap1\n      0x03\n      mul\n      add\n        /* \"Programming/Node/truffle/contracts/supercoin.sol\":2741:2782  tokenBalance[user].tokenDetails[i].amount */\n      0x00\n      add\n        /* \"Programming/Node/truffle/contracts/supercoin.sol\":2741:2784  tokenBalance[user].tokenDetails[i].amount=0 */\n      dup2\n      swap1\n      sstore\n      pop\n        /* \"Programming/Node/truffle/contracts/supercoin.sol\":2535:2800  if(tokenBalance[user].tokenDetails[i].expiryDate<block.timestamp && tokenBalance[user].tokenDetails[i].amount>0){... */\n    tag_143:\n        /* \"Programming/Node/truffle/contracts/supercoin.sol\":2516:2519  i++ */\n      dup1\n      dup1\n      tag_152\n      swap1\n      tag_129\n      jump\t// in\n    tag_152:\n      swap2\n      pop\n      pop\n        /* \"Programming/Node/truffle/contracts/supercoin.sol\":2462:2811  for(uint i=0;i<tokenBalance[user].tokenDetails.length;i++){... */\n      jump(tag_133)\n    tag_134:\n      pop\n        /* \"Programming/Node/truffle/contracts/supercoin.sol\":2821:2847  _burn(user, expiredTokens) */\n      tag_153\n        /* \"Programming/Node/truffle/contracts/supercoin.sol\":2827:2831  user */\n      dup3\n        /* \"Programming/Node/truffle/contracts/supercoin.sol\":2833:2846  expiredTokens */\n      dup3\n        /* \"Programming/Node/truffle/contracts/supercoin.sol\":2821:2826  _burn */\n      tag_154\n        /* \"Programming/Node/truffle/contracts/supercoin.sol\":2821:2847  _burn(user, expiredTokens) */\n      jump\t// in\n    tag_153:\n        /* \"Programming/Node/truffle/contracts/supercoin.sol\":2890:2903  expiredTokens */\n      dup1\n        /* \"Programming/Node/truffle/contracts/supercoin.sol\":2858:2870  tokenBalance */\n      0x05\n        /* \"Programming/Node/truffle/contracts/supercoin.sol\":2858:2876  tokenBalance[user] */\n      0x00\n        /* \"Programming/Node/truffle/contracts/supercoin.sol\":2871:2875  user */\n      dup5\n        /* \"Programming/Node/truffle/contracts/supercoin.sol\":2858:2876  tokenBalance[user] */\n      0xffffffffffffffffffffffffffffffffffffffff\n      and\n      0xffffffffffffffffffffffffffffffffffffffff\n      and\n      dup2\n      mstore\n      0x20\n      add\n      swap1\n      dup2\n      mstore\n      0x20\n      add\n      0x00\n      keccak256\n        /* \"Programming/Node/truffle/contracts/supercoin.sol\":2858:2888  tokenBalance[user].totalTokens */\n      0x00\n      add\n      0x00\n        /* \"Programming/Node/truffle/contracts/supercoin.sol\":2858:2903  tokenBalance[user].totalTokens-=expiredTokens */\n      dup3\n      dup3\n      sload\n      tag_155\n      swap2\n      swap1\n      tag_119\n      jump\t// in\n    tag_155:\n      swap3\n      pop\n      pop\n      dup2\n      swap1\n      sstore\n      pop\n        /* \"Programming/Node/truffle/contracts/supercoin.sol\":2933:2946  expiredTokens */\n      dup1\n        /* \"Programming/Node/truffle/contracts/supercoin.sol\":2914:2931  totalTokensIssued */\n      0x07\n      0x00\n        /* \"Programming/Node/truffle/contracts/supercoin.sol\":2914:2946  totalTokensIssued-=expiredTokens */\n      dup3\n      dup3\n      sload\n      tag_156\n      swap2\n      swap1\n      tag_119\n      jump\t// in\n    tag_156:\n      swap3\n      pop\n      pop\n      dup2\n      swap1\n      sstore\n      pop\n        /* \"Programming/Node/truffle/contracts/supercoin.sol\":2420:2954  {... */\n      pop\n        /* \"Programming/Node/truffle/contracts/supercoin.sol\":2378:2954  function expireTokens(address user) public{... */\n      pop\n      jump\t// out\n        /* \"@openzeppelin/contracts/token/ERC20/ERC20.sol\":3104:3195  function decimals() public view virtual override returns (uint8) {... */\n    tag_49:\n        /* \"@openzeppelin/contracts/token/ERC20/ERC20.sol\":3162:3167  uint8 */\n      0x00\n        /* \"@openzeppelin/contracts/token/ERC20/ERC20.sol\":3186:3188  18 */\n      0x12\n        /* \"@openzeppelin/contracts/token/ERC20/ERC20.sol\":3179:3188  return 18 */\n      swap1\n      pop\n        /* \"@openzeppelin/contracts/token/ERC20/ERC20.sol\":3104:3195  function decimals() public view virtual override returns (uint8) {... */\n      swap1\n      jump\t// out\n        /* \"@openzeppelin/contracts/token/ERC20/ERC20.sol\":5854:6088  function increaseAllowance(address spender, uint256 addedValue) public virtual returns (bool) {... */\n    tag_54:\n        /* \"@openzeppelin/contracts/token/ERC20/ERC20.sol\":5942:5946  bool */\n      0x00\n        /* \"@openzeppelin/contracts/token/ERC20/ERC20.sol\":5958:5971  address owner */\n      dup1\n        /* \"@openzeppelin/contracts/token/ERC20/ERC20.sol\":5974:5986  _msgSender() */\n      tag_159\n        /* \"@openzeppelin/contracts/token/ERC20/ERC20.sol\":5974:5984  _msgSender */\n      tag_93\n        /* \"@openzeppelin/contracts/token/ERC20/ERC20.sol\":5974:5986  _msgSender() */\n      jump\t// in\n    tag_159:\n        /* \"@openzeppelin/contracts/token/ERC20/ERC20.sol\":5958:5986  address owner = _msgSender() */\n      swap1\n      pop\n        /* \"@openzeppelin/contracts/token/ERC20/ERC20.sol\":5996:6060  _approve(owner, spender, allowance(owner, spender) + addedValue) */\n      tag_160\n        /* \"@openzeppelin/contracts/token/ERC20/ERC20.sol\":6005:6010  owner */\n      dup2\n        /* \"@openzeppelin/contracts/token/ERC20/ERC20.sol\":6012:6019  spender */\n      dup6\n        /* \"@openzeppelin/contracts/token/ERC20/ERC20.sol\":6049:6059  addedValue */\n      dup6\n        /* \"@openzeppelin/contracts/token/ERC20/ERC20.sol\":6021:6046  allowance(owner, spender) */\n      tag_161\n        /* \"@openzeppelin/contracts/token/ERC20/ERC20.sol\":6031:6036  owner */\n      dup6\n        /* \"@openzeppelin/contracts/token/ERC20/ERC20.sol\":6038:6045  spender */\n      dup10\n        /* \"@openzeppelin/contracts/token/ERC20/ERC20.sol\":6021:6030  allowance */\n      tag_82\n        /* \"@openzeppelin/contracts/token/ERC20/ERC20.sol\":6021:6046  allowance(owner, spender) */\n      jump\t// in\n    tag_161:\n        /* \"@openzeppelin/contracts/token/ERC20/ERC20.sol\":6021:6059  allowance(owner, spender) + addedValue */\n      tag_162\n      swap2\n      swap1\n      tag_148\n      jump\t// in\n    tag_162:\n        /* \"@openzeppelin/contracts/token/ERC20/ERC20.sol\":5996:6004  _approve */\n      tag_95\n        /* \"@openzeppelin/contracts/token/ERC20/ERC20.sol\":5996:6060  _approve(owner, spender, allowance(owner, spender) + addedValue) */\n      jump\t// in\n    tag_160:\n        /* \"@openzeppelin/contracts/token/ERC20/ERC20.sol\":6077:6081  true */\n      0x01\n        /* \"@openzeppelin/contracts/token/ERC20/ERC20.sol\":6070:6081  return true */\n      swap2\n      pop\n      pop\n        /* \"@openzeppelin/contracts/token/ERC20/ERC20.sol\":5854:6088  function increaseAllowance(address spender, uint256 addedValue) public virtual returns (bool) {... */\n      swap3\n      swap2\n      pop\n      pop\n      jump\t// out\n        /* \"Programming/Node/truffle/contracts/supercoin.sol\":767:1550  function mint(address to,uint256 amount) external  onlyOwner {... */\n    tag_58:\n        /* \"Programming/Node/truffle/contracts/supercoin.sol\":3379:3385  _owner */\n      0x08\n      0x00\n      swap1\n      sload\n      swap1\n      0x0100\n      exp\n      swap1\n      div\n      0xffffffffffffffffffffffffffffffffffffffff\n      and\n        /* \"Programming/Node/truffle/contracts/supercoin.sol\":3367:3385  msg.sender==_owner */\n      0xffffffffffffffffffffffffffffffffffffffff\n      and\n        /* \"Programming/Node/truffle/contracts/supercoin.sol\":3367:3377  msg.sender */\n      caller\n        /* \"Programming/Node/truffle/contracts/supercoin.sol\":3367:3385  msg.sender==_owner */\n      0xffffffffffffffffffffffffffffffffffffffff\n      and\n      eq\n        /* \"Programming/Node/truffle/contracts/supercoin.sol\":3359:3405  require(msg.sender==_owner, \"Not Authorized!\") */\n      tag_164\n      jumpi\n      mload(0x40)\n      0x08c379a000000000000000000000000000000000000000000000000000000000\n      dup2\n      mstore\n      0x04\n      add\n      tag_165\n      swap1\n      tag_166\n      jump\t// in\n    tag_165:\n      mload(0x40)\n      dup1\n      swap2\n      sub\n      swap1\n      revert\n    tag_164:\n        /* \"Programming/Node/truffle/contracts/supercoin.sol\":839:865  TokenData memory newTokens */\n      0x00\n        /* \"Programming/Node/truffle/contracts/supercoin.sol\":867:927  TokenData(amount,block.timestamp,block.timestamp+expiryTime) */\n      mload(0x40)\n      dup1\n      0x60\n      add\n      0x40\n      mstore\n      dup1\n        /* \"Programming/Node/truffle/contracts/supercoin.sol\":877:883  amount */\n      dup4\n        /* \"Programming/Node/truffle/contracts/supercoin.sol\":867:927  TokenData(amount,block.timestamp,block.timestamp+expiryTime) */\n      dup2\n      mstore\n      0x20\n      add\n        /* \"Programming/Node/truffle/contracts/supercoin.sol\":884:899  block.timestamp */\n      timestamp\n        /* \"Programming/Node/truffle/contracts/supercoin.sol\":867:927  TokenData(amount,block.timestamp,block.timestamp+expiryTime) */\n      dup2\n      mstore\n      0x20\n      add\n        /* \"Programming/Node/truffle/contracts/supercoin.sol\":609:612  300 */\n      0x012c\n        /* \"Programming/Node/truffle/contracts/supercoin.sol\":900:915  block.timestamp */\n      timestamp\n        /* \"Programming/Node/truffle/contracts/supercoin.sol\":900:926  block.timestamp+expiryTime */\n      tag_168\n      swap2\n      swap1\n      tag_148\n      jump\t// in\n    tag_168:\n        /* \"Programming/Node/truffle/contracts/supercoin.sol\":867:927  TokenData(amount,block.timestamp,block.timestamp+expiryTime) */\n      dup2\n      mstore\n      pop\n        /* \"Programming/Node/truffle/contracts/supercoin.sol\":839:927  TokenData memory newTokens= TokenData(amount,block.timestamp,block.timestamp+expiryTime) */\n      swap1\n      pop\n        /* \"Programming/Node/truffle/contracts/supercoin.sol\":977:983  amount */\n      dup2\n        /* \"Programming/Node/truffle/contracts/supercoin.sol\":943:955  tokenBalance */\n      0x05\n        /* \"Programming/Node/truffle/contracts/supercoin.sol\":943:963  tokenBalance[_owner] */\n      0x00\n        /* \"Programming/Node/truffle/contracts/supercoin.sol\":956:962  _owner */\n      0x08\n      0x00\n      swap1\n      sload\n      swap1\n      0x0100\n      exp\n      swap1\n      div\n      0xffffffffffffffffffffffffffffffffffffffff\n      and\n        /* \"Programming/Node/truffle/contracts/supercoin.sol\":943:963  tokenBalance[_owner] */\n      0xffffffffffffffffffffffffffffffffffffffff\n      and\n      0xffffffffffffffffffffffffffffffffffffffff\n      and\n      dup2\n      mstore\n      0x20\n      add\n      swap1\n      dup2\n      mstore\n      0x20\n      add\n      0x00\n      keccak256\n        /* \"Programming/Node/truffle/contracts/supercoin.sol\":943:975  tokenBalance[_owner].totalTokens */\n      0x00\n      add\n      sload\n        /* \"Programming/Node/truffle/contracts/supercoin.sol\":943:983  tokenBalance[_owner].totalTokens>=amount */\n      lt\n        /* \"Programming/Node/truffle/contracts/supercoin.sol\":940:1310  if(tokenBalance[_owner].totalTokens>=amount){... */\n      tag_169\n      jumpi\n        /* \"Programming/Node/truffle/contracts/supercoin.sol\":1033:1039  amount */\n      dup2\n        /* \"Programming/Node/truffle/contracts/supercoin.sol\":999:1011  tokenBalance */\n      0x05\n        /* \"Programming/Node/truffle/contracts/supercoin.sol\":999:1019  tokenBalance[_owner] */\n      0x00\n        /* \"Programming/Node/truffle/contracts/supercoin.sol\":1012:1018  _owner */\n      0x08\n      0x00\n      swap1\n      sload\n      swap1\n      0x0100\n      exp\n      swap1\n      div\n      0xffffffffffffffffffffffffffffffffffffffff\n      and\n        /* \"Programming/Node/truffle/contracts/supercoin.sol\":999:1019  tokenBalance[_owner] */\n      0xffffffffffffffffffffffffffffffffffffffff\n      and\n      0xffffffffffffffffffffffffffffffffffffffff\n      and\n      dup2\n      mstore\n      0x20\n      add\n      swap1\n      dup2\n      mstore\n      0x20\n      add\n      0x00\n      keccak256\n        /* \"Programming/Node/truffle/contracts/supercoin.sol\":999:1031  tokenBalance[_owner].totalTokens */\n      0x00\n      add\n      0x00\n        /* \"Programming/Node/truffle/contracts/supercoin.sol\":999:1039  tokenBalance[_owner].totalTokens-=amount */\n      dup3\n      dup3\n      sload\n      tag_170\n      swap2\n      swap1\n      tag_119\n      jump\t// in\n    tag_170:\n      swap3\n      pop\n      pop\n      dup2\n      swap1\n      sstore\n      pop\n        /* \"Programming/Node/truffle/contracts/supercoin.sol\":1054:1086  transferFrom(_owner, to, amount) */\n      tag_171\n        /* \"Programming/Node/truffle/contracts/supercoin.sol\":1067:1073  _owner */\n      0x08\n      0x00\n      swap1\n      sload\n      swap1\n      0x0100\n      exp\n      swap1\n      div\n      0xffffffffffffffffffffffffffffffffffffffff\n      and\n        /* \"Programming/Node/truffle/contracts/supercoin.sol\":1075:1077  to */\n      dup5\n        /* \"Programming/Node/truffle/contracts/supercoin.sol\":1079:1085  amount */\n      dup5\n        /* \"Programming/Node/truffle/contracts/supercoin.sol\":1054:1066  transferFrom */\n      tag_43\n        /* \"Programming/Node/truffle/contracts/supercoin.sol\":1054:1086  transferFrom(_owner, to, amount) */\n      jump\t// in\n    tag_171:\n      pop\n        /* \"Programming/Node/truffle/contracts/supercoin.sol\":940:1310  if(tokenBalance[_owner].totalTokens>=amount){... */\n      jump(tag_172)\n    tag_169:\n        /* \"Programming/Node/truffle/contracts/supercoin.sol\":1135:1147  tokenBalance */\n      0x05\n        /* \"Programming/Node/truffle/contracts/supercoin.sol\":1135:1155  tokenBalance[_owner] */\n      0x00\n        /* \"Programming/Node/truffle/contracts/supercoin.sol\":1148:1154  _owner */\n      0x08\n      0x00\n      swap1\n      sload\n      swap1\n      0x0100\n      exp\n      swap1\n      div\n      0xffffffffffffffffffffffffffffffffffffffff\n      and\n        /* \"Programming/Node/truffle/contracts/supercoin.sol\":1135:1155  tokenBalance[_owner] */\n      0xffffffffffffffffffffffffffffffffffffffff\n      and\n      0xffffffffffffffffffffffffffffffffffffffff\n      and\n      dup2\n      mstore\n      0x20\n      add\n      swap1\n      dup2\n      mstore\n      0x20\n      add\n      0x00\n      keccak256\n        /* \"Programming/Node/truffle/contracts/supercoin.sol\":1135:1167  tokenBalance[_owner].totalTokens */\n      0x00\n      add\n      sload\n        /* \"Programming/Node/truffle/contracts/supercoin.sol\":1127:1167  amount-=tokenBalance[_owner].totalTokens */\n      dup3\n      tag_173\n      swap2\n      swap1\n      tag_119\n      jump\t// in\n    tag_173:\n      swap2\n      pop\n        /* \"Programming/Node/truffle/contracts/supercoin.sol\":1215:1216  0 */\n      0x00\n        /* \"Programming/Node/truffle/contracts/supercoin.sol\":1182:1194  tokenBalance */\n      0x05\n        /* \"Programming/Node/truffle/contracts/supercoin.sol\":1182:1202  tokenBalance[_owner] */\n      0x00\n        /* \"Programming/Node/truffle/contracts/supercoin.sol\":1195:1201  _owner */\n      0x08\n      0x00\n      swap1\n      sload\n      swap1\n      0x0100\n      exp\n      swap1\n      div\n      0xffffffffffffffffffffffffffffffffffffffff\n      and\n        /* \"Programming/Node/truffle/contracts/supercoin.sol\":1182:1202  tokenBalance[_owner] */\n      0xffffffffffffffffffffffffffffffffffffffff\n      and\n      0xffffffffffffffffffffffffffffffffffffffff\n      and\n      dup2\n      mstore\n      0x20\n      add\n      swap1\n      dup2\n      mstore\n      0x20\n      add\n      0x00\n      keccak256\n        /* \"Programming/Node/truffle/contracts/supercoin.sol\":1182:1214  tokenBalance[_owner].totalTokens */\n      0x00\n      add\n        /* \"Programming/Node/truffle/contracts/supercoin.sol\":1182:1216  tokenBalance[_owner].totalTokens=0 */\n      dup2\n      swap1\n      sstore\n      pop\n        /* \"Programming/Node/truffle/contracts/supercoin.sol\":1231:1248  _mint(to, amount) */\n      tag_174\n        /* \"Programming/Node/truffle/contracts/supercoin.sol\":1237:1239  to */\n      dup4\n        /* \"Programming/Node/truffle/contracts/supercoin.sol\":1241:1247  amount */\n      dup4\n        /* \"Programming/Node/truffle/contracts/supercoin.sol\":1231:1236  _mint */\n      tag_175\n        /* \"Programming/Node/truffle/contracts/supercoin.sol\":1231:1248  _mint(to, amount) */\n      jump\t// in\n    tag_174:\n        /* \"Programming/Node/truffle/contracts/supercoin.sol\":1282:1291  newTokens */\n      dup1\n        /* \"Programming/Node/truffle/contracts/supercoin.sol\":1282:1298  newTokens.amount */\n      0x00\n      add\n      mload\n        /* \"Programming/Node/truffle/contracts/supercoin.sol\":1263:1280  totalTokensIssued */\n      0x07\n      0x00\n        /* \"Programming/Node/truffle/contracts/supercoin.sol\":1263:1298  totalTokensIssued+=newTokens.amount */\n      dup3\n      dup3\n      sload\n      tag_176\n      swap2\n      swap1\n      tag_148\n      jump\t// in\n    tag_176:\n      swap3\n      pop\n      pop\n      dup2\n      swap1\n      sstore\n      pop\n        /* \"Programming/Node/truffle/contracts/supercoin.sol\":940:1310  if(tokenBalance[_owner].totalTokens>=amount){... */\n    tag_172:\n        /* \"Programming/Node/truffle/contracts/supercoin.sol\":1352:1361  newTokens */\n      dup1\n        /* \"Programming/Node/truffle/contracts/supercoin.sol\":1352:1368  newTokens.amount */\n      0x00\n      add\n      mload\n        /* \"Programming/Node/truffle/contracts/supercoin.sol\":1322:1334  tokenBalance */\n      0x05\n        /* \"Programming/Node/truffle/contracts/supercoin.sol\":1322:1338  tokenBalance[to] */\n      0x00\n        /* \"Programming/Node/truffle/contracts/supercoin.sol\":1335:1337  to */\n      dup6\n        /* \"Programming/Node/truffle/contracts/supercoin.sol\":1322:1338  tokenBalance[to] */\n      0xffffffffffffffffffffffffffffffffffffffff\n      and\n      0xffffffffffffffffffffffffffffffffffffffff\n      and\n      dup2\n      mstore\n      0x20\n      add\n      swap1\n      dup2\n      mstore\n      0x20\n      add\n      0x00\n      keccak256\n        /* \"Programming/Node/truffle/contracts/supercoin.sol\":1322:1350  tokenBalance[to].totalTokens */\n      0x00\n      add\n      0x00\n        /* \"Programming/Node/truffle/contracts/supercoin.sol\":1322:1368  tokenBalance[to].totalTokens+=newTokens.amount */\n      dup3\n      dup3\n      sload\n      tag_177\n      swap2\n      swap1\n      tag_148\n      jump\t// in\n    tag_177:\n      swap3\n      pop\n      pop\n      dup2\n      swap1\n      sstore\n      pop\n        /* \"Programming/Node/truffle/contracts/supercoin.sol\":1410:1419  newTokens */\n      dup1\n        /* \"Programming/Node/truffle/contracts/supercoin.sol\":1410:1426  newTokens.amount */\n      0x00\n      add\n      mload\n        /* \"Programming/Node/truffle/contracts/supercoin.sol\":1379:1391  tokenHistory */\n      0x06\n        /* \"Programming/Node/truffle/contracts/supercoin.sol\":1379:1395  tokenHistory[to] */\n      0x00\n        /* \"Programming/Node/truffle/contracts/supercoin.sol\":1392:1394  to */\n      dup6\n        /* \"Programming/Node/truffle/contracts/supercoin.sol\":1379:1395  tokenHistory[to] */\n      0xffffffffffffffffffffffffffffffffffffffff\n      and\n      0xffffffffffffffffffffffffffffffffffffffff\n      and\n      dup2\n      mstore\n      0x20\n      add\n      swap1\n      dup2\n      mstore\n      0x20\n      add\n      0x00\n      keccak256\n        /* \"Programming/Node/truffle/contracts/supercoin.sol\":1379:1408  tokenHistory[to].totalEarning */\n      0x00\n      add\n      0x00\n        /* \"Programming/Node/truffle/contracts/supercoin.sol\":1379:1426  tokenHistory[to].totalEarning+=newTokens.amount */\n      dup3\n      dup3\n      sload\n      tag_178\n      swap2\n      swap1\n      tag_148\n      jump\t// in\n    tag_178:\n      swap3\n      pop\n      pop\n      dup2\n      swap1\n      sstore\n      pop\n        /* \"Programming/Node/truffle/contracts/supercoin.sol\":1437:1449  tokenBalance */\n      0x05\n        /* \"Programming/Node/truffle/contracts/supercoin.sol\":1437:1453  tokenBalance[to] */\n      0x00\n        /* \"Programming/Node/truffle/contracts/supercoin.sol\":1450:1452  to */\n      dup5\n        /* \"Programming/Node/truffle/contracts/supercoin.sol\":1437:1453  tokenBalance[to] */\n      0xffffffffffffffffffffffffffffffffffffffff\n      and\n      0xffffffffffffffffffffffffffffffffffffffff\n      and\n      dup2\n      mstore\n      0x20\n      add\n      swap1\n      dup2\n      mstore\n      0x20\n      add\n      0x00\n      keccak256\n        /* \"Programming/Node/truffle/contracts/supercoin.sol\":1437:1466  tokenBalance[to].tokenDetails */\n      0x01\n      add\n        /* \"Programming/Node/truffle/contracts/supercoin.sol\":1472:1481  newTokens */\n      dup2\n        /* \"Programming/Node/truffle/contracts/supercoin.sol\":1437:1482  tokenBalance[to].tokenDetails.push(newTokens) */\n      swap1\n      dup1\n      0x01\n      dup2\n      sload\n      add\n      dup1\n      dup3\n      sstore\n      dup1\n      swap2\n      pop\n      pop\n      0x01\n      swap1\n      sub\n      swap1\n      0x00\n      mstore\n      keccak256(0x00, 0x20)\n      swap1\n      0x03\n      mul\n      add\n      0x00\n      swap1\n      swap2\n      swap1\n      swap2\n      swap1\n      swap2\n      pop\n      0x00\n      dup3\n      add\n      mload\n      dup2\n      0x00\n      add\n      sstore\n      0x20\n      dup3\n      add\n      mload\n      dup2\n      0x01\n      add\n      sstore\n      0x40\n      dup3\n      add\n      mload\n      dup2\n      0x02\n      add\n      sstore\n      pop\n      pop\n        /* \"Programming/Node/truffle/contracts/supercoin.sol\":1493:1505  tokenHistory */\n      0x06\n        /* \"Programming/Node/truffle/contracts/supercoin.sol\":1493:1509  tokenHistory[to] */\n      0x00\n        /* \"Programming/Node/truffle/contracts/supercoin.sol\":1506:1508  to */\n      dup5\n        /* \"Programming/Node/truffle/contracts/supercoin.sol\":1493:1509  tokenHistory[to] */\n      0xffffffffffffffffffffffffffffffffffffffff\n      and\n      0xffffffffffffffffffffffffffffffffffffffff\n      and\n      dup2\n      mstore\n      0x20\n      add\n      swap1\n      dup2\n      mstore\n      0x20\n      add\n      0x00\n      keccak256\n        /* \"Programming/Node/truffle/contracts/supercoin.sol\":1493:1524  tokenHistory[to].earningHistory */\n      0x01\n      add\n        /* \"Programming/Node/truffle/contracts/supercoin.sol\":1530:1539  newTokens */\n      dup2\n        /* \"Programming/Node/truffle/contracts/supercoin.sol\":1493:1540  tokenHistory[to].earningHistory.push(newTokens) */\n      swap1\n      dup1\n      0x01\n      dup2\n      sload\n      add\n      dup1\n      dup3\n      sstore\n      dup1\n      swap2\n      pop\n      pop\n      0x01\n      swap1\n      sub\n      swap1\n      0x00\n      mstore\n      keccak256(0x00, 0x20)\n      swap1\n      0x03\n      mul\n      add\n      0x00\n      swap1\n      swap2\n      swap1\n      swap2\n      swap1\n      swap2\n      pop\n      0x00\n      dup3\n      add\n      mload\n      dup2\n      0x00\n      add\n      sstore\n      0x20\n      dup3\n      add\n      mload\n      dup2\n      0x01\n      add\n      sstore\n      0x40\n      dup3\n      add\n      mload\n      dup2\n      0x02\n      add\n      sstore\n      pop\n      pop\n        /* \"Programming/Node/truffle/contracts/supercoin.sol\":828:1550  {... */\n      pop\n        /* \"Programming/Node/truffle/contracts/supercoin.sol\":767:1550  function mint(address to,uint256 amount) external  onlyOwner {... */\n      pop\n      pop\n      jump\t// out\n        /* \"@openzeppelin/contracts/token/ERC20/ERC20.sol\":3419:3544  function balanceOf(address account) public view virtual override returns (uint256) {... */\n    tag_61:\n        /* \"@openzeppelin/contracts/token/ERC20/ERC20.sol\":3493:3500  uint256 */\n      0x00\n        /* \"@openzeppelin/contracts/token/ERC20/ERC20.sol\":3519:3528  _balances */\n      dup1\n        /* \"@openzeppelin/contracts/token/ERC20/ERC20.sol\":3519:3537  _balances[account] */\n      0x00\n        /* \"@openzeppelin/contracts/token/ERC20/ERC20.sol\":3529:3536  account */\n      dup4\n        /* \"@openzeppelin/contracts/token/ERC20/ERC20.sol\":3519:3537  _balances[account] */\n      0xffffffffffffffffffffffffffffffffffffffff\n      and\n      0xffffffffffffffffffffffffffffffffffffffff\n      and\n      dup2\n      mstore\n      0x20\n      add\n      swap1\n      dup2\n      mstore\n      0x20\n      add\n      0x00\n      keccak256\n      sload\n        /* \"@openzeppelin/contracts/token/ERC20/ERC20.sol\":3512:3537  return _balances[account] */\n      swap1\n      pop\n        /* \"@openzeppelin/contracts/token/ERC20/ERC20.sol\":3419:3544  function balanceOf(address account) public view virtual override returns (uint256) {... */\n      swap2\n      swap1\n      pop\n      jump\t// out\n        /* \"@openzeppelin/contracts/token/ERC20/ERC20.sol\":2369:2471  function symbol() public view virtual override returns (string memory) {... */\n    tag_64:\n        /* \"@openzeppelin/contracts/token/ERC20/ERC20.sol\":2425:2438  string memory */\n      0x60\n        /* \"@openzeppelin/contracts/token/ERC20/ERC20.sol\":2457:2464  _symbol */\n      0x04\n        /* \"@openzeppelin/contracts/token/ERC20/ERC20.sol\":2450:2464  return _symbol */\n      dup1\n      sload\n      tag_183\n      swap1\n      tag_86\n      jump\t// in\n    tag_183:\n      dup1\n      0x1f\n      add\n      0x20\n      dup1\n      swap2\n      div\n      mul\n      0x20\n      add\n      mload(0x40)\n      swap1\n      dup2\n      add\n      0x40\n      mstore\n      dup1\n      swap3\n      swap2\n      swap1\n      dup2\n      dup2\n      mstore\n      0x20\n      add\n      dup3\n      dup1\n      sload\n      tag_184\n      swap1\n      tag_86\n      jump\t// in\n    tag_184:\n      dup1\n      iszero\n      tag_185\n      jumpi\n      dup1\n      0x1f\n      lt\n      tag_186\n      jumpi\n      0x0100\n      dup1\n      dup4\n      sload\n      div\n      mul\n      dup4\n      mstore\n      swap2\n      0x20\n      add\n      swap2\n      jump(tag_185)\n    tag_186:\n      dup3\n      add\n      swap2\n      swap1\n      0x00\n      mstore\n      keccak256(0x00, 0x20)\n      swap1\n    tag_187:\n      dup2\n      sload\n      dup2\n      mstore\n      swap1\n      0x01\n      add\n      swap1\n      0x20\n      add\n      dup1\n      dup4\n      gt\n      tag_187\n      jumpi\n      dup3\n      swap1\n      sub\n      0x1f\n      and\n      dup3\n      add\n      swap2\n    tag_185:\n      pop\n      pop\n      pop\n      pop\n      pop\n      swap1\n      pop\n        /* \"@openzeppelin/contracts/token/ERC20/ERC20.sol\":2369:2471  function symbol() public view virtual override returns (string memory) {... */\n      swap1\n      jump\t// out\n        /* \"@openzeppelin/contracts/token/ERC20/ERC20.sol\":6575:7002  function decreaseAllowance(address spender, uint256 subtractedValue) public virtual returns (bool) {... */\n    tag_68:\n        /* \"@openzeppelin/contracts/token/ERC20/ERC20.sol\":6668:6672  bool */\n      0x00\n        /* \"@openzeppelin/contracts/token/ERC20/ERC20.sol\":6684:6697  address owner */\n      dup1\n        /* \"@openzeppelin/contracts/token/ERC20/ERC20.sol\":6700:6712  _msgSender() */\n      tag_189\n        /* \"@openzeppelin/contracts/token/ERC20/ERC20.sol\":6700:6710  _msgSender */\n      tag_93\n        /* \"@openzeppelin/contracts/token/ERC20/ERC20.sol\":6700:6712  _msgSender() */\n      jump\t// in\n    tag_189:\n        /* \"@openzeppelin/contracts/token/ERC20/ERC20.sol\":6684:6712  address owner = _msgSender() */\n      swap1\n      pop\n        /* \"@openzeppelin/contracts/token/ERC20/ERC20.sol\":6722:6746  uint256 currentAllowance */\n      0x00\n        /* \"@openzeppelin/contracts/token/ERC20/ERC20.sol\":6749:6774  allowance(owner, spender) */\n      tag_190\n        /* \"@openzeppelin/contracts/token/ERC20/ERC20.sol\":6759:6764  owner */\n      dup3\n        /* \"@openzeppelin/contracts/token/ERC20/ERC20.sol\":6766:6773  spender */\n      dup7\n        /* \"@openzeppelin/contracts/token/ERC20/ERC20.sol\":6749:6758  allowance */\n      tag_82\n        /* \"@openzeppelin/contracts/token/ERC20/ERC20.sol\":6749:6774  allowance(owner, spender) */\n      jump\t// in\n    tag_190:\n        /* \"@openzeppelin/contracts/token/ERC20/ERC20.sol\":6722:6774  uint256 currentAllowance = allowance(owner, spender) */\n      swap1\n      pop\n        /* \"@openzeppelin/contracts/token/ERC20/ERC20.sol\":6812:6827  subtractedValue */\n      dup4\n        /* \"@openzeppelin/contracts/token/ERC20/ERC20.sol\":6792:6808  currentAllowance */\n      dup2\n        /* \"@openzeppelin/contracts/token/ERC20/ERC20.sol\":6792:6827  currentAllowance >= subtractedValue */\n      lt\n      iszero\n        /* \"@openzeppelin/contracts/token/ERC20/ERC20.sol\":6784:6869  require(currentAllowance >= subtractedValue, \"ERC20: decreased allowance below zero\") */\n      tag_191\n      jumpi\n      mload(0x40)\n      0x08c379a000000000000000000000000000000000000000000000000000000000\n      dup2\n      mstore\n      0x04\n      add\n      tag_192\n      swap1\n      tag_193\n      jump\t// in\n    tag_192:\n      mload(0x40)\n      dup1\n      swap2\n      sub\n      swap1\n      revert\n    tag_191:\n        /* \"@openzeppelin/contracts/token/ERC20/ERC20.sol\":6903:6963  _approve(owner, spender, currentAllowance - subtractedValue) */\n      tag_194\n        /* \"@openzeppelin/contracts/token/ERC20/ERC20.sol\":6912:6917  owner */\n      dup3\n        /* \"@openzeppelin/contracts/token/ERC20/ERC20.sol\":6919:6926  spender */\n      dup7\n        /* \"@openzeppelin/contracts/token/ERC20/ERC20.sol\":6947:6962  subtractedValue */\n      dup7\n        /* \"@openzeppelin/contracts/token/ERC20/ERC20.sol\":6928:6944  currentAllowance */\n      dup5\n        /* \"@openzeppelin/contracts/token/ERC20/ERC20.sol\":6928:6962  currentAllowance - subtractedValue */\n      sub\n        /* \"@openzeppelin/contracts/token/ERC20/ERC20.sol\":6903:6911  _approve */\n      tag_95\n        /* \"@openzeppelin/contracts/token/ERC20/ERC20.sol\":6903:6963  _approve(owner, spender, currentAllowance - subtractedValue) */\n      jump\t// in\n    tag_194:\n        /* \"@openzeppelin/contracts/token/ERC20/ERC20.sol\":6991:6995  true */\n      0x01\n        /* \"@openzeppelin/contracts/token/ERC20/ERC20.sol\":6984:6995  return true */\n      swap3\n      pop\n      pop\n      pop\n        /* \"@openzeppelin/contracts/token/ERC20/ERC20.sol\":6575:7002  function decreaseAllowance(address spender, uint256 subtractedValue) public virtual returns (bool) {... */\n      swap3\n      swap2\n      pop\n      pop\n      jump\t// out\n        /* \"@openzeppelin/contracts/token/ERC20/ERC20.sol\":3740:3929  function transfer(address to, uint256 amount) public virtual override returns (bool) {... */\n    tag_72:\n        /* \"@openzeppelin/contracts/token/ERC20/ERC20.sol\":3819:3823  bool */\n      0x00\n        /* \"@openzeppelin/contracts/token/ERC20/ERC20.sol\":3835:3848  address owner */\n      dup1\n        /* \"@openzeppelin/contracts/token/ERC20/ERC20.sol\":3851:3863  _msgSender() */\n      tag_196\n        /* \"@openzeppelin/contracts/token/ERC20/ERC20.sol\":3851:3861  _msgSender */\n      tag_93\n        /* \"@openzeppelin/contracts/token/ERC20/ERC20.sol\":3851:3863  _msgSender() */\n      jump\t// in\n    tag_196:\n        /* \"@openzeppelin/contracts/token/ERC20/ERC20.sol\":3835:3863  address owner = _msgSender() */\n      swap1\n      pop\n        /* \"@openzeppelin/contracts/token/ERC20/ERC20.sol\":3873:3901  _transfer(owner, to, amount) */\n      tag_197\n        /* \"@openzeppelin/contracts/token/ERC20/ERC20.sol\":3883:3888  owner */\n      dup2\n        /* \"@openzeppelin/contracts/token/ERC20/ERC20.sol\":3890:3892  to */\n      dup6\n        /* \"@openzeppelin/contracts/token/ERC20/ERC20.sol\":3894:3900  amount */\n      dup6\n        /* \"@openzeppelin/contracts/token/ERC20/ERC20.sol\":3873:3882  _transfer */\n      tag_131\n        /* \"@openzeppelin/contracts/token/ERC20/ERC20.sol\":3873:3901  _transfer(owner, to, amount) */\n      jump\t// in\n    tag_197:\n        /* \"@openzeppelin/contracts/token/ERC20/ERC20.sol\":3918:3922  true */\n      0x01\n        /* \"@openzeppelin/contracts/token/ERC20/ERC20.sol\":3911:3922  return true */\n      swap2\n      pop\n      pop\n        /* \"@openzeppelin/contracts/token/ERC20/ERC20.sol\":3740:3929  function transfer(address to, uint256 amount) public virtual override returns (bool) {... */\n      swap3\n      swap2\n      pop\n      pop\n      jump\t// out\n        /* \"Programming/Node/truffle/contracts/supercoin.sol\":3088:3209  function earningHistory(address user) public view returns(UserHistory memory){... */\n    tag_76:\n        /* \"Programming/Node/truffle/contracts/supercoin.sol\":3146:3164  UserHistory memory */\n      tag_198\n      tag_199\n      jump\t// in\n    tag_198:\n        /* \"Programming/Node/truffle/contracts/supercoin.sol\":3183:3195  tokenHistory */\n      0x06\n        /* \"Programming/Node/truffle/contracts/supercoin.sol\":3183:3201  tokenHistory[user] */\n      0x00\n        /* \"Programming/Node/truffle/contracts/supercoin.sol\":3196:3200  user */\n      dup4\n        /* \"Programming/Node/truffle/contracts/supercoin.sol\":3183:3201  tokenHistory[user] */\n      0xffffffffffffffffffffffffffffffffffffffff\n      and\n      0xffffffffffffffffffffffffffffffffffffffff\n      and\n      dup2\n      mstore\n      0x20\n      add\n      swap1\n      dup2\n      mstore\n      0x20\n      add\n      0x00\n      keccak256\n        /* \"Programming/Node/truffle/contracts/supercoin.sol\":3176:3201  return tokenHistory[user] */\n      mload(0x40)\n      dup1\n      0x40\n      add\n      0x40\n      mstore\n      swap1\n      dup2\n      0x00\n      dup3\n      add\n      sload\n      dup2\n      mstore\n      0x20\n      add\n      0x01\n      dup3\n      add\n      dup1\n      sload\n      dup1\n      0x20\n      mul\n      0x20\n      add\n      mload(0x40)\n      swap1\n      dup2\n      add\n      0x40\n      mstore\n      dup1\n      swap3\n      swap2\n      swap1\n      dup2\n      dup2\n      mstore\n      0x20\n      add\n      0x00\n      swap1\n    tag_201:\n      dup3\n      dup3\n      lt\n      iszero\n      tag_202\n      jumpi\n      dup4\n      dup3\n      swap1\n      0x00\n      mstore\n      keccak256(0x00, 0x20)\n      swap1\n      0x03\n      mul\n      add\n      mload(0x40)\n      dup1\n      0x60\n      add\n      0x40\n      mstore\n      swap1\n      dup2\n      0x00\n      dup3\n      add\n      sload\n      dup2\n      mstore\n      0x20\n      add\n      0x01\n      dup3\n      add\n      sload\n      dup2\n      mstore\n      0x20\n      add\n      0x02\n      dup3\n      add\n      sload\n      dup2\n      mstore\n      pop\n      pop\n      dup2\n      mstore\n      0x20\n      add\n      swap1\n      0x01\n      add\n      swap1\n      jump(tag_201)\n    tag_202:\n      pop\n      pop\n      pop\n      pop\n      dup2\n      mstore\n      pop\n      pop\n      swap1\n      pop\n        /* \"Programming/Node/truffle/contracts/supercoin.sol\":3088:3209  function earningHistory(address user) public view returns(UserHistory memory){... */\n      swap2\n      swap1\n      pop\n      jump\t// out\n        /* \"@openzeppelin/contracts/token/ERC20/ERC20.sol\":3987:4136  function allowance(address owner, address spender) public view virtual override returns (uint256) {... */\n    tag_82:\n        /* \"@openzeppelin/contracts/token/ERC20/ERC20.sol\":4076:4083  uint256 */\n      0x00\n        /* \"@openzeppelin/contracts/token/ERC20/ERC20.sol\":4102:4113  _allowances */\n      0x01\n        /* \"@openzeppelin/contracts/token/ERC20/ERC20.sol\":4102:4120  _allowances[owner] */\n      0x00\n        /* \"@openzeppelin/contracts/token/ERC20/ERC20.sol\":4114:4119  owner */\n      dup5\n        /* \"@openzeppelin/contracts/token/ERC20/ERC20.sol\":4102:4120  _allowances[owner] */\n      0xffffffffffffffffffffffffffffffffffffffff\n      and\n      0xffffffffffffffffffffffffffffffffffffffff\n      and\n      dup2\n      mstore\n      0x20\n      add\n      swap1\n      dup2\n      mstore\n      0x20\n      add\n      0x00\n      keccak256\n        /* \"@openzeppelin/contracts/token/ERC20/ERC20.sol\":4102:4129  _allowances[owner][spender] */\n      0x00\n        /* \"@openzeppelin/contracts/token/ERC20/ERC20.sol\":4121:4128  spender */\n      dup4\n        /* \"@openzeppelin/contracts/token/ERC20/ERC20.sol\":4102:4129  _allowances[owner][spender] */\n      0xffffffffffffffffffffffffffffffffffffffff\n      and\n      0xffffffffffffffffffffffffffffffffffffffff\n      and\n      dup2\n      mstore\n      0x20\n      add\n      swap1\n      dup2\n      mstore\n      0x20\n      add\n      0x00\n      keccak256\n      sload\n        /* \"@openzeppelin/contracts/token/ERC20/ERC20.sol\":4095:4129  return _allowances[owner][spender] */\n      swap1\n      pop\n        /* \"@openzeppelin/contracts/token/ERC20/ERC20.sol\":3987:4136  function allowance(address owner, address spender) public view virtual override returns (uint256) {... */\n      swap3\n      swap2\n      pop\n      pop\n      jump\t// out\n        /* \"@openzeppelin/contracts/utils/Context.sol\":640:736  function _msgSender() internal view virtual returns (address) {... */\n    tag_93:\n        /* \"@openzeppelin/contracts/utils/Context.sol\":693:700  address */\n      0x00\n        /* \"@openzeppelin/contracts/utils/Context.sol\":719:729  msg.sender */\n      caller\n        /* \"@openzeppelin/contracts/utils/Context.sol\":712:729  return msg.sender */\n      swap1\n      pop\n        /* \"@openzeppelin/contracts/utils/Context.sol\":640:736  function _msgSender() internal view virtual returns (address) {... */\n      swap1\n      jump\t// out\n        /* \"@openzeppelin/contracts/token/ERC20/ERC20.sol\":10457:10797  function _approve(address owner, address spender, uint256 amount) internal virtual {... */\n    tag_95:\n        /* \"@openzeppelin/contracts/token/ERC20/ERC20.sol\":10575:10576  0 */\n      0x00\n        /* \"@openzeppelin/contracts/token/ERC20/ERC20.sol\":10558:10577  owner != address(0) */\n      0xffffffffffffffffffffffffffffffffffffffff\n      and\n        /* \"@openzeppelin/contracts/token/ERC20/ERC20.sol\":10558:10563  owner */\n      dup4\n        /* \"@openzeppelin/contracts/token/ERC20/ERC20.sol\":10558:10577  owner != address(0) */\n      0xffffffffffffffffffffffffffffffffffffffff\n      and\n      sub\n        /* \"@openzeppelin/contracts/token/ERC20/ERC20.sol\":10550:10618  require(owner != address(0), \"ERC20: approve from the zero address\") */\n      tag_207\n      jumpi\n      mload(0x40)\n      0x08c379a000000000000000000000000000000000000000000000000000000000\n      dup2\n      mstore\n      0x04\n      add\n      tag_208\n      swap1\n      tag_209\n      jump\t// in\n    tag_208:\n      mload(0x40)\n      dup1\n      swap2\n      sub\n      swap1\n      revert\n    tag_207:\n        /* \"@openzeppelin/contracts/token/ERC20/ERC20.sol\":10655:10656  0 */\n      0x00\n        /* \"@openzeppelin/contracts/token/ERC20/ERC20.sol\":10636:10657  spender != address(0) */\n      0xffffffffffffffffffffffffffffffffffffffff\n      and\n        /* \"@openzeppelin/contracts/token/ERC20/ERC20.sol\":10636:10643  spender */\n      dup3\n        /* \"@openzeppelin/contracts/token/ERC20/ERC20.sol\":10636:10657  spender != address(0) */\n      0xffffffffffffffffffffffffffffffffffffffff\n      and\n      sub\n        /* \"@openzeppelin/contracts/token/ERC20/ERC20.sol\":10628:10696  require(spender != address(0), \"ERC20: approve to the zero address\") */\n      tag_210\n      jumpi\n      mload(0x40)\n      0x08c379a000000000000000000000000000000000000000000000000000000000\n      dup2\n      mstore\n      0x04\n      add\n      tag_211\n      swap1\n      tag_212\n      jump\t// in\n    tag_211:\n      mload(0x40)\n      dup1\n      swap2\n      sub\n      swap1\n      revert\n    tag_210:\n        /* \"@openzeppelin/contracts/token/ERC20/ERC20.sol\":10737:10743  amount */\n      dup1\n        /* \"@openzeppelin/contracts/token/ERC20/ERC20.sol\":10707:10718  _allowances */\n      0x01\n        /* \"@openzeppelin/contracts/token/ERC20/ERC20.sol\":10707:10725  _allowances[owner] */\n      0x00\n        /* \"@openzeppelin/contracts/token/ERC20/ERC20.sol\":10719:10724  owner */\n      dup6\n        /* \"@openzeppelin/contracts/token/ERC20/ERC20.sol\":10707:10725  _allowances[owner] */\n      0xffffffffffffffffffffffffffffffffffffffff\n      and\n      0xffffffffffffffffffffffffffffffffffffffff\n      and\n      dup2\n      mstore\n      0x20\n      add\n      swap1\n      dup2\n      mstore\n      0x20\n      add\n      0x00\n      keccak256\n        /* \"@openzeppelin/contracts/token/ERC20/ERC20.sol\":10707:10734  _allowances[owner][spender] */\n      0x00\n        /* \"@openzeppelin/contracts/token/ERC20/ERC20.sol\":10726:10733  spender */\n      dup5\n        /* \"@openzeppelin/contracts/token/ERC20/ERC20.sol\":10707:10734  _allowances[owner][spender] */\n      0xffffffffffffffffffffffffffffffffffffffff\n      and\n      0xffffffffffffffffffffffffffffffffffffffff\n      and\n      dup2\n      mstore\n      0x20\n      add\n      swap1\n      dup2\n      mstore\n      0x20\n      add\n      0x00\n      keccak256\n        /* \"@openzeppelin/contracts/token/ERC20/ERC20.sol\":10707:10743  _allowances[owner][spender] = amount */\n      dup2\n      swap1\n      sstore\n      pop\n        /* \"@openzeppelin/contracts/token/ERC20/ERC20.sol\":10774:10781  spender */\n      dup2\n        /* \"@openzeppelin/contracts/token/ERC20/ERC20.sol\":10758:10790  Approval(owner, spender, amount) */\n      0xffffffffffffffffffffffffffffffffffffffff\n      and\n        /* \"@openzeppelin/contracts/token/ERC20/ERC20.sol\":10767:10772  owner */\n      dup4\n        /* \"@openzeppelin/contracts/token/ERC20/ERC20.sol\":10758:10790  Approval(owner, spender, amount) */\n      0xffffffffffffffffffffffffffffffffffffffff\n      and\n      0x8c5be1e5ebec7d5bd14f71427d1e84f3dd0314c0f7b2291e5b200ac8c7c3b925\n        /* \"@openzeppelin/contracts/token/ERC20/ERC20.sol\":10783:10789  amount */\n      dup4\n        /* \"@openzeppelin/contracts/token/ERC20/ERC20.sol\":10758:10790  Approval(owner, spender, amount) */\n      mload(0x40)\n      tag_213\n      swap2\n      swap1\n      tag_34\n      jump\t// in\n    tag_213:\n      mload(0x40)\n      dup1\n      swap2\n      sub\n      swap1\n      log3\n        /* \"@openzeppelin/contracts/token/ERC20/ERC20.sol\":10457:10797  function _approve(address owner, address spender, uint256 amount) internal virtual {... */\n      pop\n      pop\n      pop\n      jump\t// out\n        /* \"@openzeppelin/contracts/token/ERC20/ERC20.sol\":7456:8244  function _transfer(address from, address to, uint256 amount) internal virtual {... */\n    tag_131:\n        /* \"@openzeppelin/contracts/token/ERC20/ERC20.sol\":7568:7569  0 */\n      0x00\n        /* \"@openzeppelin/contracts/token/ERC20/ERC20.sol\":7552:7570  from != address(0) */\n      0xffffffffffffffffffffffffffffffffffffffff\n      and\n        /* \"@openzeppelin/contracts/token/ERC20/ERC20.sol\":7552:7556  from */\n      dup4\n        /* \"@openzeppelin/contracts/token/ERC20/ERC20.sol\":7552:7570  from != address(0) */\n      0xffffffffffffffffffffffffffffffffffffffff\n      and\n      sub\n        /* \"@openzeppelin/contracts/token/ERC20/ERC20.sol\":7544:7612  require(from != address(0), \"ERC20: transfer from the zero address\") */\n      tag_215\n      jumpi\n      mload(0x40)\n      0x08c379a000000000000000000000000000000000000000000000000000000000\n      dup2\n      mstore\n      0x04\n      add\n      tag_216\n      swap1\n      tag_217\n      jump\t// in\n    tag_216:\n      mload(0x40)\n      dup1\n      swap2\n      sub\n      swap1\n      revert\n    tag_215:\n        /* \"@openzeppelin/contracts/token/ERC20/ERC20.sol\":7644:7645  0 */\n      0x00\n        /* \"@openzeppelin/contracts/token/ERC20/ERC20.sol\":7630:7646  to != address(0) */\n      0xffffffffffffffffffffffffffffffffffffffff\n      and\n        /* \"@openzeppelin/contracts/token/ERC20/ERC20.sol\":7630:7632  to */\n      dup3\n        /* \"@openzeppelin/contracts/token/ERC20/ERC20.sol\":7630:7646  to != address(0) */\n      0xffffffffffffffffffffffffffffffffffffffff\n      and\n      sub\n        /* \"@openzeppelin/contracts/token/ERC20/ERC20.sol\":7622:7686  require(to != address(0), \"ERC20: transfer to the zero address\") */\n      tag_218\n      jumpi\n      mload(0x40)\n      0x08c379a000000000000000000000000000000000000000000000000000000000\n      dup2\n      mstore\n      0x04\n      add\n      tag_219\n      swap1\n      tag_220\n      jump\t// in\n    tag_219:\n      mload(0x40)\n      dup1\n      swap2\n      sub\n      swap1\n      revert\n    tag_218:\n        /* \"@openzeppelin/contracts/token/ERC20/ERC20.sol\":7697:7735  _beforeTokenTransfer(from, to, amount) */\n      tag_221\n        /* \"@openzeppelin/contracts/token/ERC20/ERC20.sol\":7718:7722  from */\n      dup4\n        /* \"@openzeppelin/contracts/token/ERC20/ERC20.sol\":7724:7726  to */\n      dup4\n        /* \"@openzeppelin/contracts/token/ERC20/ERC20.sol\":7728:7734  amount */\n      dup4\n        /* \"@openzeppelin/contracts/token/ERC20/ERC20.sol\":7697:7717  _beforeTokenTransfer */\n      tag_222\n        /* \"@openzeppelin/contracts/token/ERC20/ERC20.sol\":7697:7735  _beforeTokenTransfer(from, to, amount) */\n      jump\t// in\n    tag_221:\n        /* \"@openzeppelin/contracts/token/ERC20/ERC20.sol\":7746:7765  uint256 fromBalance */\n      0x00\n        /* \"@openzeppelin/contracts/token/ERC20/ERC20.sol\":7768:7777  _balances */\n      dup1\n        /* \"@openzeppelin/contracts/token/ERC20/ERC20.sol\":7768:7783  _balances[from] */\n      0x00\n        /* \"@openzeppelin/contracts/token/ERC20/ERC20.sol\":7778:7782  from */\n      dup6\n        /* \"@openzeppelin/contracts/token/ERC20/ERC20.sol\":7768:7783  _balances[from] */\n      0xffffffffffffffffffffffffffffffffffffffff\n      and\n      0xffffffffffffffffffffffffffffffffffffffff\n      and\n      dup2\n      mstore\n      0x20\n      add\n      swap1\n      dup2\n      mstore\n      0x20\n      add\n      0x00\n      keccak256\n      sload\n        /* \"@openzeppelin/contracts/token/ERC20/ERC20.sol\":7746:7783  uint256 fromBalance = _balances[from] */\n      swap1\n      pop\n        /* \"@openzeppelin/contracts/token/ERC20/ERC20.sol\":7816:7822  amount */\n      dup2\n        /* \"@openzeppelin/contracts/token/ERC20/ERC20.sol\":7801:7812  fromBalance */\n      dup2\n        /* \"@openzeppelin/contracts/token/ERC20/ERC20.sol\":7801:7822  fromBalance >= amount */\n      lt\n      iszero\n        /* \"@openzeppelin/contracts/token/ERC20/ERC20.sol\":7793:7865  require(fromBalance >= amount, \"ERC20: transfer amount exceeds balance\") */\n      tag_223\n      jumpi\n      mload(0x40)\n      0x08c379a000000000000000000000000000000000000000000000000000000000\n      dup2\n      mstore\n      0x04\n      add\n      tag_224\n      swap1\n      tag_225\n      jump\t// in\n    tag_224:\n      mload(0x40)\n      dup1\n      swap2\n      sub\n      swap1\n      revert\n    tag_223:\n        /* \"@openzeppelin/contracts/token/ERC20/ERC20.sol\":7931:7937  amount */\n      dup2\n        /* \"@openzeppelin/contracts/token/ERC20/ERC20.sol\":7917:7928  fromBalance */\n      dup2\n        /* \"@openzeppelin/contracts/token/ERC20/ERC20.sol\":7917:7937  fromBalance - amount */\n      sub\n        /* \"@openzeppelin/contracts/token/ERC20/ERC20.sol\":7899:7908  _balances */\n      0x00\n        /* \"@openzeppelin/contracts/token/ERC20/ERC20.sol\":7899:7914  _balances[from] */\n      dup1\n        /* \"@openzeppelin/contracts/token/ERC20/ERC20.sol\":7909:7913  from */\n      dup7\n        /* \"@openzeppelin/contracts/token/ERC20/ERC20.sol\":7899:7914  _balances[from] */\n      0xffffffffffffffffffffffffffffffffffffffff\n      and\n      0xffffffffffffffffffffffffffffffffffffffff\n      and\n      dup2\n      mstore\n      0x20\n      add\n      swap1\n      dup2\n      mstore\n      0x20\n      add\n      0x00\n      keccak256\n        /* \"@openzeppelin/contracts/token/ERC20/ERC20.sol\":7899:7937  _balances[from] = fromBalance - amount */\n      dup2\n      swap1\n      sstore\n      pop\n        /* \"@openzeppelin/contracts/token/ERC20/ERC20.sol\":8131:8137  amount */\n      dup2\n        /* \"@openzeppelin/contracts/token/ERC20/ERC20.sol\":8114:8123  _balances */\n      0x00\n        /* \"@openzeppelin/contracts/token/ERC20/ERC20.sol\":8114:8127  _balances[to] */\n      dup1\n        /* \"@openzeppelin/contracts/token/ERC20/ERC20.sol\":8124:8126  to */\n      dup6\n        /* \"@openzeppelin/contracts/token/ERC20/ERC20.sol\":8114:8127  _balances[to] */\n      0xffffffffffffffffffffffffffffffffffffffff\n      and\n      0xffffffffffffffffffffffffffffffffffffffff\n      and\n      dup2\n      mstore\n      0x20\n      add\n      swap1\n      dup2\n      mstore\n      0x20\n      add\n      0x00\n      keccak256\n      0x00\n        /* \"@openzeppelin/contracts/token/ERC20/ERC20.sol\":8114:8137  _balances[to] += amount */\n      dup3\n      dup3\n      sload\n      add\n      swap3\n      pop\n      pop\n      dup2\n      swap1\n      sstore\n      pop\n        /* \"@openzeppelin/contracts/token/ERC20/ERC20.sol\":8178:8180  to */\n      dup3\n        /* \"@openzeppelin/contracts/token/ERC20/ERC20.sol\":8163:8189  Transfer(from, to, amount) */\n      0xffffffffffffffffffffffffffffffffffffffff\n      and\n        /* \"@openzeppelin/contracts/token/ERC20/ERC20.sol\":8172:8176  from */\n      dup5\n        /* \"@openzeppelin/contracts/token/ERC20/ERC20.sol\":8163:8189  Transfer(from, to, amount) */\n      0xffffffffffffffffffffffffffffffffffffffff\n      and\n      0xddf252ad1be2c89b69c2b068fc378daa952ba7f163c4a11628f55a4df523b3ef\n        /* \"@openzeppelin/contracts/token/ERC20/ERC20.sol\":8182:8188  amount */\n      dup5\n        /* \"@openzeppelin/contracts/token/ERC20/ERC20.sol\":8163:8189  Transfer(from, to, amount) */\n      mload(0x40)\n      tag_226\n      swap2\n      swap1\n      tag_34\n      jump\t// in\n    tag_226:\n      mload(0x40)\n      dup1\n      swap2\n      sub\n      swap1\n      log3\n        /* \"@openzeppelin/contracts/token/ERC20/ERC20.sol\":8200:8237  _afterTokenTransfer(from, to, amount) */\n      tag_227\n        /* \"@openzeppelin/contracts/token/ERC20/ERC20.sol\":8220:8224  from */\n      dup5\n        /* \"@openzeppelin/contracts/token/ERC20/ERC20.sol\":8226:8228  to */\n      dup5\n        /* \"@openzeppelin/contracts/token/ERC20/ERC20.sol\":8230:8236  amount */\n      dup5\n        /* \"@openzeppelin/contracts/token/ERC20/ERC20.sol\":8200:8219  _afterTokenTransfer */\n      tag_228\n        /* \"@openzeppelin/contracts/token/ERC20/ERC20.sol\":8200:8237  _afterTokenTransfer(from, to, amount) */\n      jump\t// in\n    tag_227:\n        /* \"@openzeppelin/contracts/token/ERC20/ERC20.sol\":7534:8244  {... */\n      pop\n        /* \"@openzeppelin/contracts/token/ERC20/ERC20.sol\":7456:8244  function _transfer(address from, address to, uint256 amount) internal virtual {... */\n      pop\n      pop\n      pop\n      jump\t// out\n        /* \"@openzeppelin/contracts/token/ERC20/ERC20.sol\":9375:10034  function _burn(address account, uint256 amount) internal virtual {... */\n    tag_154:\n        /* \"@openzeppelin/contracts/token/ERC20/ERC20.sol\":9477:9478  0 */\n      0x00\n        /* \"@openzeppelin/contracts/token/ERC20/ERC20.sol\":9458:9479  account != address(0) */\n      0xffffffffffffffffffffffffffffffffffffffff\n      and\n        /* \"@openzeppelin/contracts/token/ERC20/ERC20.sol\":9458:9465  account */\n      dup3\n        /* \"@openzeppelin/contracts/token/ERC20/ERC20.sol\":9458:9479  account != address(0) */\n      0xffffffffffffffffffffffffffffffffffffffff\n      and\n      sub\n        /* \"@openzeppelin/contracts/token/ERC20/ERC20.sol\":9450:9517  require(account != address(0), \"ERC20: burn from the zero address\") */\n      tag_230\n      jumpi\n      mload(0x40)\n      0x08c379a000000000000000000000000000000000000000000000000000000000\n      dup2\n      mstore\n      0x04\n      add\n      tag_231\n      swap1\n      tag_232\n      jump\t// in\n    tag_231:\n      mload(0x40)\n      dup1\n      swap2\n      sub\n      swap1\n      revert\n    tag_230:\n        /* \"@openzeppelin/contracts/token/ERC20/ERC20.sol\":9528:9577  _beforeTokenTransfer(account, address(0), amount) */\n      tag_233\n        /* \"@openzeppelin/contracts/token/ERC20/ERC20.sol\":9549:9556  account */\n      dup3\n        /* \"@openzeppelin/contracts/token/ERC20/ERC20.sol\":9566:9567  0 */\n      0x00\n        /* \"@openzeppelin/contracts/token/ERC20/ERC20.sol\":9570:9576  amount */\n      dup4\n        /* \"@openzeppelin/contracts/token/ERC20/ERC20.sol\":9528:9548  _beforeTokenTransfer */\n      tag_222\n        /* \"@openzeppelin/contracts/token/ERC20/ERC20.sol\":9528:9577  _beforeTokenTransfer(account, address(0), amount) */\n      jump\t// in\n    tag_233:\n        /* \"@openzeppelin/contracts/token/ERC20/ERC20.sol\":9588:9610  uint256 accountBalance */\n      0x00\n        /* \"@openzeppelin/contracts/token/ERC20/ERC20.sol\":9613:9622  _balances */\n      dup1\n        /* \"@openzeppelin/contracts/token/ERC20/ERC20.sol\":9613:9631  _balances[account] */\n      0x00\n        /* \"@openzeppelin/contracts/token/ERC20/ERC20.sol\":9623:9630  account */\n      dup5\n        /* \"@openzeppelin/contracts/token/ERC20/ERC20.sol\":9613:9631  _balances[account] */\n      0xffffffffffffffffffffffffffffffffffffffff\n      and\n      0xffffffffffffffffffffffffffffffffffffffff\n      and\n      dup2\n      mstore\n      0x20\n      add\n      swap1\n      dup2\n      mstore\n      0x20\n      add\n      0x00\n      keccak256\n      sload\n        /* \"@openzeppelin/contracts/token/ERC20/ERC20.sol\":9588:9631  uint256 accountBalance = _balances[account] */\n      swap1\n      pop\n        /* \"@openzeppelin/contracts/token/ERC20/ERC20.sol\":9667:9673  amount */\n      dup2\n        /* \"@openzeppelin/contracts/token/ERC20/ERC20.sol\":9649:9663  accountBalance */\n      dup2\n        /* \"@openzeppelin/contracts/token/ERC20/ERC20.sol\":9649:9673  accountBalance >= amount */\n      lt\n      iszero\n        /* \"@openzeppelin/contracts/token/ERC20/ERC20.sol\":9641:9712  require(accountBalance >= amount, \"ERC20: burn amount exceeds balance\") */\n      tag_234\n      jumpi\n      mload(0x40)\n      0x08c379a000000000000000000000000000000000000000000000000000000000\n      dup2\n      mstore\n      0x04\n      add\n      tag_235\n      swap1\n      tag_236\n      jump\t// in\n    tag_235:\n      mload(0x40)\n      dup1\n      swap2\n      sub\n      swap1\n      revert\n    tag_234:\n        /* \"@openzeppelin/contracts/token/ERC20/ERC20.sol\":9784:9790  amount */\n      dup2\n        /* \"@openzeppelin/contracts/token/ERC20/ERC20.sol\":9767:9781  accountBalance */\n      dup2\n        /* \"@openzeppelin/contracts/token/ERC20/ERC20.sol\":9767:9790  accountBalance - amount */\n      sub\n        /* \"@openzeppelin/contracts/token/ERC20/ERC20.sol\":9746:9755  _balances */\n      0x00\n        /* \"@openzeppelin/contracts/token/ERC20/ERC20.sol\":9746:9764  _balances[account] */\n      dup1\n        /* \"@openzeppelin/contracts/token/ERC20/ERC20.sol\":9756:9763  account */\n      dup6\n        /* \"@openzeppelin/contracts/token/ERC20/ERC20.sol\":9746:9764  _balances[account] */\n      0xffffffffffffffffffffffffffffffffffffffff\n      and\n      0xffffffffffffffffffffffffffffffffffffffff\n      and\n      dup2\n      mstore\n      0x20\n      add\n      swap1\n      dup2\n      mstore\n      0x20\n      add\n      0x00\n      keccak256\n        /* \"@openzeppelin/contracts/token/ERC20/ERC20.sol\":9746:9790  _balances[account] = accountBalance - amount */\n      dup2\n      swap1\n      sstore\n      pop\n        /* \"@openzeppelin/contracts/token/ERC20/ERC20.sol\":9899:9905  amount */\n      dup2\n        /* \"@openzeppelin/contracts/token/ERC20/ERC20.sol\":9883:9895  _totalSupply */\n      0x02\n      0x00\n        /* \"@openzeppelin/contracts/token/ERC20/ERC20.sol\":9883:9905  _totalSupply -= amount */\n      dup3\n      dup3\n      sload\n      sub\n      swap3\n      pop\n      pop\n      dup2\n      swap1\n      sstore\n      pop\n        /* \"@openzeppelin/contracts/token/ERC20/ERC20.sol\":9957:9958  0 */\n      0x00\n        /* \"@openzeppelin/contracts/token/ERC20/ERC20.sol\":9931:9968  Transfer(account, address(0), amount) */\n      0xffffffffffffffffffffffffffffffffffffffff\n      and\n        /* \"@openzeppelin/contracts/token/ERC20/ERC20.sol\":9940:9947  account */\n      dup4\n        /* \"@openzeppelin/contracts/token/ERC20/ERC20.sol\":9931:9968  Transfer(account, address(0), amount) */\n      0xffffffffffffffffffffffffffffffffffffffff\n      and\n      0xddf252ad1be2c89b69c2b068fc378daa952ba7f163c4a11628f55a4df523b3ef\n        /* \"@openzeppelin/contracts/token/ERC20/ERC20.sol\":9961:9967  amount */\n      dup5\n        /* \"@openzeppelin/contracts/token/ERC20/ERC20.sol\":9931:9968  Transfer(account, address(0), amount) */\n      mload(0x40)\n      tag_237\n      swap2\n      swap1\n      tag_34\n      jump\t// in\n    tag_237:\n      mload(0x40)\n      dup1\n      swap2\n      sub\n      swap1\n      log3\n        /* \"@openzeppelin/contracts/token/ERC20/ERC20.sol\":9979:10027  _afterTokenTransfer(account, address(0), amount) */\n      tag_238\n        /* \"@openzeppelin/contracts/token/ERC20/ERC20.sol\":9999:10006  account */\n      dup4\n        /* \"@openzeppelin/contracts/token/ERC20/ERC20.sol\":10016:10017  0 */\n      0x00\n        /* \"@openzeppelin/contracts/token/ERC20/ERC20.sol\":10020:10026  amount */\n      dup5\n        /* \"@openzeppelin/contracts/token/ERC20/ERC20.sol\":9979:9998  _afterTokenTransfer */\n      tag_228\n        /* \"@openzeppelin/contracts/token/ERC20/ERC20.sol\":9979:10027  _afterTokenTransfer(account, address(0), amount) */\n      jump\t// in\n    tag_238:\n        /* \"@openzeppelin/contracts/token/ERC20/ERC20.sol\":9440:10034  {... */\n      pop\n        /* \"@openzeppelin/contracts/token/ERC20/ERC20.sol\":9375:10034  function _burn(address account, uint256 amount) internal virtual {... */\n      pop\n      pop\n      jump\t// out\n        /* \"@openzeppelin/contracts/token/ERC20/ERC20.sol\":8520:9055  function _mint(address account, uint256 amount) internal virtual {... */\n    tag_175:\n        /* \"@openzeppelin/contracts/token/ERC20/ERC20.sol\":8622:8623  0 */\n      0x00\n        /* \"@openzeppelin/contracts/token/ERC20/ERC20.sol\":8603:8624  account != address(0) */\n      0xffffffffffffffffffffffffffffffffffffffff\n      and\n        /* \"@openzeppelin/contracts/token/ERC20/ERC20.sol\":8603:8610  account */\n      dup3\n        /* \"@openzeppelin/contracts/token/ERC20/ERC20.sol\":8603:8624  account != address(0) */\n      0xffffffffffffffffffffffffffffffffffffffff\n      and\n      sub\n        /* \"@openzeppelin/contracts/token/ERC20/ERC20.sol\":8595:8660  require(account != address(0), \"ERC20: mint to the zero address\") */\n      tag_240\n      jumpi\n      mload(0x40)\n      0x08c379a000000000000000000000000000000000000000000000000000000000\n      dup2\n      mstore\n      0x04\n      add\n      tag_241\n      swap1\n      tag_242\n      jump\t// in\n    tag_241:\n      mload(0x40)\n      dup1\n      swap2\n      sub\n      swap1\n      revert\n    tag_240:\n        /* \"@openzeppelin/contracts/token/ERC20/ERC20.sol\":8671:8720  _beforeTokenTransfer(address(0), account, amount) */\n      tag_243\n        /* \"@openzeppelin/contracts/token/ERC20/ERC20.sol\":8700:8701  0 */\n      0x00\n        /* \"@openzeppelin/contracts/token/ERC20/ERC20.sol\":8704:8711  account */\n      dup4\n        /* \"@openzeppelin/contracts/token/ERC20/ERC20.sol\":8713:8719  amount */\n      dup4\n        /* \"@openzeppelin/contracts/token/ERC20/ERC20.sol\":8671:8691  _beforeTokenTransfer */\n      tag_222\n        /* \"@openzeppelin/contracts/token/ERC20/ERC20.sol\":8671:8720  _beforeTokenTransfer(address(0), account, amount) */\n      jump\t// in\n    tag_243:\n        /* \"@openzeppelin/contracts/token/ERC20/ERC20.sol\":8747:8753  amount */\n      dup1\n        /* \"@openzeppelin/contracts/token/ERC20/ERC20.sol\":8731:8743  _totalSupply */\n      0x02\n      0x00\n        /* \"@openzeppelin/contracts/token/ERC20/ERC20.sol\":8731:8753  _totalSupply += amount */\n      dup3\n      dup3\n      sload\n      tag_244\n      swap2\n      swap1\n      tag_148\n      jump\t// in\n    tag_244:\n      swap3\n      pop\n      pop\n      dup2\n      swap1\n      sstore\n      pop\n        /* \"@openzeppelin/contracts/token/ERC20/ERC20.sol\":8921:8927  amount */\n      dup1\n        /* \"@openzeppelin/contracts/token/ERC20/ERC20.sol\":8899:8908  _balances */\n      0x00\n        /* \"@openzeppelin/contracts/token/ERC20/ERC20.sol\":8899:8917  _balances[account] */\n      dup1\n        /* \"@openzeppelin/contracts/token/ERC20/ERC20.sol\":8909:8916  account */\n      dup5\n        /* \"@openzeppelin/contracts/token/ERC20/ERC20.sol\":8899:8917  _balances[account] */\n      0xffffffffffffffffffffffffffffffffffffffff\n      and\n      0xffffffffffffffffffffffffffffffffffffffff\n      and\n      dup2\n      mstore\n      0x20\n      add\n      swap1\n      dup2\n      mstore\n      0x20\n      add\n      0x00\n      keccak256\n      0x00\n        /* \"@openzeppelin/contracts/token/ERC20/ERC20.sol\":8899:8927  _balances[account] += amount */\n      dup3\n      dup3\n      sload\n      add\n      swap3\n      pop\n      pop\n      dup2\n      swap1\n      sstore\n      pop\n        /* \"@openzeppelin/contracts/token/ERC20/ERC20.sol\":8973:8980  account */\n      dup2\n        /* \"@openzeppelin/contracts/token/ERC20/ERC20.sol\":8952:8989  Transfer(address(0), account, amount) */\n      0xffffffffffffffffffffffffffffffffffffffff\n      and\n        /* \"@openzeppelin/contracts/token/ERC20/ERC20.sol\":8969:8970  0 */\n      0x00\n        /* \"@openzeppelin/contracts/token/ERC20/ERC20.sol\":8952:8989  Transfer(address(0), account, amount) */\n      0xffffffffffffffffffffffffffffffffffffffff\n      and\n      0xddf252ad1be2c89b69c2b068fc378daa952ba7f163c4a11628f55a4df523b3ef\n        /* \"@openzeppelin/contracts/token/ERC20/ERC20.sol\":8982:8988  amount */\n      dup4\n        /* \"@openzeppelin/contracts/token/ERC20/ERC20.sol\":8952:8989  Transfer(address(0), account, amount) */\n      mload(0x40)\n      tag_245\n      swap2\n      swap1\n      tag_34\n      jump\t// in\n    tag_245:\n      mload(0x40)\n      dup1\n      swap2\n      sub\n      swap1\n      log3\n        /* \"@openzeppelin/contracts/token/ERC20/ERC20.sol\":9000:9048  _afterTokenTransfer(address(0), account, amount) */\n      tag_246\n        /* \"@openzeppelin/contracts/token/ERC20/ERC20.sol\":9028:9029  0 */\n      0x00\n        /* \"@openzeppelin/contracts/token/ERC20/ERC20.sol\":9032:9039  account */\n      dup4\n        /* \"@openzeppelin/contracts/token/ERC20/ERC20.sol\":9041:9047  amount */\n      dup4\n        /* \"@openzeppelin/contracts/token/ERC20/ERC20.sol\":9000:9019  _afterTokenTransfer */\n      tag_228\n        /* \"@openzeppelin/contracts/token/ERC20/ERC20.sol\":9000:9048  _afterTokenTransfer(address(0), account, amount) */\n      jump\t// in\n    tag_246:\n        /* \"@openzeppelin/contracts/token/ERC20/ERC20.sol\":8520:9055  function _mint(address account, uint256 amount) internal virtual {... */\n      pop\n      pop\n      jump\t// out\n        /* \"@openzeppelin/contracts/token/ERC20/ERC20.sol\":12073:12164  function _beforeTokenTransfer(address from, address to, uint256 amount) internal virtual {} */\n    tag_222:\n      pop\n      pop\n      pop\n      jump\t// out\n        /* \"@openzeppelin/contracts/token/ERC20/ERC20.sol\":12752:12842  function _afterTokenTransfer(address from, address to, uint256 amount) internal virtual {} */\n    tag_228:\n      pop\n      pop\n      pop\n      jump\t// out\n    tag_199:\n      mload(0x40)\n      dup1\n      0x40\n      add\n      0x40\n      mstore\n      dup1\n      0x00\n      dup2\n      mstore\n      0x20\n      add\n      0x60\n      dup2\n      mstore\n      pop\n      swap1\n      jump\t// out\n        /* \"#utility.yul\":7:106   */\n    tag_249:\n        /* \"#utility.yul\":59:65   */\n      0x00\n        /* \"#utility.yul\":93:98   */\n      dup2\n        /* \"#utility.yul\":87:99   */\n      mload\n        /* \"#utility.yul\":77:99   */\n      swap1\n      pop\n        /* \"#utility.yul\":7:106   */\n      swap2\n      swap1\n      pop\n      jump\t// out\n        /* \"#utility.yul\":112:281   */\n    tag_250:\n        /* \"#utility.yul\":196:207   */\n      0x00\n        /* \"#utility.yul\":230:236   */\n      dup3\n        /* \"#utility.yul\":225:228   */\n      dup3\n        /* \"#utility.yul\":218:237   */\n      mstore\n        /* \"#utility.yul\":270:274   */\n      0x20\n        /* \"#utility.yul\":265:268   */\n      dup3\n        /* \"#utility.yul\":261:275   */\n      add\n        /* \"#utility.yul\":246:275   */\n      swap1\n      pop\n        /* \"#utility.yul\":112:281   */\n      swap3\n      swap2\n      pop\n      pop\n      jump\t// out\n        /* \"#utility.yul\":287:533   */\n    tag_251:\n        /* \"#utility.yul\":368:369   */\n      0x00\n        /* \"#utility.yul\":378:491   */\n    tag_306:\n        /* \"#utility.yul\":392:398   */\n      dup4\n        /* \"#utility.yul\":389:390   */\n      dup2\n        /* \"#utility.yul\":386:399   */\n      lt\n        /* \"#utility.yul\":378:491   */\n      iszero\n      tag_308\n      jumpi\n        /* \"#utility.yul\":477:478   */\n      dup1\n        /* \"#utility.yul\":472:475   */\n      dup3\n        /* \"#utility.yul\":468:479   */\n      add\n        /* \"#utility.yul\":462:480   */\n      mload\n        /* \"#utility.yul\":458:459   */\n      dup2\n        /* \"#utility.yul\":453:456   */\n      dup5\n        /* \"#utility.yul\":449:460   */\n      add\n        /* \"#utility.yul\":442:481   */\n      mstore\n        /* \"#utility.yul\":414:416   */\n      0x20\n        /* \"#utility.yul\":411:412   */\n      dup2\n        /* \"#utility.yul\":407:417   */\n      add\n        /* \"#utility.yul\":402:417   */\n      swap1\n      pop\n        /* \"#utility.yul\":378:491   */\n      jump(tag_306)\n    tag_308:\n        /* \"#utility.yul\":525:526   */\n      0x00\n        /* \"#utility.yul\":516:522   */\n      dup5\n        /* \"#utility.yul\":511:514   */\n      dup5\n        /* \"#utility.yul\":507:523   */\n      add\n        /* \"#utility.yul\":500:527   */\n      mstore\n        /* \"#utility.yul\":349:533   */\n      pop\n        /* \"#utility.yul\":287:533   */\n      pop\n      pop\n      pop\n      jump\t// out\n        /* \"#utility.yul\":539:641   */\n    tag_252:\n        /* \"#utility.yul\":580:586   */\n      0x00\n        /* \"#utility.yul\":631:633   */\n      0x1f\n        /* \"#utility.yul\":627:634   */\n      not\n        /* \"#utility.yul\":622:624   */\n      0x1f\n        /* \"#utility.yul\":615:620   */\n      dup4\n        /* \"#utility.yul\":611:625   */\n      add\n        /* \"#utility.yul\":607:635   */\n      and\n        /* \"#utility.yul\":597:635   */\n      swap1\n      pop\n        /* \"#utility.yul\":539:641   */\n      swap2\n      swap1\n      pop\n      jump\t// out\n        /* \"#utility.yul\":647:1024   */\n    tag_253:\n        /* \"#utility.yul\":735:738   */\n      0x00\n        /* \"#utility.yul\":763:802   */\n      tag_311\n        /* \"#utility.yul\":796:801   */\n      dup3\n        /* \"#utility.yul\":763:802   */\n      tag_249\n      jump\t// in\n    tag_311:\n        /* \"#utility.yul\":818:889   */\n      tag_312\n        /* \"#utility.yul\":882:888   */\n      dup2\n        /* \"#utility.yul\":877:880   */\n      dup6\n        /* \"#utility.yul\":818:889   */\n      tag_250\n      jump\t// in\n    tag_312:\n        /* \"#utility.yul\":811:889   */\n      swap4\n      pop\n        /* \"#utility.yul\":898:963   */\n      tag_313\n        /* \"#utility.yul\":956:962   */\n      dup2\n        /* \"#utility.yul\":951:954   */\n      dup6\n        /* \"#utility.yul\":944:948   */\n      0x20\n        /* \"#utility.yul\":937:942   */\n      dup7\n        /* \"#utility.yul\":933:949   */\n      add\n        /* \"#utility.yul\":898:963   */\n      tag_251\n      jump\t// in\n    tag_313:\n        /* \"#utility.yul\":988:1017   */\n      tag_314\n        /* \"#utility.yul\":1010:1016   */\n      dup2\n        /* \"#utility.yul\":988:1017   */\n      tag_252\n      jump\t// in\n    tag_314:\n        /* \"#utility.yul\":983:986   */\n      dup5\n        /* \"#utility.yul\":979:1018   */\n      add\n        /* \"#utility.yul\":972:1018   */\n      swap2\n      pop\n        /* \"#utility.yul\":739:1024   */\n      pop\n        /* \"#utility.yul\":647:1024   */\n      swap3\n      swap2\n      pop\n      pop\n      jump\t// out\n        /* \"#utility.yul\":1030:1343   */\n    tag_24:\n        /* \"#utility.yul\":1143:1147   */\n      0x00\n        /* \"#utility.yul\":1181:1183   */\n      0x20\n        /* \"#utility.yul\":1170:1179   */\n      dup3\n        /* \"#utility.yul\":1166:1184   */\n      add\n        /* \"#utility.yul\":1158:1184   */\n      swap1\n      pop\n        /* \"#utility.yul\":1230:1239   */\n      dup2\n        /* \"#utility.yul\":1224:1228   */\n      dup2\n        /* \"#utility.yul\":1220:1240   */\n      sub\n        /* \"#utility.yul\":1216:1217   */\n      0x00\n        /* \"#utility.yul\":1205:1214   */\n      dup4\n        /* \"#utility.yul\":1201:1218   */\n      add\n        /* \"#utility.yul\":1194:1241   */\n      mstore\n        /* \"#utility.yul\":1258:1336   */\n      tag_316\n        /* \"#utility.yul\":1331:1335   */\n      dup2\n        /* \"#utility.yul\":1322:1328   */\n      dup5\n        /* \"#utility.yul\":1258:1336   */\n      tag_253\n      jump\t// in\n    tag_316:\n        /* \"#utility.yul\":1250:1336   */\n      swap1\n      pop\n        /* \"#utility.yul\":1030:1343   */\n      swap3\n      swap2\n      pop\n      pop\n      jump\t// out\n        /* \"#utility.yul\":1430:1547   */\n    tag_255:\n        /* \"#utility.yul\":1539:1540   */\n      0x00\n        /* \"#utility.yul\":1536:1537   */\n      dup1\n        /* \"#utility.yul\":1529:1541   */\n      revert\n        /* \"#utility.yul\":1676:1802   */\n    tag_257:\n        /* \"#utility.yul\":1713:1720   */\n      0x00\n        /* \"#utility.yul\":1753:1795   */\n      0xffffffffffffffffffffffffffffffffffffffff\n        /* \"#utility.yul\":1746:1751   */\n      dup3\n        /* \"#utility.yul\":1742:1796   */\n      and\n        /* \"#utility.yul\":1731:1796   */\n      swap1\n      pop\n        /* \"#utility.yul\":1676:1802   */\n      swap2\n      swap1\n      pop\n      jump\t// out\n        /* \"#utility.yul\":1808:1904   */\n    tag_258:\n        /* \"#utility.yul\":1845:1852   */\n      0x00\n        /* \"#utility.yul\":1874:1898   */\n      tag_322\n        /* \"#utility.yul\":1892:1897   */\n      dup3\n        /* \"#utility.yul\":1874:1898   */\n      tag_257\n      jump\t// in\n    tag_322:\n        /* \"#utility.yul\":1863:1898   */\n      swap1\n      pop\n        /* \"#utility.yul\":1808:1904   */\n      swap2\n      swap1\n      pop\n      jump\t// out\n        /* \"#utility.yul\":1910:2032   */\n    tag_259:\n        /* \"#utility.yul\":1983:2007   */\n      tag_324\n        /* \"#utility.yul\":2001:2006   */\n      dup2\n        /* \"#utility.yul\":1983:2007   */\n      tag_258\n      jump\t// in\n    tag_324:\n        /* \"#utility.yul\":1976:1981   */\n      dup2\n        /* \"#utility.yul\":1973:2008   */\n      eq\n        /* \"#utility.yul\":1963:2026   */\n      tag_325\n      jumpi\n        /* \"#utility.yul\":2022:2023   */\n      0x00\n        /* \"#utility.yul\":2019:2020   */\n      dup1\n        /* \"#utility.yul\":2012:2024   */\n      revert\n        /* \"#utility.yul\":1963:2026   */\n    tag_325:\n        /* \"#utility.yul\":1910:2032   */\n      pop\n      jump\t// out\n        /* \"#utility.yul\":2038:2177   */\n    tag_260:\n        /* \"#utility.yul\":2084:2089   */\n      0x00\n        /* \"#utility.yul\":2122:2128   */\n      dup2\n        /* \"#utility.yul\":2109:2129   */\n      calldataload\n        /* \"#utility.yul\":2100:2129   */\n      swap1\n      pop\n        /* \"#utility.yul\":2138:2171   */\n      tag_327\n        /* \"#utility.yul\":2165:2170   */\n      dup2\n        /* \"#utility.yul\":2138:2171   */\n      tag_259\n      jump\t// in\n    tag_327:\n        /* \"#utility.yul\":2038:2177   */\n      swap3\n      swap2\n      pop\n      pop\n      jump\t// out\n        /* \"#utility.yul\":2183:2260   */\n    tag_261:\n        /* \"#utility.yul\":2220:2227   */\n      0x00\n        /* \"#utility.yul\":2249:2254   */\n      dup2\n        /* \"#utility.yul\":2238:2254   */\n      swap1\n      pop\n        /* \"#utility.yul\":2183:2260   */\n      swap2\n      swap1\n      pop\n      jump\t// out\n        /* \"#utility.yul\":2266:2388   */\n    tag_262:\n        /* \"#utility.yul\":2339:2363   */\n      tag_330\n        /* \"#utility.yul\":2357:2362   */\n      dup2\n        /* \"#utility.yul\":2339:2363   */\n      tag_261\n      jump\t// in\n    tag_330:\n        /* \"#utility.yul\":2332:2337   */\n      dup2\n        /* \"#utility.yul\":2329:2364   */\n      eq\n        /* \"#utility.yul\":2319:2382   */\n      tag_331\n      jumpi\n        /* \"#utility.yul\":2378:2379   */\n      0x00\n        /* \"#utility.yul\":2375:2376   */\n      dup1\n        /* \"#utility.yul\":2368:2380   */\n      revert\n        /* \"#utility.yul\":2319:2382   */\n    tag_331:\n        /* \"#utility.yul\":2266:2388   */\n      pop\n      jump\t// out\n        /* \"#utility.yul\":2394:2533   */\n    tag_263:\n        /* \"#utility.yul\":2440:2445   */\n      0x00\n        /* \"#utility.yul\":2478:2484   */\n      dup2\n        /* \"#utility.yul\":2465:2485   */\n      calldataload\n        /* \"#utility.yul\":2456:2485   */\n      swap1\n      pop\n        /* \"#utility.yul\":2494:2527   */\n      tag_333\n        /* \"#utility.yul\":2521:2526   */\n      dup2\n        /* \"#utility.yul\":2494:2527   */\n      tag_262\n      jump\t// in\n    tag_333:\n        /* \"#utility.yul\":2394:2533   */\n      swap3\n      swap2\n      pop\n      pop\n      jump\t// out\n        /* \"#utility.yul\":2539:3013   */\n    tag_27:\n        /* \"#utility.yul\":2607:2613   */\n      0x00\n        /* \"#utility.yul\":2615:2621   */\n      dup1\n        /* \"#utility.yul\":2664:2666   */\n      0x40\n        /* \"#utility.yul\":2652:2661   */\n      dup4\n        /* \"#utility.yul\":2643:2650   */\n      dup6\n        /* \"#utility.yul\":2639:2662   */\n      sub\n        /* \"#utility.yul\":2635:2667   */\n      slt\n        /* \"#utility.yul\":2632:2751   */\n      iszero\n      tag_335\n      jumpi\n        /* \"#utility.yul\":2670:2749   */\n      tag_336\n      tag_255\n      jump\t// in\n    tag_336:\n        /* \"#utility.yul\":2632:2751   */\n    tag_335:\n        /* \"#utility.yul\":2790:2791   */\n      0x00\n        /* \"#utility.yul\":2815:2868   */\n      tag_337\n        /* \"#utility.yul\":2860:2867   */\n      dup6\n        /* \"#utility.yul\":2851:2857   */\n      dup3\n        /* \"#utility.yul\":2840:2849   */\n      dup7\n        /* \"#utility.yul\":2836:2858   */\n      add\n        /* \"#utility.yul\":2815:2868   */\n      tag_260\n      jump\t// in\n    tag_337:\n        /* \"#utility.yul\":2805:2868   */\n      swap3\n      pop\n        /* \"#utility.yul\":2761:2878   */\n      pop\n        /* \"#utility.yul\":2917:2919   */\n      0x20\n        /* \"#utility.yul\":2943:2996   */\n      tag_338\n        /* \"#utility.yul\":2988:2995   */\n      dup6\n        /* \"#utility.yul\":2979:2985   */\n      dup3\n        /* \"#utility.yul\":2968:2977   */\n      dup7\n        /* \"#utility.yul\":2964:2986   */\n      add\n        /* \"#utility.yul\":2943:2996   */\n      tag_263\n      jump\t// in\n    tag_338:\n        /* \"#utility.yul\":2933:2996   */\n      swap2\n      pop\n        /* \"#utility.yul\":2888:3006   */\n      pop\n        /* \"#utility.yul\":2539:3013   */\n      swap3\n      pop\n      swap3\n      swap1\n      pop\n      jump\t// out\n        /* \"#utility.yul\":3019:3109   */\n    tag_264:\n        /* \"#utility.yul\":3053:3060   */\n      0x00\n        /* \"#utility.yul\":3096:3101   */\n      dup2\n        /* \"#utility.yul\":3089:3102   */\n      iszero\n        /* \"#utility.yul\":3082:3103   */\n      iszero\n        /* \"#utility.yul\":3071:3103   */\n      swap1\n      pop\n        /* \"#utility.yul\":3019:3109   */\n      swap2\n      swap1\n      pop\n      jump\t// out\n        /* \"#utility.yul\":3115:3224   */\n    tag_265:\n        /* \"#utility.yul\":3196:3217   */\n      tag_341\n        /* \"#utility.yul\":3211:3216   */\n      dup2\n        /* \"#utility.yul\":3196:3217   */\n      tag_264\n      jump\t// in\n    tag_341:\n        /* \"#utility.yul\":3191:3194   */\n      dup3\n        /* \"#utility.yul\":3184:3218   */\n      mstore\n        /* \"#utility.yul\":3115:3224   */\n      pop\n      pop\n      jump\t// out\n        /* \"#utility.yul\":3230:3440   */\n    tag_30:\n        /* \"#utility.yul\":3317:3321   */\n      0x00\n        /* \"#utility.yul\":3355:3357   */\n      0x20\n        /* \"#utility.yul\":3344:3353   */\n      dup3\n        /* \"#utility.yul\":3340:3358   */\n      add\n        /* \"#utility.yul\":3332:3358   */\n      swap1\n      pop\n        /* \"#utility.yul\":3368:3433   */\n      tag_343\n        /* \"#utility.yul\":3430:3431   */\n      0x00\n        /* \"#utility.yul\":3419:3428   */\n      dup4\n        /* \"#utility.yul\":3415:3432   */\n      add\n        /* \"#utility.yul\":3406:3412   */\n      dup5\n        /* \"#utility.yul\":3368:3433   */\n      tag_265\n      jump\t// in\n    tag_343:\n        /* \"#utility.yul\":3230:3440   */\n      swap3\n      swap2\n      pop\n      pop\n      jump\t// out\n        /* \"#utility.yul\":3446:3564   */\n    tag_266:\n        /* \"#utility.yul\":3533:3557   */\n      tag_345\n        /* \"#utility.yul\":3551:3556   */\n      dup2\n        /* \"#utility.yul\":3533:3557   */\n      tag_261\n      jump\t// in\n    tag_345:\n        /* \"#utility.yul\":3528:3531   */\n      dup3\n        /* \"#utility.yul\":3521:3558   */\n      mstore\n        /* \"#utility.yul\":3446:3564   */\n      pop\n      pop\n      jump\t// out\n        /* \"#utility.yul\":3570:3792   */\n    tag_34:\n        /* \"#utility.yul\":3663:3667   */\n      0x00\n        /* \"#utility.yul\":3701:3703   */\n      0x20\n        /* \"#utility.yul\":3690:3699   */\n      dup3\n        /* \"#utility.yul\":3686:3704   */\n      add\n        /* \"#utility.yul\":3678:3704   */\n      swap1\n      pop\n        /* \"#utility.yul\":3714:3785   */\n      tag_347\n        /* \"#utility.yul\":3782:3783   */\n      0x00\n        /* \"#utility.yul\":3771:3780   */\n      dup4\n        /* \"#utility.yul\":3767:3784   */\n      add\n        /* \"#utility.yul\":3758:3764   */\n      dup5\n        /* \"#utility.yul\":3714:3785   */\n      tag_266\n      jump\t// in\n    tag_347:\n        /* \"#utility.yul\":3570:3792   */\n      swap3\n      swap2\n      pop\n      pop\n      jump\t// out\n        /* \"#utility.yul\":3798:4127   */\n    tag_37:\n        /* \"#utility.yul\":3857:3863   */\n      0x00\n        /* \"#utility.yul\":3906:3908   */\n      0x20\n        /* \"#utility.yul\":3894:3903   */\n      dup3\n        /* \"#utility.yul\":3885:3892   */\n      dup5\n        /* \"#utility.yul\":3881:3904   */\n      sub\n        /* \"#utility.yul\":3877:3909   */\n      slt\n        /* \"#utility.yul\":3874:3993   */\n      iszero\n      tag_349\n      jumpi\n        /* \"#utility.yul\":3912:3991   */\n      tag_350\n      tag_255\n      jump\t// in\n    tag_350:\n        /* \"#utility.yul\":3874:3993   */\n    tag_349:\n        /* \"#utility.yul\":4032:4033   */\n      0x00\n        /* \"#utility.yul\":4057:4110   */\n      tag_351\n        /* \"#utility.yul\":4102:4109   */\n      dup5\n        /* \"#utility.yul\":4093:4099   */\n      dup3\n        /* \"#utility.yul\":4082:4091   */\n      dup6\n        /* \"#utility.yul\":4078:4100   */\n      add\n        /* \"#utility.yul\":4057:4110   */\n      tag_260\n      jump\t// in\n    tag_351:\n        /* \"#utility.yul\":4047:4110   */\n      swap2\n      pop\n        /* \"#utility.yul\":4003:4120   */\n      pop\n        /* \"#utility.yul\":3798:4127   */\n      swap3\n      swap2\n      pop\n      pop\n      jump\t// out\n        /* \"#utility.yul\":4133:4752   */\n    tag_42:\n        /* \"#utility.yul\":4210:4216   */\n      0x00\n        /* \"#utility.yul\":4218:4224   */\n      dup1\n        /* \"#utility.yul\":4226:4232   */\n      0x00\n        /* \"#utility.yul\":4275:4277   */\n      0x60\n        /* \"#utility.yul\":4263:4272   */\n      dup5\n        /* \"#utility.yul\":4254:4261   */\n      dup7\n        /* \"#utility.yul\":4250:4273   */\n      sub\n        /* \"#utility.yul\":4246:4278   */\n      slt\n        /* \"#utility.yul\":4243:4362   */\n      iszero\n      tag_353\n      jumpi\n        /* \"#utility.yul\":4281:4360   */\n      tag_354\n      tag_255\n      jump\t// in\n    tag_354:\n        /* \"#utility.yul\":4243:4362   */\n    tag_353:\n        /* \"#utility.yul\":4401:4402   */\n      0x00\n        /* \"#utility.yul\":4426:4479   */\n      tag_355\n        /* \"#utility.yul\":4471:4478   */\n      dup7\n        /* \"#utility.yul\":4462:4468   */\n      dup3\n        /* \"#utility.yul\":4451:4460   */\n      dup8\n        /* \"#utility.yul\":4447:4469   */\n      add\n        /* \"#utility.yul\":4426:4479   */\n      tag_260\n      jump\t// in\n    tag_355:\n        /* \"#utility.yul\":4416:4479   */\n      swap4\n      pop\n        /* \"#utility.yul\":4372:4489   */\n      pop\n        /* \"#utility.yul\":4528:4530   */\n      0x20\n        /* \"#utility.yul\":4554:4607   */\n      tag_356\n        /* \"#utility.yul\":4599:4606   */\n      dup7\n        /* \"#utility.yul\":4590:4596   */\n      dup3\n        /* \"#utility.yul\":4579:4588   */\n      dup8\n        /* \"#utility.yul\":4575:4597   */\n      add\n        /* \"#utility.yul\":4554:4607   */\n      tag_260\n      jump\t// in\n    tag_356:\n        /* \"#utility.yul\":4544:4607   */\n      swap3\n      pop\n        /* \"#utility.yul\":4499:4617   */\n      pop\n        /* \"#utility.yul\":4656:4658   */\n      0x40\n        /* \"#utility.yul\":4682:4735   */\n      tag_357\n        /* \"#utility.yul\":4727:4734   */\n      dup7\n        /* \"#utility.yul\":4718:4724   */\n      dup3\n        /* \"#utility.yul\":4707:4716   */\n      dup8\n        /* \"#utility.yul\":4703:4725   */\n      add\n        /* \"#utility.yul\":4682:4735   */\n      tag_263\n      jump\t// in\n    tag_357:\n        /* \"#utility.yul\":4672:4735   */\n      swap2\n      pop\n        /* \"#utility.yul\":4627:4745   */\n      pop\n        /* \"#utility.yul\":4133:4752   */\n      swap3\n      pop\n      swap3\n      pop\n      swap3\n      jump\t// out\n        /* \"#utility.yul\":4758:4844   */\n    tag_267:\n        /* \"#utility.yul\":4793:4800   */\n      0x00\n        /* \"#utility.yul\":4833:4837   */\n      0xff\n        /* \"#utility.yul\":4826:4831   */\n      dup3\n        /* \"#utility.yul\":4822:4838   */\n      and\n        /* \"#utility.yul\":4811:4838   */\n      swap1\n      pop\n        /* \"#utility.yul\":4758:4844   */\n      swap2\n      swap1\n      pop\n      jump\t// out\n        /* \"#utility.yul\":4850:4962   */\n    tag_268:\n        /* \"#utility.yul\":4933:4955   */\n      tag_360\n        /* \"#utility.yul\":4949:4954   */\n      dup2\n        /* \"#utility.yul\":4933:4955   */\n      tag_267\n      jump\t// in\n    tag_360:\n        /* \"#utility.yul\":4928:4931   */\n      dup3\n        /* \"#utility.yul\":4921:4956   */\n      mstore\n        /* \"#utility.yul\":4850:4962   */\n      pop\n      pop\n      jump\t// out\n        /* \"#utility.yul\":4968:5182   */\n    tag_51:\n        /* \"#utility.yul\":5057:5061   */\n      0x00\n        /* \"#utility.yul\":5095:5097   */\n      0x20\n        /* \"#utility.yul\":5084:5093   */\n      dup3\n        /* \"#utility.yul\":5080:5098   */\n      add\n        /* \"#utility.yul\":5072:5098   */\n      swap1\n      pop\n        /* \"#utility.yul\":5108:5175   */\n      tag_362\n        /* \"#utility.yul\":5172:5173   */\n      0x00\n        /* \"#utility.yul\":5161:5170   */\n      dup4\n        /* \"#utility.yul\":5157:5174   */\n      add\n        /* \"#utility.yul\":5148:5154   */\n      dup5\n        /* \"#utility.yul\":5108:5175   */\n      tag_268\n      jump\t// in\n    tag_362:\n        /* \"#utility.yul\":4968:5182   */\n      swap3\n      swap2\n      pop\n      pop\n      jump\t// out\n        /* \"#utility.yul\":5188:5296   */\n    tag_269:\n        /* \"#utility.yul\":5265:5289   */\n      tag_364\n        /* \"#utility.yul\":5283:5288   */\n      dup2\n        /* \"#utility.yul\":5265:5289   */\n      tag_261\n      jump\t// in\n    tag_364:\n        /* \"#utility.yul\":5260:5263   */\n      dup3\n        /* \"#utility.yul\":5253:5290   */\n      mstore\n        /* \"#utility.yul\":5188:5296   */\n      pop\n      pop\n      jump\t// out\n        /* \"#utility.yul\":5302:5442   */\n    tag_270:\n        /* \"#utility.yul\":5395:5401   */\n      0x00\n        /* \"#utility.yul\":5429:5434   */\n      dup2\n        /* \"#utility.yul\":5423:5435   */\n      mload\n        /* \"#utility.yul\":5413:5435   */\n      swap1\n      pop\n        /* \"#utility.yul\":5302:5442   */\n      swap2\n      swap1\n      pop\n      jump\t// out\n        /* \"#utility.yul\":5448:5648   */\n    tag_271:\n        /* \"#utility.yul\":5563:5574   */\n      0x00\n        /* \"#utility.yul\":5597:5603   */\n      dup3\n        /* \"#utility.yul\":5592:5595   */\n      dup3\n        /* \"#utility.yul\":5585:5604   */\n      mstore\n        /* \"#utility.yul\":5637:5641   */\n      0x20\n        /* \"#utility.yul\":5632:5635   */\n      dup3\n        /* \"#utility.yul\":5628:5642   */\n      add\n        /* \"#utility.yul\":5613:5642   */\n      swap1\n      pop\n        /* \"#utility.yul\":5448:5648   */\n      swap3\n      swap2\n      pop\n      pop\n      jump\t// out\n        /* \"#utility.yul\":5654:5812   */\n    tag_272:\n        /* \"#utility.yul\":5747:5751   */\n      0x00\n        /* \"#utility.yul\":5770:5773   */\n      dup2\n        /* \"#utility.yul\":5762:5773   */\n      swap1\n      pop\n        /* \"#utility.yul\":5800:5804   */\n      0x20\n        /* \"#utility.yul\":5795:5798   */\n      dup3\n        /* \"#utility.yul\":5791:5805   */\n      add\n        /* \"#utility.yul\":5783:5805   */\n      swap1\n      pop\n        /* \"#utility.yul\":5654:5812   */\n      swap2\n      swap1\n      pop\n      jump\t// out\n        /* \"#utility.yul\":5884:6569   */\n    tag_273:\n        /* \"#utility.yul\":6023:6027   */\n      0x60\n        /* \"#utility.yul\":6018:6021   */\n      dup3\n        /* \"#utility.yul\":6014:6028   */\n      add\n        /* \"#utility.yul\":6112:6116   */\n      0x00\n        /* \"#utility.yul\":6105:6110   */\n      dup3\n        /* \"#utility.yul\":6101:6117   */\n      add\n        /* \"#utility.yul\":6095:6118   */\n      mload\n        /* \"#utility.yul\":6131:6194   */\n      tag_369\n        /* \"#utility.yul\":6188:6192   */\n      0x00\n        /* \"#utility.yul\":6183:6186   */\n      dup6\n        /* \"#utility.yul\":6179:6193   */\n      add\n        /* \"#utility.yul\":6165:6177   */\n      dup3\n        /* \"#utility.yul\":6131:6194   */\n      tag_269\n      jump\t// in\n    tag_369:\n        /* \"#utility.yul\":6038:6204   */\n      pop\n        /* \"#utility.yul\":6290:6294   */\n      0x20\n        /* \"#utility.yul\":6283:6288   */\n      dup3\n        /* \"#utility.yul\":6279:6295   */\n      add\n        /* \"#utility.yul\":6273:6296   */\n      mload\n        /* \"#utility.yul\":6309:6372   */\n      tag_370\n        /* \"#utility.yul\":6366:6370   */\n      0x20\n        /* \"#utility.yul\":6361:6364   */\n      dup6\n        /* \"#utility.yul\":6357:6371   */\n      add\n        /* \"#utility.yul\":6343:6355   */\n      dup3\n        /* \"#utility.yul\":6309:6372   */\n      tag_269\n      jump\t// in\n    tag_370:\n        /* \"#utility.yul\":6214:6382   */\n      pop\n        /* \"#utility.yul\":6470:6474   */\n      0x40\n        /* \"#utility.yul\":6463:6468   */\n      dup3\n        /* \"#utility.yul\":6459:6475   */\n      add\n        /* \"#utility.yul\":6453:6476   */\n      mload\n        /* \"#utility.yul\":6489:6552   */\n      tag_371\n        /* \"#utility.yul\":6546:6550   */\n      0x40\n        /* \"#utility.yul\":6541:6544   */\n      dup6\n        /* \"#utility.yul\":6537:6551   */\n      add\n        /* \"#utility.yul\":6523:6535   */\n      dup3\n        /* \"#utility.yul\":6489:6552   */\n      tag_269\n      jump\t// in\n    tag_371:\n        /* \"#utility.yul\":6392:6562   */\n      pop\n        /* \"#utility.yul\":5992:6569   */\n      pop\n        /* \"#utility.yul\":5884:6569   */\n      pop\n      pop\n      jump\t// out\n        /* \"#utility.yul\":6575:6858   */\n    tag_274:\n        /* \"#utility.yul\":6696:6706   */\n      0x00\n        /* \"#utility.yul\":6717:6815   */\n      tag_373\n        /* \"#utility.yul\":6811:6814   */\n      dup4\n        /* \"#utility.yul\":6803:6809   */\n      dup4\n        /* \"#utility.yul\":6717:6815   */\n      tag_273\n      jump\t// in\n    tag_373:\n        /* \"#utility.yul\":6847:6851   */\n      0x60\n        /* \"#utility.yul\":6842:6845   */\n      dup4\n        /* \"#utility.yul\":6838:6852   */\n      add\n        /* \"#utility.yul\":6824:6852   */\n      swap1\n      pop\n        /* \"#utility.yul\":6575:6858   */\n      swap3\n      swap2\n      pop\n      pop\n      jump\t// out\n        /* \"#utility.yul\":6864:7003   */\n    tag_275:\n        /* \"#utility.yul\":6960:6964   */\n      0x00\n        /* \"#utility.yul\":6992:6996   */\n      0x20\n        /* \"#utility.yul\":6987:6990   */\n      dup3\n        /* \"#utility.yul\":6983:6997   */\n      add\n        /* \"#utility.yul\":6975:6997   */\n      swap1\n      pop\n        /* \"#utility.yul\":6864:7003   */\n      swap2\n      swap1\n      pop\n      jump\t// out\n        /* \"#utility.yul\":7079:7999   */\n    tag_276:\n        /* \"#utility.yul\":7240:7243   */\n      0x00\n        /* \"#utility.yul\":7269:7349   */\n      tag_376\n        /* \"#utility.yul\":7343:7348   */\n      dup3\n        /* \"#utility.yul\":7269:7349   */\n      tag_270\n      jump\t// in\n    tag_376:\n        /* \"#utility.yul\":7365:7467   */\n      tag_377\n        /* \"#utility.yul\":7460:7466   */\n      dup2\n        /* \"#utility.yul\":7455:7458   */\n      dup6\n        /* \"#utility.yul\":7365:7467   */\n      tag_271\n      jump\t// in\n    tag_377:\n        /* \"#utility.yul\":7358:7467   */\n      swap4\n      pop\n        /* \"#utility.yul\":7491:7573   */\n      tag_378\n        /* \"#utility.yul\":7567:7572   */\n      dup4\n        /* \"#utility.yul\":7491:7573   */\n      tag_272\n      jump\t// in\n    tag_378:\n        /* \"#utility.yul\":7596:7603   */\n      dup1\n        /* \"#utility.yul\":7627:7628   */\n      0x00\n        /* \"#utility.yul\":7612:7974   */\n    tag_379:\n        /* \"#utility.yul\":7637:7643   */\n      dup4\n        /* \"#utility.yul\":7634:7635   */\n      dup2\n        /* \"#utility.yul\":7631:7644   */\n      lt\n        /* \"#utility.yul\":7612:7974   */\n      iszero\n      tag_381\n      jumpi\n        /* \"#utility.yul\":7713:7719   */\n      dup2\n        /* \"#utility.yul\":7707:7720   */\n      mload\n        /* \"#utility.yul\":7740:7855   */\n      tag_382\n        /* \"#utility.yul\":7851:7854   */\n      dup9\n        /* \"#utility.yul\":7836:7849   */\n      dup3\n        /* \"#utility.yul\":7740:7855   */\n      tag_274\n      jump\t// in\n    tag_382:\n        /* \"#utility.yul\":7733:7855   */\n      swap8\n      pop\n        /* \"#utility.yul\":7878:7964   */\n      tag_383\n        /* \"#utility.yul\":7957:7963   */\n      dup4\n        /* \"#utility.yul\":7878:7964   */\n      tag_275\n      jump\t// in\n    tag_383:\n        /* \"#utility.yul\":7868:7964   */\n      swap3\n      pop\n        /* \"#utility.yul\":7672:7974   */\n      pop\n        /* \"#utility.yul\":7659:7660   */\n      0x01\n        /* \"#utility.yul\":7656:7657   */\n      dup2\n        /* \"#utility.yul\":7652:7661   */\n      add\n        /* \"#utility.yul\":7647:7661   */\n      swap1\n      pop\n        /* \"#utility.yul\":7612:7974   */\n      jump(tag_379)\n    tag_381:\n        /* \"#utility.yul\":7616:7630   */\n      pop\n        /* \"#utility.yul\":7990:7993   */\n      dup6\n        /* \"#utility.yul\":7983:7993   */\n      swap4\n      pop\n        /* \"#utility.yul\":7245:7999   */\n      pop\n      pop\n      pop\n        /* \"#utility.yul\":7079:7999   */\n      swap3\n      swap2\n      pop\n      pop\n      jump\t// out\n        /* \"#utility.yul\":8075:8787   */\n    tag_277:\n        /* \"#utility.yul\":8200:8203   */\n      0x00\n        /* \"#utility.yul\":8236:8240   */\n      0x40\n        /* \"#utility.yul\":8231:8234   */\n      dup4\n        /* \"#utility.yul\":8227:8241   */\n      add\n        /* \"#utility.yul\":8331:8335   */\n      0x00\n        /* \"#utility.yul\":8324:8329   */\n      dup4\n        /* \"#utility.yul\":8320:8336   */\n      add\n        /* \"#utility.yul\":8314:8337   */\n      mload\n        /* \"#utility.yul\":8350:8413   */\n      tag_385\n        /* \"#utility.yul\":8407:8411   */\n      0x00\n        /* \"#utility.yul\":8402:8405   */\n      dup7\n        /* \"#utility.yul\":8398:8412   */\n      add\n        /* \"#utility.yul\":8384:8396   */\n      dup3\n        /* \"#utility.yul\":8350:8413   */\n      tag_269\n      jump\t// in\n    tag_385:\n        /* \"#utility.yul\":8251:8423   */\n      pop\n        /* \"#utility.yul\":8515:8519   */\n      0x20\n        /* \"#utility.yul\":8508:8513   */\n      dup4\n        /* \"#utility.yul\":8504:8520   */\n      add\n        /* \"#utility.yul\":8498:8521   */\n      mload\n        /* \"#utility.yul\":8568:8571   */\n      dup5\n        /* \"#utility.yul\":8562:8566   */\n      dup3\n        /* \"#utility.yul\":8558:8572   */\n      sub\n        /* \"#utility.yul\":8551:8555   */\n      0x20\n        /* \"#utility.yul\":8546:8549   */\n      dup7\n        /* \"#utility.yul\":8542:8556   */\n      add\n        /* \"#utility.yul\":8535:8573   */\n      mstore\n        /* \"#utility.yul\":8594:8749   */\n      tag_386\n        /* \"#utility.yul\":8744:8748   */\n      dup3\n        /* \"#utility.yul\":8730:8742   */\n      dup3\n        /* \"#utility.yul\":8594:8749   */\n      tag_276\n      jump\t// in\n    tag_386:\n        /* \"#utility.yul\":8586:8749   */\n      swap2\n      pop\n        /* \"#utility.yul\":8433:8760   */\n      pop\n        /* \"#utility.yul\":8777:8781   */\n      dup1\n        /* \"#utility.yul\":8770:8781   */\n      swap2\n      pop\n        /* \"#utility.yul\":8205:8787   */\n      pop\n        /* \"#utility.yul\":8075:8787   */\n      swap3\n      swap2\n      pop\n      pop\n      jump\t// out\n        /* \"#utility.yul\":8793:9178   */\n    tag_78:\n        /* \"#utility.yul\":8942:8946   */\n      0x00\n        /* \"#utility.yul\":8980:8982   */\n      0x20\n        /* \"#utility.yul\":8969:8978   */\n      dup3\n        /* \"#utility.yul\":8965:8983   */\n      add\n        /* \"#utility.yul\":8957:8983   */\n      swap1\n      pop\n        /* \"#utility.yul\":9029:9038   */\n      dup2\n        /* \"#utility.yul\":9023:9027   */\n      dup2\n        /* \"#utility.yul\":9019:9039   */\n      sub\n        /* \"#utility.yul\":9015:9016   */\n      0x00\n        /* \"#utility.yul\":9004:9013   */\n      dup4\n        /* \"#utility.yul\":9000:9017   */\n      add\n        /* \"#utility.yul\":8993:9040   */\n      mstore\n        /* \"#utility.yul\":9057:9171   */\n      tag_388\n        /* \"#utility.yul\":9166:9170   */\n      dup2\n        /* \"#utility.yul\":9157:9163   */\n      dup5\n        /* \"#utility.yul\":9057:9171   */\n      tag_277\n      jump\t// in\n    tag_388:\n        /* \"#utility.yul\":9049:9171   */\n      swap1\n      pop\n        /* \"#utility.yul\":8793:9178   */\n      swap3\n      swap2\n      pop\n      pop\n      jump\t// out\n        /* \"#utility.yul\":9184:9658   */\n    tag_81:\n        /* \"#utility.yul\":9252:9258   */\n      0x00\n        /* \"#utility.yul\":9260:9266   */\n      dup1\n        /* \"#utility.yul\":9309:9311   */\n      0x40\n        /* \"#utility.yul\":9297:9306   */\n      dup4\n        /* \"#utility.yul\":9288:9295   */\n      dup6\n        /* \"#utility.yul\":9284:9307   */\n      sub\n        /* \"#utility.yul\":9280:9312   */\n      slt\n        /* \"#utility.yul\":9277:9396   */\n      iszero\n      tag_390\n      jumpi\n        /* \"#utility.yul\":9315:9394   */\n      tag_391\n      tag_255\n      jump\t// in\n    tag_391:\n        /* \"#utility.yul\":9277:9396   */\n    tag_390:\n        /* \"#utility.yul\":9435:9436   */\n      0x00\n        /* \"#utility.yul\":9460:9513   */\n      tag_392\n        /* \"#utility.yul\":9505:9512   */\n      dup6\n        /* \"#utility.yul\":9496:9502   */\n      dup3\n        /* \"#utility.yul\":9485:9494   */\n      dup7\n        /* \"#utility.yul\":9481:9503   */\n      add\n        /* \"#utility.yul\":9460:9513   */\n      tag_260\n      jump\t// in\n    tag_392:\n        /* \"#utility.yul\":9450:9513   */\n      swap3\n      pop\n        /* \"#utility.yul\":9406:9523   */\n      pop\n        /* \"#utility.yul\":9562:9564   */\n      0x20\n        /* \"#utility.yul\":9588:9641   */\n      tag_393\n        /* \"#utility.yul\":9633:9640   */\n      dup6\n        /* \"#utility.yul\":9624:9630   */\n      dup3\n        /* \"#utility.yul\":9613:9622   */\n      dup7\n        /* \"#utility.yul\":9609:9631   */\n      add\n        /* \"#utility.yul\":9588:9641   */\n      tag_260\n      jump\t// in\n    tag_393:\n        /* \"#utility.yul\":9578:9641   */\n      swap2\n      pop\n        /* \"#utility.yul\":9533:9651   */\n      pop\n        /* \"#utility.yul\":9184:9658   */\n      swap3\n      pop\n      swap3\n      swap1\n      pop\n      jump\t// out\n        /* \"#utility.yul\":9664:9844   */\n    tag_278:\n        /* \"#utility.yul\":9712:9789   */\n      0x4e487b7100000000000000000000000000000000000000000000000000000000\n        /* \"#utility.yul\":9709:9710   */\n      0x00\n        /* \"#utility.yul\":9702:9790   */\n      mstore\n        /* \"#utility.yul\":9809:9813   */\n      0x22\n        /* \"#utility.yul\":9806:9807   */\n      0x04\n        /* \"#utility.yul\":9799:9814   */\n      mstore\n        /* \"#utility.yul\":9833:9837   */\n      0x24\n        /* \"#utility.yul\":9830:9831   */\n      0x00\n        /* \"#utility.yul\":9823:9838   */\n      revert\n        /* \"#utility.yul\":9850:10170   */\n    tag_86:\n        /* \"#utility.yul\":9894:9900   */\n      0x00\n        /* \"#utility.yul\":9931:9932   */\n      0x02\n        /* \"#utility.yul\":9925:9929   */\n      dup3\n        /* \"#utility.yul\":9921:9933   */\n      div\n        /* \"#utility.yul\":9911:9933   */\n      swap1\n      pop\n        /* \"#utility.yul\":9978:9979   */\n      0x01\n        /* \"#utility.yul\":9972:9976   */\n      dup3\n        /* \"#utility.yul\":9968:9980   */\n      and\n        /* \"#utility.yul\":9999:10017   */\n      dup1\n        /* \"#utility.yul\":9989:10070   */\n      tag_396\n      jumpi\n        /* \"#utility.yul\":10055:10059   */\n      0x7f\n        /* \"#utility.yul\":10047:10053   */\n      dup3\n        /* \"#utility.yul\":10043:10060   */\n      and\n        /* \"#utility.yul\":10033:10060   */\n      swap2\n      pop\n        /* \"#utility.yul\":9989:10070   */\n    tag_396:\n        /* \"#utility.yul\":10117:10119   */\n      0x20\n        /* \"#utility.yul\":10109:10115   */\n      dup3\n        /* \"#utility.yul\":10106:10120   */\n      lt\n        /* \"#utility.yul\":10086:10104   */\n      dup2\n        /* \"#utility.yul\":10083:10121   */\n      sub\n        /* \"#utility.yul\":10080:10164   */\n      tag_397\n      jumpi\n        /* \"#utility.yul\":10136:10154   */\n      tag_398\n      tag_278\n      jump\t// in\n    tag_398:\n        /* \"#utility.yul\":10080:10164   */\n    tag_397:\n        /* \"#utility.yul\":9901:10170   */\n      pop\n        /* \"#utility.yul\":9850:10170   */\n      swap2\n      swap1\n      pop\n      jump\t// out\n        /* \"#utility.yul\":10176:10344   */\n    tag_279:\n        /* \"#utility.yul\":10316:10336   */\n      0x4e6f7420456e6f75676820746f6b656e73210000000000000000000000000000\n        /* \"#utility.yul\":10312:10313   */\n      0x00\n        /* \"#utility.yul\":10304:10310   */\n      dup3\n        /* \"#utility.yul\":10300:10314   */\n      add\n        /* \"#utility.yul\":10293:10337   */\n      mstore\n        /* \"#utility.yul\":10176:10344   */\n      pop\n      jump\t// out\n        /* \"#utility.yul\":10350:10716   */\n    tag_280:\n        /* \"#utility.yul\":10492:10495   */\n      0x00\n        /* \"#utility.yul\":10513:10580   */\n      tag_401\n        /* \"#utility.yul\":10577:10579   */\n      0x12\n        /* \"#utility.yul\":10572:10575   */\n      dup4\n        /* \"#utility.yul\":10513:10580   */\n      tag_250\n      jump\t// in\n    tag_401:\n        /* \"#utility.yul\":10506:10580   */\n      swap2\n      pop\n        /* \"#utility.yul\":10589:10682   */\n      tag_402\n        /* \"#utility.yul\":10678:10681   */\n      dup3\n        /* \"#utility.yul\":10589:10682   */\n      tag_279\n      jump\t// in\n    tag_402:\n        /* \"#utility.yul\":10707:10709   */\n      0x20\n        /* \"#utility.yul\":10702:10705   */\n      dup3\n        /* \"#utility.yul\":10698:10710   */\n      add\n        /* \"#utility.yul\":10691:10710   */\n      swap1\n      pop\n        /* \"#utility.yul\":10350:10716   */\n      swap2\n      swap1\n      pop\n      jump\t// out\n        /* \"#utility.yul\":10722:11141   */\n    tag_102:\n        /* \"#utility.yul\":10888:10892   */\n      0x00\n        /* \"#utility.yul\":10926:10928   */\n      0x20\n        /* \"#utility.yul\":10915:10924   */\n      dup3\n        /* \"#utility.yul\":10911:10929   */\n      add\n        /* \"#utility.yul\":10903:10929   */\n      swap1\n      pop\n        /* \"#utility.yul\":10975:10984   */\n      dup2\n        /* \"#utility.yul\":10969:10973   */\n      dup2\n        /* \"#utility.yul\":10965:10985   */\n      sub\n        /* \"#utility.yul\":10961:10962   */\n      0x00\n        /* \"#utility.yul\":10950:10959   */\n      dup4\n        /* \"#utility.yul\":10946:10963   */\n      add\n        /* \"#utility.yul\":10939:10986   */\n      mstore\n        /* \"#utility.yul\":11003:11134   */\n      tag_404\n        /* \"#utility.yul\":11129:11133   */\n      dup2\n        /* \"#utility.yul\":11003:11134   */\n      tag_280\n      jump\t// in\n    tag_404:\n        /* \"#utility.yul\":10995:11134   */\n      swap1\n      pop\n        /* \"#utility.yul\":10722:11141   */\n      swap2\n      swap1\n      pop\n      jump\t// out\n        /* \"#utility.yul\":11147:11327   */\n    tag_108:\n        /* \"#utility.yul\":11195:11272   */\n      0x4e487b7100000000000000000000000000000000000000000000000000000000\n        /* \"#utility.yul\":11192:11193   */\n      0x00\n        /* \"#utility.yul\":11185:11273   */\n      mstore\n        /* \"#utility.yul\":11292:11296   */\n      0x32\n        /* \"#utility.yul\":11289:11290   */\n      0x04\n        /* \"#utility.yul\":11282:11297   */\n      mstore\n        /* \"#utility.yul\":11316:11320   */\n      0x24\n        /* \"#utility.yul\":11313:11314   */\n      0x00\n        /* \"#utility.yul\":11306:11321   */\n      revert\n        /* \"#utility.yul\":11333:11513   */\n    tag_281:\n        /* \"#utility.yul\":11381:11458   */\n      0x4e487b7100000000000000000000000000000000000000000000000000000000\n        /* \"#utility.yul\":11378:11379   */\n      0x00\n        /* \"#utility.yul\":11371:11459   */\n      mstore\n        /* \"#utility.yul\":11478:11482   */\n      0x11\n        /* \"#utility.yul\":11475:11476   */\n      0x04\n        /* \"#utility.yul\":11468:11483   */\n      mstore\n        /* \"#utility.yul\":11502:11506   */\n      0x24\n        /* \"#utility.yul\":11499:11500   */\n      0x00\n        /* \"#utility.yul\":11492:11507   */\n      revert\n        /* \"#utility.yul\":11519:11713   */\n    tag_119:\n        /* \"#utility.yul\":11559:11563   */\n      0x00\n        /* \"#utility.yul\":11579:11599   */\n      tag_408\n        /* \"#utility.yul\":11597:11598   */\n      dup3\n        /* \"#utility.yul\":11579:11599   */\n      tag_261\n      jump\t// in\n    tag_408:\n        /* \"#utility.yul\":11574:11599   */\n      swap2\n      pop\n        /* \"#utility.yul\":11613:11633   */\n      tag_409\n        /* \"#utility.yul\":11631:11632   */\n      dup4\n        /* \"#utility.yul\":11613:11633   */\n      tag_261\n      jump\t// in\n    tag_409:\n        /* \"#utility.yul\":11608:11633   */\n      swap3\n      pop\n        /* \"#utility.yul\":11657:11658   */\n      dup3\n        /* \"#utility.yul\":11654:11655   */\n      dup3\n        /* \"#utility.yul\":11650:11659   */\n      sub\n        /* \"#utility.yul\":11642:11659   */\n      swap1\n      pop\n        /* \"#utility.yul\":11681:11682   */\n      dup2\n        /* \"#utility.yul\":11675:11679   */\n      dup2\n        /* \"#utility.yul\":11672:11683   */\n      gt\n        /* \"#utility.yul\":11669:11706   */\n      iszero\n      tag_410\n      jumpi\n        /* \"#utility.yul\":11686:11704   */\n      tag_411\n      tag_281\n      jump\t// in\n    tag_411:\n        /* \"#utility.yul\":11669:11706   */\n    tag_410:\n        /* \"#utility.yul\":11519:11713   */\n      swap3\n      swap2\n      pop\n      pop\n      jump\t// out\n        /* \"#utility.yul\":11719:11952   */\n    tag_129:\n        /* \"#utility.yul\":11758:11761   */\n      0x00\n        /* \"#utility.yul\":11781:11805   */\n      tag_413\n        /* \"#utility.yul\":11799:11804   */\n      dup3\n        /* \"#utility.yul\":11781:11805   */\n      tag_261\n      jump\t// in\n    tag_413:\n        /* \"#utility.yul\":11772:11805   */\n      swap2\n      pop\n        /* \"#utility.yul\":11827:11893   */\n      0xffffffffffffffffffffffffffffffffffffffffffffffffffffffffffffffff\n        /* \"#utility.yul\":11820:11825   */\n      dup3\n        /* \"#utility.yul\":11817:11894   */\n      sub\n        /* \"#utility.yul\":11814:11917   */\n      tag_414\n      jumpi\n        /* \"#utility.yul\":11897:11915   */\n      tag_415\n      tag_281\n      jump\t// in\n    tag_415:\n        /* \"#utility.yul\":11814:11917   */\n    tag_414:\n        /* \"#utility.yul\":11944:11945   */\n      0x01\n        /* \"#utility.yul\":11937:11942   */\n      dup3\n        /* \"#utility.yul\":11933:11946   */\n      add\n        /* \"#utility.yul\":11926:11946   */\n      swap1\n      pop\n        /* \"#utility.yul\":11719:11952   */\n      swap2\n      swap1\n      pop\n      jump\t// out\n        /* \"#utility.yul\":11958:12149   */\n    tag_148:\n        /* \"#utility.yul\":11998:12001   */\n      0x00\n        /* \"#utility.yul\":12017:12037   */\n      tag_417\n        /* \"#utility.yul\":12035:12036   */\n      dup3\n        /* \"#utility.yul\":12017:12037   */\n      tag_261\n      jump\t// in\n    tag_417:\n        /* \"#utility.yul\":12012:12037   */\n      swap2\n      pop\n        /* \"#utility.yul\":12051:12071   */\n      tag_418\n        /* \"#utility.yul\":12069:12070   */\n      dup4\n        /* \"#utility.yul\":12051:12071   */\n      tag_261\n      jump\t// in\n    tag_418:\n        /* \"#utility.yul\":12046:12071   */\n      swap3\n      pop\n        /* \"#utility.yul\":12094:12095   */\n      dup3\n        /* \"#utility.yul\":12091:12092   */\n      dup3\n        /* \"#utility.yul\":12087:12096   */\n      add\n        /* \"#utility.yul\":12080:12096   */\n      swap1\n      pop\n        /* \"#utility.yul\":12115:12118   */\n      dup1\n        /* \"#utility.yul\":12112:12113   */\n      dup3\n        /* \"#utility.yul\":12109:12119   */\n      gt\n        /* \"#utility.yul\":12106:12142   */\n      iszero\n      tag_419\n      jumpi\n        /* \"#utility.yul\":12122:12140   */\n      tag_420\n      tag_281\n      jump\t// in\n    tag_420:\n        /* \"#utility.yul\":12106:12142   */\n    tag_419:\n        /* \"#utility.yul\":11958:12149   */\n      swap3\n      swap2\n      pop\n      pop\n      jump\t// out\n        /* \"#utility.yul\":12155:12320   */\n    tag_282:\n        /* \"#utility.yul\":12295:12312   */\n      0x4e6f7420417574686f72697a6564210000000000000000000000000000000000\n        /* \"#utility.yul\":12291:12292   */\n      0x00\n        /* \"#utility.yul\":12283:12289   */\n      dup3\n        /* \"#utility.yul\":12279:12293   */\n      add\n        /* \"#utility.yul\":12272:12313   */\n      mstore\n        /* \"#utility.yul\":12155:12320   */\n      pop\n      jump\t// out\n        /* \"#utility.yul\":12326:12692   */\n    tag_283:\n        /* \"#utility.yul\":12468:12471   */\n      0x00\n        /* \"#utility.yul\":12489:12556   */\n      tag_423\n        /* \"#utility.yul\":12553:12555   */\n      0x0f\n        /* \"#utility.yul\":12548:12551   */\n      dup4\n        /* \"#utility.yul\":12489:12556   */\n      tag_250\n      jump\t// in\n    tag_423:\n        /* \"#utility.yul\":12482:12556   */\n      swap2\n      pop\n        /* \"#utility.yul\":12565:12658   */\n      tag_424\n        /* \"#utility.yul\":12654:12657   */\n      dup3\n        /* \"#utility.yul\":12565:12658   */\n      tag_282\n      jump\t// in\n    tag_424:\n        /* \"#utility.yul\":12683:12685   */\n      0x20\n        /* \"#utility.yul\":12678:12681   */\n      dup3\n        /* \"#utility.yul\":12674:12686   */\n      add\n        /* \"#utility.yul\":12667:12686   */\n      swap1\n      pop\n        /* \"#utility.yul\":12326:12692   */\n      swap2\n      swap1\n      pop\n      jump\t// out\n        /* \"#utility.yul\":12698:13117   */\n    tag_166:\n        /* \"#utility.yul\":12864:12868   */\n      0x00\n        /* \"#utility.yul\":12902:12904   */\n      0x20\n        /* \"#utility.yul\":12891:12900   */\n      dup3\n        /* \"#utility.yul\":12887:12905   */\n      add\n        /* \"#utility.yul\":12879:12905   */\n      swap1\n      pop\n        /* \"#utility.yul\":12951:12960   */\n      dup2\n        /* \"#utility.yul\":12945:12949   */\n      dup2\n        /* \"#utility.yul\":12941:12961   */\n      sub\n        /* \"#utility.yul\":12937:12938   */\n      0x00\n        /* \"#utility.yul\":12926:12935   */\n      dup4\n        /* \"#utility.yul\":12922:12939   */\n      add\n        /* \"#utility.yul\":12915:12962   */\n      mstore\n        /* \"#utility.yul\":12979:13110   */\n      tag_426\n        /* \"#utility.yul\":13105:13109   */\n      dup2\n        /* \"#utility.yul\":12979:13110   */\n      tag_283\n      jump\t// in\n    tag_426:\n        /* \"#utility.yul\":12971:13110   */\n      swap1\n      pop\n        /* \"#utility.yul\":12698:13117   */\n      swap2\n      swap1\n      pop\n      jump\t// out\n        /* \"#utility.yul\":13123:13347   */\n    tag_284:\n        /* \"#utility.yul\":13263:13297   */\n      0x45524332303a2064656372656173656420616c6c6f77616e63652062656c6f77\n        /* \"#utility.yul\":13259:13260   */\n      0x00\n        /* \"#utility.yul\":13251:13257   */\n      dup3\n        /* \"#utility.yul\":13247:13261   */\n      add\n        /* \"#utility.yul\":13240:13298   */\n      mstore\n        /* \"#utility.yul\":13332:13339   */\n      0x207a65726f000000000000000000000000000000000000000000000000000000\n        /* \"#utility.yul\":13327:13329   */\n      0x20\n        /* \"#utility.yul\":13319:13325   */\n      dup3\n        /* \"#utility.yul\":13315:13330   */\n      add\n        /* \"#utility.yul\":13308:13340   */\n      mstore\n        /* \"#utility.yul\":13123:13347   */\n      pop\n      jump\t// out\n        /* \"#utility.yul\":13353:13719   */\n    tag_285:\n        /* \"#utility.yul\":13495:13498   */\n      0x00\n        /* \"#utility.yul\":13516:13583   */\n      tag_429\n        /* \"#utility.yul\":13580:13582   */\n      0x25\n        /* \"#utility.yul\":13575:13578   */\n      dup4\n        /* \"#utility.yul\":13516:13583   */\n      tag_250\n      jump\t// in\n    tag_429:\n        /* \"#utility.yul\":13509:13583   */\n      swap2\n      pop\n        /* \"#utility.yul\":13592:13685   */\n      tag_430\n        /* \"#utility.yul\":13681:13684   */\n      dup3\n        /* \"#utility.yul\":13592:13685   */\n      tag_284\n      jump\t// in\n    tag_430:\n        /* \"#utility.yul\":13710:13712   */\n      0x40\n        /* \"#utility.yul\":13705:13708   */\n      dup3\n        /* \"#utility.yul\":13701:13713   */\n      add\n        /* \"#utility.yul\":13694:13713   */\n      swap1\n      pop\n        /* \"#utility.yul\":13353:13719   */\n      swap2\n      swap1\n      pop\n      jump\t// out\n        /* \"#utility.yul\":13725:14144   */\n    tag_193:\n        /* \"#utility.yul\":13891:13895   */\n      0x00\n        /* \"#utility.yul\":13929:13931   */\n      0x20\n        /* \"#utility.yul\":13918:13927   */\n      dup3\n        /* \"#utility.yul\":13914:13932   */\n      add\n        /* \"#utility.yul\":13906:13932   */\n      swap1\n      pop\n        /* \"#utility.yul\":13978:13987   */\n      dup2\n        /* \"#utility.yul\":13972:13976   */\n      dup2\n        /* \"#utility.yul\":13968:13988   */\n      sub\n        /* \"#utility.yul\":13964:13965   */\n      0x00\n        /* \"#utility.yul\":13953:13962   */\n      dup4\n        /* \"#utility.yul\":13949:13966   */\n      add\n        /* \"#utility.yul\":13942:13989   */\n      mstore\n        /* \"#utility.yul\":14006:14137   */\n      tag_432\n        /* \"#utility.yul\":14132:14136   */\n      dup2\n        /* \"#utility.yul\":14006:14137   */\n      tag_285\n      jump\t// in\n    tag_432:\n        /* \"#utility.yul\":13998:14137   */\n      swap1\n      pop\n        /* \"#utility.yul\":13725:14144   */\n      swap2\n      swap1\n      pop\n      jump\t// out\n        /* \"#utility.yul\":14150:14373   */\n    tag_286:\n        /* \"#utility.yul\":14290:14324   */\n      0x45524332303a20617070726f76652066726f6d20746865207a65726f20616464\n        /* \"#utility.yul\":14286:14287   */\n      0x00\n        /* \"#utility.yul\":14278:14284   */\n      dup3\n        /* \"#utility.yul\":14274:14288   */\n      add\n        /* \"#utility.yul\":14267:14325   */\n      mstore\n        /* \"#utility.yul\":14359:14365   */\n      0x7265737300000000000000000000000000000000000000000000000000000000\n        /* \"#utility.yul\":14354:14356   */\n      0x20\n        /* \"#utility.yul\":14346:14352   */\n      dup3\n        /* \"#utility.yul\":14342:14357   */\n      add\n        /* \"#utility.yul\":14335:14366   */\n      mstore\n        /* \"#utility.yul\":14150:14373   */\n      pop\n      jump\t// out\n        /* \"#utility.yul\":14379:14745   */\n    tag_287:\n        /* \"#utility.yul\":14521:14524   */\n      0x00\n        /* \"#utility.yul\":14542:14609   */\n      tag_435\n        /* \"#utility.yul\":14606:14608   */\n      0x24\n        /* \"#utility.yul\":14601:14604   */\n      dup4\n        /* \"#utility.yul\":14542:14609   */\n      tag_250\n      jump\t// in\n    tag_435:\n        /* \"#utility.yul\":14535:14609   */\n      swap2\n      pop\n        /* \"#utility.yul\":14618:14711   */\n      tag_436\n        /* \"#utility.yul\":14707:14710   */\n      dup3\n        /* \"#utility.yul\":14618:14711   */\n      tag_286\n      jump\t// in\n    tag_436:\n        /* \"#utility.yul\":14736:14738   */\n      0x40\n        /* \"#utility.yul\":14731:14734   */\n      dup3\n        /* \"#utility.yul\":14727:14739   */\n      add\n        /* \"#utility.yul\":14720:14739   */\n      swap1\n      pop\n        /* \"#utility.yul\":14379:14745   */\n      swap2\n      swap1\n      pop\n      jump\t// out\n        /* \"#utility.yul\":14751:15170   */\n    tag_209:\n        /* \"#utility.yul\":14917:14921   */\n      0x00\n        /* \"#utility.yul\":14955:14957   */\n      0x20\n        /* \"#utility.yul\":14944:14953   */\n      dup3\n        /* \"#utility.yul\":14940:14958   */\n      add\n        /* \"#utility.yul\":14932:14958   */\n      swap1\n      pop\n        /* \"#utility.yul\":15004:15013   */\n      dup2\n        /* \"#utility.yul\":14998:15002   */\n      dup2\n        /* \"#utility.yul\":14994:15014   */\n      sub\n        /* \"#utility.yul\":14990:14991   */\n      0x00\n        /* \"#utility.yul\":14979:14988   */\n      dup4\n        /* \"#utility.yul\":14975:14992   */\n      add\n        /* \"#utility.yul\":14968:15015   */\n      mstore\n        /* \"#utility.yul\":15032:15163   */\n      tag_438\n        /* \"#utility.yul\":15158:15162   */\n      dup2\n        /* \"#utility.yul\":15032:15163   */\n      tag_287\n      jump\t// in\n    tag_438:\n        /* \"#utility.yul\":15024:15163   */\n      swap1\n      pop\n        /* \"#utility.yul\":14751:15170   */\n      swap2\n      swap1\n      pop\n      jump\t// out\n        /* \"#utility.yul\":15176:15397   */\n    tag_288:\n        /* \"#utility.yul\":15316:15350   */\n      0x45524332303a20617070726f766520746f20746865207a65726f206164647265\n        /* \"#utility.yul\":15312:15313   */\n      0x00\n        /* \"#utility.yul\":15304:15310   */\n      dup3\n        /* \"#utility.yul\":15300:15314   */\n      add\n        /* \"#utility.yul\":15293:15351   */\n      mstore\n        /* \"#utility.yul\":15385:15389   */\n      0x7373000000000000000000000000000000000000000000000000000000000000\n        /* \"#utility.yul\":15380:15382   */\n      0x20\n        /* \"#utility.yul\":15372:15378   */\n      dup3\n        /* \"#utility.yul\":15368:15383   */\n      add\n        /* \"#utility.yul\":15361:15390   */\n      mstore\n        /* \"#utility.yul\":15176:15397   */\n      pop\n      jump\t// out\n        /* \"#utility.yul\":15403:15769   */\n    tag_289:\n        /* \"#utility.yul\":15545:15548   */\n      0x00\n        /* \"#utility.yul\":15566:15633   */\n      tag_441\n        /* \"#utility.yul\":15630:15632   */\n      0x22\n        /* \"#utility.yul\":15625:15628   */\n      dup4\n        /* \"#utility.yul\":15566:15633   */\n      tag_250\n      jump\t// in\n    tag_441:\n        /* \"#utility.yul\":15559:15633   */\n      swap2\n      pop\n        /* \"#utility.yul\":15642:15735   */\n      tag_442\n        /* \"#utility.yul\":15731:15734   */\n      dup3\n        /* \"#utility.yul\":15642:15735   */\n      tag_288\n      jump\t// in\n    tag_442:\n        /* \"#utility.yul\":15760:15762   */\n      0x40\n        /* \"#utility.yul\":15755:15758   */\n      dup3\n        /* \"#utility.yul\":15751:15763   */\n      add\n        /* \"#utility.yul\":15744:15763   */\n      swap1\n      pop\n        /* \"#utility.yul\":15403:15769   */\n      swap2\n      swap1\n      pop\n      jump\t// out\n        /* \"#utility.yul\":15775:16194   */\n    tag_212:\n        /* \"#utility.yul\":15941:15945   */\n      0x00\n        /* \"#utility.yul\":15979:15981   */\n      0x20\n        /* \"#utility.yul\":15968:15977   */\n      dup3\n        /* \"#utility.yul\":15964:15982   */\n      add\n        /* \"#utility.yul\":15956:15982   */\n      swap1\n      pop\n        /* \"#utility.yul\":16028:16037   */\n      dup2\n        /* \"#utility.yul\":16022:16026   */\n      dup2\n        /* \"#utility.yul\":16018:16038   */\n      sub\n        /* \"#utility.yul\":16014:16015   */\n      0x00\n        /* \"#utility.yul\":16003:16012   */\n      dup4\n        /* \"#utility.yul\":15999:16016   */\n      add\n        /* \"#utility.yul\":15992:16039   */\n      mstore\n        /* \"#utility.yul\":16056:16187   */\n      tag_444\n        /* \"#utility.yul\":16182:16186   */\n      dup2\n        /* \"#utility.yul\":16056:16187   */\n      tag_289\n      jump\t// in\n    tag_444:\n        /* \"#utility.yul\":16048:16187   */\n      swap1\n      pop\n        /* \"#utility.yul\":15775:16194   */\n      swap2\n      swap1\n      pop\n      jump\t// out\n        /* \"#utility.yul\":16200:16424   */\n    tag_290:\n        /* \"#utility.yul\":16340:16374   */\n      0x45524332303a207472616e736665722066726f6d20746865207a65726f206164\n        /* \"#utility.yul\":16336:16337   */\n      0x00\n        /* \"#utility.yul\":16328:16334   */\n      dup3\n        /* \"#utility.yul\":16324:16338   */\n      add\n        /* \"#utility.yul\":16317:16375   */\n      mstore\n        /* \"#utility.yul\":16409:16416   */\n      0x6472657373000000000000000000000000000000000000000000000000000000\n        /* \"#utility.yul\":16404:16406   */\n      0x20\n        /* \"#utility.yul\":16396:16402   */\n      dup3\n        /* \"#utility.yul\":16392:16407   */\n      add\n        /* \"#utility.yul\":16385:16417   */\n      mstore\n        /* \"#utility.yul\":16200:16424   */\n      pop\n      jump\t// out\n        /* \"#utility.yul\":16430:16796   */\n    tag_291:\n        /* \"#utility.yul\":16572:16575   */\n      0x00\n        /* \"#utility.yul\":16593:16660   */\n      tag_447\n        /* \"#utility.yul\":16657:16659   */\n      0x25\n        /* \"#utility.yul\":16652:16655   */\n      dup4\n        /* \"#utility.yul\":16593:16660   */\n      tag_250\n      jump\t// in\n    tag_447:\n        /* \"#utility.yul\":16586:16660   */\n      swap2\n      pop\n        /* \"#utility.yul\":16669:16762   */\n      tag_448\n        /* \"#utility.yul\":16758:16761   */\n      dup3\n        /* \"#utility.yul\":16669:16762   */\n      tag_290\n      jump\t// in\n    tag_448:\n        /* \"#utility.yul\":16787:16789   */\n      0x40\n        /* \"#utility.yul\":16782:16785   */\n      dup3\n        /* \"#utility.yul\":16778:16790   */\n      add\n        /* \"#utility.yul\":16771:16790   */\n      swap1\n      pop\n        /* \"#utility.yul\":16430:16796   */\n      swap2\n      swap1\n      pop\n      jump\t// out\n        /* \"#utility.yul\":16802:17221   */\n    tag_217:\n        /* \"#utility.yul\":16968:16972   */\n      0x00\n        /* \"#utility.yul\":17006:17008   */\n      0x20\n        /* \"#utility.yul\":16995:17004   */\n      dup3\n        /* \"#utility.yul\":16991:17009   */\n      add\n        /* \"#utility.yul\":16983:17009   */\n      swap1\n      pop\n        /* \"#utility.yul\":17055:17064   */\n      dup2\n        /* \"#utility.yul\":17049:17053   */\n      dup2\n        /* \"#utility.yul\":17045:17065   */\n      sub\n        /* \"#utility.yul\":17041:17042   */\n      0x00\n        /* \"#utility.yul\":17030:17039   */\n      dup4\n        /* \"#utility.yul\":17026:17043   */\n      add\n        /* \"#utility.yul\":17019:17066   */\n      mstore\n        /* \"#utility.yul\":17083:17214   */\n      tag_450\n        /* \"#utility.yul\":17209:17213   */\n      dup2\n        /* \"#utility.yul\":17083:17214   */\n      tag_291\n      jump\t// in\n    tag_450:\n        /* \"#utility.yul\":17075:17214   */\n      swap1\n      pop\n        /* \"#utility.yul\":16802:17221   */\n      swap2\n      swap1\n      pop\n      jump\t// out\n        /* \"#utility.yul\":17227:17449   */\n    tag_292:\n        /* \"#utility.yul\":17367:17401   */\n      0x45524332303a207472616e7366657220746f20746865207a65726f2061646472\n        /* \"#utility.yul\":17363:17364   */\n      0x00\n        /* \"#utility.yul\":17355:17361   */\n      dup3\n        /* \"#utility.yul\":17351:17365   */\n      add\n        /* \"#utility.yul\":17344:17402   */\n      mstore\n        /* \"#utility.yul\":17436:17441   */\n      0x6573730000000000000000000000000000000000000000000000000000000000\n        /* \"#utility.yul\":17431:17433   */\n      0x20\n        /* \"#utility.yul\":17423:17429   */\n      dup3\n        /* \"#utility.yul\":17419:17434   */\n      add\n        /* \"#utility.yul\":17412:17442   */\n      mstore\n        /* \"#utility.yul\":17227:17449   */\n      pop\n      jump\t// out\n        /* \"#utility.yul\":17455:17821   */\n    tag_293:\n        /* \"#utility.yul\":17597:17600   */\n      0x00\n        /* \"#utility.yul\":17618:17685   */\n      tag_453\n        /* \"#utility.yul\":17682:17684   */\n      0x23\n        /* \"#utility.yul\":17677:17680   */\n      dup4\n        /* \"#utility.yul\":17618:17685   */\n      tag_250\n      jump\t// in\n    tag_453:\n        /* \"#utility.yul\":17611:17685   */\n      swap2\n      pop\n        /* \"#utility.yul\":17694:17787   */\n      tag_454\n        /* \"#utility.yul\":17783:17786   */\n      dup3\n        /* \"#utility.yul\":17694:17787   */\n      tag_292\n      jump\t// in\n    tag_454:\n        /* \"#utility.yul\":17812:17814   */\n      0x40\n        /* \"#utility.yul\":17807:17810   */\n      dup3\n        /* \"#utility.yul\":17803:17815   */\n      add\n        /* \"#utility.yul\":17796:17815   */\n      swap1\n      pop\n        /* \"#utility.yul\":17455:17821   */\n      swap2\n      swap1\n      pop\n      jump\t// out\n        /* \"#utility.yul\":17827:18246   */\n    tag_220:\n        /* \"#utility.yul\":17993:17997   */\n      0x00\n        /* \"#utility.yul\":18031:18033   */\n      0x20\n        /* \"#utility.yul\":18020:18029   */\n      dup3\n        /* \"#utility.yul\":18016:18034   */\n      add\n        /* \"#utility.yul\":18008:18034   */\n      swap1\n      pop\n        /* \"#utility.yul\":18080:18089   */\n      dup2\n        /* \"#utility.yul\":18074:18078   */\n      dup2\n        /* \"#utility.yul\":18070:18090   */\n      sub\n        /* \"#utility.yul\":18066:18067   */\n      0x00\n        /* \"#utility.yul\":18055:18064   */\n      dup4\n        /* \"#utility.yul\":18051:18068   */\n      add\n        /* \"#utility.yul\":18044:18091   */\n      mstore\n        /* \"#utility.yul\":18108:18239   */\n      tag_456\n        /* \"#utility.yul\":18234:18238   */\n      dup2\n        /* \"#utility.yul\":18108:18239   */\n      tag_293\n      jump\t// in\n    tag_456:\n        /* \"#utility.yul\":18100:18239   */\n      swap1\n      pop\n        /* \"#utility.yul\":17827:18246   */\n      swap2\n      swap1\n      pop\n      jump\t// out\n        /* \"#utility.yul\":18252:18477   */\n    tag_294:\n        /* \"#utility.yul\":18392:18426   */\n      0x45524332303a207472616e7366657220616d6f756e7420657863656564732062\n        /* \"#utility.yul\":18388:18389   */\n      0x00\n        /* \"#utility.yul\":18380:18386   */\n      dup3\n        /* \"#utility.yul\":18376:18390   */\n      add\n        /* \"#utility.yul\":18369:18427   */\n      mstore\n        /* \"#utility.yul\":18461:18469   */\n      0x616c616e63650000000000000000000000000000000000000000000000000000\n        /* \"#utility.yul\":18456:18458   */\n      0x20\n        /* \"#utility.yul\":18448:18454   */\n      dup3\n        /* \"#utility.yul\":18444:18459   */\n      add\n        /* \"#utility.yul\":18437:18470   */\n      mstore\n        /* \"#utility.yul\":18252:18477   */\n      pop\n      jump\t// out\n        /* \"#utility.yul\":18483:18849   */\n    tag_295:\n        /* \"#utility.yul\":18625:18628   */\n      0x00\n        /* \"#utility.yul\":18646:18713   */\n      tag_459\n        /* \"#utility.yul\":18710:18712   */\n      0x26\n        /* \"#utility.yul\":18705:18708   */\n      dup4\n        /* \"#utility.yul\":18646:18713   */\n      tag_250\n      jump\t// in\n    tag_459:\n        /* \"#utility.yul\":18639:18713   */\n      swap2\n      pop\n        /* \"#utility.yul\":18722:18815   */\n      tag_460\n        /* \"#utility.yul\":18811:18814   */\n      dup3\n        /* \"#utility.yul\":18722:18815   */\n      tag_294\n      jump\t// in\n    tag_460:\n        /* \"#utility.yul\":18840:18842   */\n      0x40\n        /* \"#utility.yul\":18835:18838   */\n      dup3\n        /* \"#utility.yul\":18831:18843   */\n      add\n        /* \"#utility.yul\":18824:18843   */\n      swap1\n      pop\n        /* \"#utility.yul\":18483:18849   */\n      swap2\n      swap1\n      pop\n      jump\t// out\n        /* \"#utility.yul\":18855:19274   */\n    tag_225:\n        /* \"#utility.yul\":19021:19025   */\n      0x00\n        /* \"#utility.yul\":19059:19061   */\n      0x20\n        /* \"#utility.yul\":19048:19057   */\n      dup3\n        /* \"#utility.yul\":19044:19062   */\n      add\n        /* \"#utility.yul\":19036:19062   */\n      swap1\n      pop\n        /* \"#utility.yul\":19108:19117   */\n      dup2\n        /* \"#utility.yul\":19102:19106   */\n      dup2\n        /* \"#utility.yul\":19098:19118   */\n      sub\n        /* \"#utility.yul\":19094:19095   */\n      0x00\n        /* \"#utility.yul\":19083:19092   */\n      dup4\n        /* \"#utility.yul\":19079:19096   */\n      add\n        /* \"#utility.yul\":19072:19119   */\n      mstore\n        /* \"#utility.yul\":19136:19267   */\n      tag_462\n        /* \"#utility.yul\":19262:19266   */\n      dup2\n        /* \"#utility.yul\":19136:19267   */\n      tag_295\n      jump\t// in\n    tag_462:\n        /* \"#utility.yul\":19128:19267   */\n      swap1\n      pop\n        /* \"#utility.yul\":18855:19274   */\n      swap2\n      swap1\n      pop\n      jump\t// out\n        /* \"#utility.yul\":19280:19500   */\n    tag_296:\n        /* \"#utility.yul\":19420:19454   */\n      0x45524332303a206275726e2066726f6d20746865207a65726f20616464726573\n        /* \"#utility.yul\":19416:19417   */\n      0x00\n        /* \"#utility.yul\":19408:19414   */\n      dup3\n        /* \"#utility.yul\":19404:19418   */\n      add\n        /* \"#utility.yul\":19397:19455   */\n      mstore\n        /* \"#utility.yul\":19489:19492   */\n      0x7300000000000000000000000000000000000000000000000000000000000000\n        /* \"#utility.yul\":19484:19486   */\n      0x20\n        /* \"#utility.yul\":19476:19482   */\n      dup3\n        /* \"#utility.yul\":19472:19487   */\n      add\n        /* \"#utility.yul\":19465:19493   */\n      mstore\n        /* \"#utility.yul\":19280:19500   */\n      pop\n      jump\t// out\n        /* \"#utility.yul\":19506:19872   */\n    tag_297:\n        /* \"#utility.yul\":19648:19651   */\n      0x00\n        /* \"#utility.yul\":19669:19736   */\n      tag_465\n        /* \"#utility.yul\":19733:19735   */\n      0x21\n        /* \"#utility.yul\":19728:19731   */\n      dup4\n        /* \"#utility.yul\":19669:19736   */\n      tag_250\n      jump\t// in\n    tag_465:\n        /* \"#utility.yul\":19662:19736   */\n      swap2\n      pop\n        /* \"#utility.yul\":19745:19838   */\n      tag_466\n        /* \"#utility.yul\":19834:19837   */\n      dup3\n        /* \"#utility.yul\":19745:19838   */\n      tag_296\n      jump\t// in\n    tag_466:\n        /* \"#utility.yul\":19863:19865   */\n      0x40\n        /* \"#utility.yul\":19858:19861   */\n      dup3\n        /* \"#utility.yul\":19854:19866   */\n      add\n        /* \"#utility.yul\":19847:19866   */\n      swap1\n      pop\n        /* \"#utility.yul\":19506:19872   */\n      swap2\n      swap1\n      pop\n      jump\t// out\n        /* \"#utility.yul\":19878:20297   */\n    tag_232:\n        /* \"#utility.yul\":20044:20048   */\n      0x00\n        /* \"#utility.yul\":20082:20084   */\n      0x20\n        /* \"#utility.yul\":20071:20080   */\n      dup3\n        /* \"#utility.yul\":20067:20085   */\n      add\n        /* \"#utility.yul\":20059:20085   */\n      swap1\n      pop\n        /* \"#utility.yul\":20131:20140   */\n      dup2\n        /* \"#utility.yul\":20125:20129   */\n      dup2\n        /* \"#utility.yul\":20121:20141   */\n      sub\n        /* \"#utility.yul\":20117:20118   */\n      0x00\n        /* \"#utility.yul\":20106:20115   */\n      dup4\n        /* \"#utility.yul\":20102:20119   */\n      add\n        /* \"#utility.yul\":20095:20142   */\n      mstore\n        /* \"#utility.yul\":20159:20290   */\n      tag_468\n        /* \"#utility.yul\":20285:20289   */\n      dup2\n        /* \"#utility.yul\":20159:20290   */\n      tag_297\n      jump\t// in\n    tag_468:\n        /* \"#utility.yul\":20151:20290   */\n      swap1\n      pop\n        /* \"#utility.yul\":19878:20297   */\n      swap2\n      swap1\n      pop\n      jump\t// out\n        /* \"#utility.yul\":20303:20524   */\n    tag_298:\n        /* \"#utility.yul\":20443:20477   */\n      0x45524332303a206275726e20616d6f756e7420657863656564732062616c616e\n        /* \"#utility.yul\":20439:20440   */\n      0x00\n        /* \"#utility.yul\":20431:20437   */\n      dup3\n        /* \"#utility.yul\":20427:20441   */\n      add\n        /* \"#utility.yul\":20420:20478   */\n      mstore\n        /* \"#utility.yul\":20512:20516   */\n      0x6365000000000000000000000000000000000000000000000000000000000000\n        /* \"#utility.yul\":20507:20509   */\n      0x20\n        /* \"#utility.yul\":20499:20505   */\n      dup3\n        /* \"#utility.yul\":20495:20510   */\n      add\n        /* \"#utility.yul\":20488:20517   */\n      mstore\n        /* \"#utility.yul\":20303:20524   */\n      pop\n      jump\t// out\n        /* \"#utility.yul\":20530:20896   */\n    tag_299:\n        /* \"#utility.yul\":20672:20675   */\n      0x00\n        /* \"#utility.yul\":20693:20760   */\n      tag_471\n        /* \"#utility.yul\":20757:20759   */\n      0x22\n        /* \"#utility.yul\":20752:20755   */\n      dup4\n        /* \"#utility.yul\":20693:20760   */\n      tag_250\n      jump\t// in\n    tag_471:\n        /* \"#utility.yul\":20686:20760   */\n      swap2\n      pop\n        /* \"#utility.yul\":20769:20862   */\n      tag_472\n        /* \"#utility.yul\":20858:20861   */\n      dup3\n        /* \"#utility.yul\":20769:20862   */\n      tag_298\n      jump\t// in\n    tag_472:\n        /* \"#utility.yul\":20887:20889   */\n      0x40\n        /* \"#utility.yul\":20882:20885   */\n      dup3\n        /* \"#utility.yul\":20878:20890   */\n      add\n        /* \"#utility.yul\":20871:20890   */\n      swap1\n      pop\n        /* \"#utility.yul\":20530:20896   */\n      swap2\n      swap1\n      pop\n      jump\t// out\n        /* \"#utility.yul\":20902:21321   */\n    tag_236:\n        /* \"#utility.yul\":21068:21072   */\n      0x00\n        /* \"#utility.yul\":21106:21108   */\n      0x20\n        /* \"#utility.yul\":21095:21104   */\n      dup3\n        /* \"#utility.yul\":21091:21109   */\n      add\n        /* \"#utility.yul\":21083:21109   */\n      swap1\n      pop\n        /* \"#utility.yul\":21155:21164   */\n      dup2\n        /* \"#utility.yul\":21149:21153   */\n      dup2\n        /* \"#utility.yul\":21145:21165   */\n      sub\n        /* \"#utility.yul\":21141:21142   */\n      0x00\n        /* \"#utility.yul\":21130:21139   */\n      dup4\n        /* \"#utility.yul\":21126:21143   */\n      add\n        /* \"#utility.yul\":21119:21166   */\n      mstore\n        /* \"#utility.yul\":21183:21314   */\n      tag_474\n        /* \"#utility.yul\":21309:21313   */\n      dup2\n        /* \"#utility.yul\":21183:21314   */\n      tag_299\n      jump\t// in\n    tag_474:\n        /* \"#utility.yul\":21175:21314   */\n      swap1\n      pop\n        /* \"#utility.yul\":20902:21321   */\n      swap2\n      swap1\n      pop\n      jump\t// out\n        /* \"#utility.yul\":21327:21508   */\n    tag_300:\n        /* \"#utility.yul\":21467:21500   */\n      0x45524332303a206d696e7420746f20746865207a65726f206164647265737300\n        /* \"#utility.yul\":21463:21464   */\n      0x00\n        /* \"#utility.yul\":21455:21461   */\n      dup3\n        /* \"#utility.yul\":21451:21465   */\n      add\n        /* \"#utility.yul\":21444:21501   */\n      mstore\n        /* \"#utility.yul\":21327:21508   */\n      pop\n      jump\t// out\n        /* \"#utility.yul\":21514:21880   */\n    tag_301:\n        /* \"#utility.yul\":21656:21659   */\n      0x00\n        /* \"#utility.yul\":21677:21744   */\n      tag_477\n        /* \"#utility.yul\":21741:21743   */\n      0x1f\n        /* \"#utility.yul\":21736:21739   */\n      dup4\n        /* \"#utility.yul\":21677:21744   */\n      tag_250\n      jump\t// in\n    tag_477:\n        /* \"#utility.yul\":21670:21744   */\n      swap2\n      pop\n        /* \"#utility.yul\":21753:21846   */\n      tag_478\n        /* \"#utility.yul\":21842:21845   */\n      dup3\n        /* \"#utility.yul\":21753:21846   */\n      tag_300\n      jump\t// in\n    tag_478:\n        /* \"#utility.yul\":21871:21873   */\n      0x20\n        /* \"#utility.yul\":21866:21869   */\n      dup3\n        /* \"#utility.yul\":21862:21874   */\n      add\n        /* \"#utility.yul\":21855:21874   */\n      swap1\n      pop\n        /* \"#utility.yul\":21514:21880   */\n      swap2\n      swap1\n      pop\n      jump\t// out\n        /* \"#utility.yul\":21886:22305   */\n    tag_242:\n        /* \"#utility.yul\":22052:22056   */\n      0x00\n        /* \"#utility.yul\":22090:22092   */\n      0x20\n        /* \"#utility.yul\":22079:22088   */\n      dup3\n        /* \"#utility.yul\":22075:22093   */\n      add\n        /* \"#utility.yul\":22067:22093   */\n      swap1\n      pop\n        /* \"#utility.yul\":22139:22148   */\n      dup2\n        /* \"#utility.yul\":22133:22137   */\n      dup2\n        /* \"#utility.yul\":22129:22149   */\n      sub\n        /* \"#utility.yul\":22125:22126   */\n      0x00\n        /* \"#utility.yul\":22114:22123   */\n      dup4\n        /* \"#utility.yul\":22110:22127   */\n      add\n        /* \"#utility.yul\":22103:22150   */\n      mstore\n        /* \"#utility.yul\":22167:22298   */\n      tag_480\n        /* \"#utility.yul\":22293:22297   */\n      dup2\n        /* \"#utility.yul\":22167:22298   */\n      tag_301\n      jump\t// in\n    tag_480:\n        /* \"#utility.yul\":22159:22298   */\n      swap1\n      pop\n        /* \"#utility.yul\":21886:22305   */\n      swap2\n      swap1\n      pop\n      jump\t// out\n\n    auxdata: 0xa264697066735822122029f22a8b56d00ed0a3a79deb8fa33eed23878da4ccc1eb98d9f5d94a03f2132d64736f6c63430008120033\n}\n",
				"bytecode": {
					"linkReferences": {},
					"object": "608060405260006007553480156200001657600080fd5b506040518060400160405280600981526020017f5375706572436f696e00000000000000000000000000000000000000000000008152506040518060400160405280600381526020017f535043000000000000000000000000000000000000000000000000000000000081525081600390816200009491906200036a565b508060049081620000a691906200036a565b50505033600860006101000a81548173ffffffffffffffffffffffffffffffffffffffff021916908373ffffffffffffffffffffffffffffffffffffffff16021790555062000451565b600081519050919050565b7f4e487b7100000000000000000000000000000000000000000000000000000000600052604160045260246000fd5b7f4e487b7100000000000000000000000000000000000000000000000000000000600052602260045260246000fd5b600060028204905060018216806200017257607f821691505b6020821081036200018857620001876200012a565b5b50919050565b60008190508160005260206000209050919050565b60006020601f8301049050919050565b600082821b905092915050565b600060088302620001f27fffffffffffffffffffffffffffffffffffffffffffffffffffffffffffffffff82620001b3565b620001fe8683620001b3565b95508019841693508086168417925050509392505050565b6000819050919050565b6000819050919050565b60006200024b620002456200023f8462000216565b62000220565b62000216565b9050919050565b6000819050919050565b62000267836200022a565b6200027f620002768262000252565b848454620001c0565b825550505050565b600090565b6200029662000287565b620002a38184846200025c565b505050565b5b81811015620002cb57620002bf6000826200028c565b600181019050620002a9565b5050565b601f8211156200031a57620002e4816200018e565b620002ef84620001a3565b81016020851015620002ff578190505b620003176200030e85620001a3565b830182620002a8565b50505b505050565b600082821c905092915050565b60006200033f600019846008026200031f565b1980831691505092915050565b60006200035a83836200032c565b9150826002028217905092915050565b6200037582620000f0565b67ffffffffffffffff811115620003915762000390620000fb565b5b6200039d825462000159565b620003aa828285620002cf565b600060209050601f831160018114620003e25760008415620003cd578287015190505b620003d985826200034c565b86555062000449565b601f198416620003f2866200018e565b60005b828110156200041c57848901518255600182019150602085019450602081019050620003f5565b868310156200043c578489015162000438601f8916826200032c565b8355505b6001600288020188555050505b505050505050565b61255d80620004616000396000f3fe608060405234801561001057600080fd5b50600436106100f55760003560e01c80633950935111610097578063a457c2d711610066578063a457c2d71461029a578063a9059cbb146102ca578063bbe6331b146102fa578063dd62ed3e1461032a576100f5565b8063395093511461020057806340c10f191461023057806370a082311461024c57806395d89b411461027c576100f5565b80632312db25116100d35780632312db251461016657806323b872dd1461019657806329db5884146101c6578063313ce567146101e2576100f5565b806306fdde03146100fa578063095ea7b31461011857806318160ddd14610148575b600080fd5b61010261035a565b60405161010f9190611a34565b60405180910390f35b610132600480360381019061012d9190611aef565b6103ec565b60405161013f9190611b4a565b60405180910390f35b61015061040f565b60405161015d9190611b74565b60405180910390f35b610180600480360381019061017b9190611b8f565b610419565b60405161018d9190611b74565b60405180910390f35b6101b060048036038101906101ab9190611bbc565b610465565b6040516101bd9190611b4a565b60405180910390f35b6101e060048036038101906101db9190611b8f565b6107a9565b005b6101ea610a4b565b6040516101f79190611c2b565b60405180910390f35b61021a60048036038101906102159190611aef565b610a54565b6040516102279190611b4a565b60405180910390f35b61024a60048036038101906102459190611aef565b610a8b565b005b61026660048036038101906102619190611b8f565b610f3b565b6040516102739190611b74565b60405180910390f35b610284610f83565b6040516102919190611a34565b60405180910390f35b6102b460048036038101906102af9190611aef565b611015565b6040516102c19190611b4a565b60405180910390f35b6102e460048036038101906102df9190611aef565b61108c565b6040516102f19190611b4a565b60405180910390f35b610314600480360381019061030f9190611b8f565b6110af565b6040516103219190611d83565b60405180910390f35b610344600480360381019061033f9190611da5565b61118f565b6040516103519190611b74565b60405180910390f35b60606003805461036990611e14565b80601f016020809104026020016040519081016040528092919081815260200182805461039590611e14565b80156103e25780601f106103b7576101008083540402835291602001916103e2565b820191906000526020600020905b8154815290600101906020018083116103c557829003601f168201915b5050505050905090565b6000806103f7611216565b905061040481858561121e565b600191505092915050565b6000600754905090565b6000600560008373ffffffffffffffffffffffffffffffffffffffff1673ffffffffffffffffffffffffffffffffffffffff168152602001908152602001600020600001549050919050565b6000610470846107a9565b81600560008673ffffffffffffffffffffffffffffffffffffffff1673ffffffffffffffffffffffffffffffffffffffff1681526020019081526020016000206000015410156104f5576040517f08c379a00000000000000000000000000000000000000000000000000000000081526004016104ec90611e91565b60405180910390fd5b60005b600560008673ffffffffffffffffffffffffffffffffffffffff1673ffffffffffffffffffffffffffffffffffffffff16815260200190815260200160002060010180549050811015610792576000600560008773ffffffffffffffffffffffffffffffffffffffff1673ffffffffffffffffffffffffffffffffffffffff168152602001908152602001600020600101828154811061059b5761059a611eb1565b5b906000526020600020906003020160000154111561077f5782600560008773ffffffffffffffffffffffffffffffffffffffff1673ffffffffffffffffffffffffffffffffffffffff168152602001908152602001600020600101828154811061060857610607611eb1565b5b906000526020600020906003020160000154106106a05782600560008773ffffffffffffffffffffffffffffffffffffffff1673ffffffffffffffffffffffffffffffffffffffff168152602001908152602001600020600101828154811061067457610673611eb1565b5b906000526020600020906003020160000160008282546106949190611f0f565b92505081905550610792565b600560008673ffffffffffffffffffffffffffffffffffffffff1673ffffffffffffffffffffffffffffffffffffffff16815260200190815260200160002060010181815481106106f4576106f3611eb1565b5b906000526020600020906003020160000154836107119190611f0f565b92506000600560008773ffffffffffffffffffffffffffffffffffffffff1673ffffffffffffffffffffffffffffffffffffffff168152602001908152602001600020600101828154811061076957610768611eb1565b5b9060005260206000209060030201600001819055505b808061078a90611f43565b9150506104f8565b5061079e8484846113e7565b600190509392505050565b6000805b600560008473ffffffffffffffffffffffffffffffffffffffff1673ffffffffffffffffffffffffffffffffffffffff168152602001908152602001600020600101805490508110156109ca5742600560008573ffffffffffffffffffffffffffffffffffffffff1673ffffffffffffffffffffffffffffffffffffffff168152602001908152602001600020600101828154811061084f5761084e611eb1565b5b9060005260206000209060030201600201541080156108d357506000600560008573ffffffffffffffffffffffffffffffffffffffff1673ffffffffffffffffffffffffffffffffffffffff16815260200190815260200160002060010182815481106108bf576108be611eb1565b5b906000526020600020906003020160000154115b156109b757600560008473ffffffffffffffffffffffffffffffffffffffff1673ffffffffffffffffffffffffffffffffffffffff168152602001908152602001600020600101818154811061092c5761092b611eb1565b5b906000526020600020906003020160000154826109499190611f8b565b91506000600560008573ffffffffffffffffffffffffffffffffffffffff1673ffffffffffffffffffffffffffffffffffffffff16815260200190815260200160002060010182815481106109a1576109a0611eb1565b5b9060005260206000209060030201600001819055505b80806109c290611f43565b9150506107ad565b506109d5828261165d565b80600560008473ffffffffffffffffffffffffffffffffffffffff1673ffffffffffffffffffffffffffffffffffffffff1681526020019081526020016000206000016000828254610a279190611f0f565b925050819055508060076000828254610a409190611f0f565b925050819055505050565b60006012905090565b600080610a5f611216565b9050610a80818585610a71858961118f565b610a7b9190611f8b565b61121e565b600191505092915050565b600860009054906101000a900473ffffffffffffffffffffffffffffffffffffffff1673ffffffffffffffffffffffffffffffffffffffff163373ffffffffffffffffffffffffffffffffffffffff1614610b1b576040517f08c379a0000000000000000000000000000000000000000000000000000000008152600401610b129061200b565b60405180910390fd5b6000604051806060016040528083815260200142815260200161012c42610b429190611f8b565b81525090508160056000600860009054906101000a900473ffffffffffffffffffffffffffffffffffffffff1673ffffffffffffffffffffffffffffffffffffffff1673ffffffffffffffffffffffffffffffffffffffff1681526020019081526020016000206000015410610c60578160056000600860009054906101000a900473ffffffffffffffffffffffffffffffffffffffff1673ffffffffffffffffffffffffffffffffffffffff1673ffffffffffffffffffffffffffffffffffffffff1681526020019081526020016000206000016000828254610c269190611f0f565b92505081905550610c5a600860009054906101000a900473ffffffffffffffffffffffffffffffffffffffff168484610465565b50610d64565b60056000600860009054906101000a900473ffffffffffffffffffffffffffffffffffffffff1673ffffffffffffffffffffffffffffffffffffffff1673ffffffffffffffffffffffffffffffffffffffff1681526020019081526020016000206000015482610cd09190611f0f565b9150600060056000600860009054906101000a900473ffffffffffffffffffffffffffffffffffffffff1673ffffffffffffffffffffffffffffffffffffffff1673ffffffffffffffffffffffffffffffffffffffff16815260200190815260200160002060000181905550610d46838361182a565b806000015160076000828254610d5c9190611f8b565b925050819055505b8060000151600560008573ffffffffffffffffffffffffffffffffffffffff1673ffffffffffffffffffffffffffffffffffffffff1681526020019081526020016000206000016000828254610dba9190611f8b565b925050819055508060000151600660008573ffffffffffffffffffffffffffffffffffffffff1673ffffffffffffffffffffffffffffffffffffffff1681526020019081526020016000206000016000828254610e179190611f8b565b92505081905550600560008473ffffffffffffffffffffffffffffffffffffffff1673ffffffffffffffffffffffffffffffffffffffff1681526020019081526020016000206001018190806001815401808255809150506001900390600052602060002090600302016000909190919091506000820151816000015560208201518160010155604082015181600201555050600660008473ffffffffffffffffffffffffffffffffffffffff1673ffffffffffffffffffffffffffffffffffffffff1681526020019081526020016000206001018190806001815401808255809150506001900390600052602060002090600302016000909190919091506000820151816000015560208201518160010155604082015181600201555050505050565b60008060008373ffffffffffffffffffffffffffffffffffffffff1673ffffffffffffffffffffffffffffffffffffffff168152602001908152602001600020549050919050565b606060048054610f9290611e14565b80601f0160208091040260200160405190810160405280929190818152602001828054610fbe90611e14565b801561100b5780601f10610fe05761010080835404028352916020019161100b565b820191906000526020600020905b815481529060010190602001808311610fee57829003601f168201915b5050505050905090565b600080611020611216565b9050600061102e828661118f565b905083811015611073576040517f08c379a000000000000000000000000000000000000000000000000000000000815260040161106a9061209d565b60405180910390fd5b611080828686840361121e565b60019250505092915050565b600080611097611216565b90506110a48185856113e7565b600191505092915050565b6110b761198a565b600660008373ffffffffffffffffffffffffffffffffffffffff1673ffffffffffffffffffffffffffffffffffffffff1681526020019081526020016000206040518060400160405290816000820154815260200160018201805480602002602001604051908101604052809291908181526020016000905b828210156111805783829060005260206000209060030201604051806060016040529081600082015481526020016001820154815260200160028201548152505081526020019060010190611130565b50505050815250509050919050565b6000600160008473ffffffffffffffffffffffffffffffffffffffff1673ffffffffffffffffffffffffffffffffffffffff16815260200190815260200160002060008373ffffffffffffffffffffffffffffffffffffffff1673ffffffffffffffffffffffffffffffffffffffff16815260200190815260200160002054905092915050565b600033905090565b600073ffffffffffffffffffffffffffffffffffffffff168373ffffffffffffffffffffffffffffffffffffffff160361128d576040517f08c379a00000000000000000000000000000000000000000000000000000000081526004016112849061212f565b60405180910390fd5b600073ffffffffffffffffffffffffffffffffffffffff168273ffffffffffffffffffffffffffffffffffffffff16036112fc576040517f08c379a00000000000000000000000000000000000000000000000000000000081526004016112f3906121c1565b60405180910390fd5b80600160008573ffffffffffffffffffffffffffffffffffffffff1673ffffffffffffffffffffffffffffffffffffffff16815260200190815260200160002060008473ffffffffffffffffffffffffffffffffffffffff1673ffffffffffffffffffffffffffffffffffffffff168152602001908152602001600020819055508173ffffffffffffffffffffffffffffffffffffffff168373ffffffffffffffffffffffffffffffffffffffff167f8c5be1e5ebec7d5bd14f71427d1e84f3dd0314c0f7b2291e5b200ac8c7c3b925836040516113da9190611b74565b60405180910390a3505050565b600073ffffffffffffffffffffffffffffffffffffffff168373ffffffffffffffffffffffffffffffffffffffff1603611456576040517f08c379a000000000000000000000000000000000000000000000000000000000815260040161144d90612253565b60405180910390fd5b600073ffffffffffffffffffffffffffffffffffffffff168273ffffffffffffffffffffffffffffffffffffffff16036114c5576040517f08c379a00000000000000000000000000000000000000000000000000000000081526004016114bc906122e5565b60405180910390fd5b6114d0838383611980565b60008060008573ffffffffffffffffffffffffffffffffffffffff1673ffffffffffffffffffffffffffffffffffffffff16815260200190815260200160002054905081811015611556576040517f08c379a000000000000000000000000000000000000000000000000000000000815260040161154d90612377565b60405180910390fd5b8181036000808673ffffffffffffffffffffffffffffffffffffffff1673ffffffffffffffffffffffffffffffffffffffff16815260200190815260200160002081905550816000808573ffffffffffffffffffffffffffffffffffffffff1673ffffffffffffffffffffffffffffffffffffffff168152602001908152602001600020600082825401925050819055508273ffffffffffffffffffffffffffffffffffffffff168473ffffffffffffffffffffffffffffffffffffffff167fddf252ad1be2c89b69c2b068fc378daa952ba7f163c4a11628f55a4df523b3ef846040516116449190611b74565b60405180910390a3611657848484611985565b50505050565b600073ffffffffffffffffffffffffffffffffffffffff168273ffffffffffffffffffffffffffffffffffffffff16036116cc576040517f08c379a00000000000000000000000000000000000000000000000000000000081526004016116c390612409565b60405180910390fd5b6116d882600083611980565b60008060008473ffffffffffffffffffffffffffffffffffffffff1673ffffffffffffffffffffffffffffffffffffffff1681526020019081526020016000205490508181101561175e576040517f08c379a00000000000000000000000000000000000000000000000000000000081526004016117559061249b565b60405180910390fd5b8181036000808573ffffffffffffffffffffffffffffffffffffffff1673ffffffffffffffffffffffffffffffffffffffff1681526020019081526020016000208190555081600260008282540392505081905550600073ffffffffffffffffffffffffffffffffffffffff168373ffffffffffffffffffffffffffffffffffffffff167fddf252ad1be2c89b69c2b068fc378daa952ba7f163c4a11628f55a4df523b3ef846040516118119190611b74565b60405180910390a361182583600084611985565b505050565b600073ffffffffffffffffffffffffffffffffffffffff168273ffffffffffffffffffffffffffffffffffffffff1603611899576040517f08c379a000000000000000000000000000000000000000000000000000000000815260040161189090612507565b60405180910390fd5b6118a560008383611980565b80600260008282546118b79190611f8b565b92505081905550806000808473ffffffffffffffffffffffffffffffffffffffff1673ffffffffffffffffffffffffffffffffffffffff168152602001908152602001600020600082825401925050819055508173ffffffffffffffffffffffffffffffffffffffff16600073ffffffffffffffffffffffffffffffffffffffff167fddf252ad1be2c89b69c2b068fc378daa952ba7f163c4a11628f55a4df523b3ef836040516119689190611b74565b60405180910390a361197c60008383611985565b5050565b505050565b505050565b604051806040016040528060008152602001606081525090565b600081519050919050565b600082825260208201905092915050565b60005b838110156119de5780820151818401526020810190506119c3565b60008484015250505050565b6000601f19601f8301169050919050565b6000611a06826119a4565b611a1081856119af565b9350611a208185602086016119c0565b611a29816119ea565b840191505092915050565b60006020820190508181036000830152611a4e81846119fb565b905092915050565b600080fd5b600073ffffffffffffffffffffffffffffffffffffffff82169050919050565b6000611a8682611a5b565b9050919050565b611a9681611a7b565b8114611aa157600080fd5b50565b600081359050611ab381611a8d565b92915050565b6000819050919050565b611acc81611ab9565b8114611ad757600080fd5b50565b600081359050611ae981611ac3565b92915050565b60008060408385031215611b0657611b05611a56565b5b6000611b1485828601611aa4565b9250506020611b2585828601611ada565b9150509250929050565b60008115159050919050565b611b4481611b2f565b82525050565b6000602082019050611b5f6000830184611b3b565b92915050565b611b6e81611ab9565b82525050565b6000602082019050611b896000830184611b65565b92915050565b600060208284031215611ba557611ba4611a56565b5b6000611bb384828501611aa4565b91505092915050565b600080600060608486031215611bd557611bd4611a56565b5b6000611be386828701611aa4565b9350506020611bf486828701611aa4565b9250506040611c0586828701611ada565b9150509250925092565b600060ff82169050919050565b611c2581611c0f565b82525050565b6000602082019050611c406000830184611c1c565b92915050565b611c4f81611ab9565b82525050565b600081519050919050565b600082825260208201905092915050565b6000819050602082019050919050565b606082016000820151611c976000850182611c46565b506020820151611caa6020850182611c46565b506040820151611cbd6040850182611c46565b50505050565b6000611ccf8383611c81565b60608301905092915050565b6000602082019050919050565b6000611cf382611c55565b611cfd8185611c60565b9350611d0883611c71565b8060005b83811015611d39578151611d208882611cc3565b9750611d2b83611cdb565b925050600181019050611d0c565b5085935050505092915050565b6000604083016000830151611d5e6000860182611c46565b5060208301518482036020860152611d768282611ce8565b9150508091505092915050565b60006020820190508181036000830152611d9d8184611d46565b905092915050565b60008060408385031215611dbc57611dbb611a56565b5b6000611dca85828601611aa4565b9250506020611ddb85828601611aa4565b9150509250929050565b7f4e487b7100000000000000000000000000000000000000000000000000000000600052602260045260246000fd5b60006002820490506001821680611e2c57607f821691505b602082108103611e3f57611e3e611de5565b5b50919050565b7f4e6f7420456e6f75676820746f6b656e73210000000000000000000000000000600082015250565b6000611e7b6012836119af565b9150611e8682611e45565b602082019050919050565b60006020820190508181036000830152611eaa81611e6e565b9050919050565b7f4e487b7100000000000000000000000000000000000000000000000000000000600052603260045260246000fd5b7f4e487b7100000000000000000000000000000000000000000000000000000000600052601160045260246000fd5b6000611f1a82611ab9565b9150611f2583611ab9565b9250828203905081811115611f3d57611f3c611ee0565b5b92915050565b6000611f4e82611ab9565b91507fffffffffffffffffffffffffffffffffffffffffffffffffffffffffffffffff8203611f8057611f7f611ee0565b5b600182019050919050565b6000611f9682611ab9565b9150611fa183611ab9565b9250828201905080821115611fb957611fb8611ee0565b5b92915050565b7f4e6f7420417574686f72697a6564210000000000000000000000000000000000600082015250565b6000611ff5600f836119af565b915061200082611fbf565b602082019050919050565b6000602082019050818103600083015261202481611fe8565b9050919050565b7f45524332303a2064656372656173656420616c6c6f77616e63652062656c6f7760008201527f207a65726f000000000000000000000000000000000000000000000000000000602082015250565b60006120876025836119af565b91506120928261202b565b604082019050919050565b600060208201905081810360008301526120b68161207a565b9050919050565b7f45524332303a20617070726f76652066726f6d20746865207a65726f2061646460008201527f7265737300000000000000000000000000000000000000000000000000000000602082015250565b60006121196024836119af565b9150612124826120bd565b604082019050919050565b600060208201905081810360008301526121488161210c565b9050919050565b7f45524332303a20617070726f766520746f20746865207a65726f20616464726560008201527f7373000000000000000000000000000000000000000000000000000000000000602082015250565b60006121ab6022836119af565b91506121b68261214f565b604082019050919050565b600060208201905081810360008301526121da8161219e565b9050919050565b7f45524332303a207472616e736665722066726f6d20746865207a65726f20616460008201527f6472657373000000000000000000000000000000000000000000000000000000602082015250565b600061223d6025836119af565b9150612248826121e1565b604082019050919050565b6000602082019050818103600083015261226c81612230565b9050919050565b7f45524332303a207472616e7366657220746f20746865207a65726f206164647260008201527f6573730000000000000000000000000000000000000000000000000000000000602082015250565b60006122cf6023836119af565b91506122da82612273565b604082019050919050565b600060208201905081810360008301526122fe816122c2565b9050919050565b7f45524332303a207472616e7366657220616d6f756e742065786365656473206260008201527f616c616e63650000000000000000000000000000000000000000000000000000602082015250565b60006123616026836119af565b915061236c82612305565b604082019050919050565b6000602082019050818103600083015261239081612354565b9050919050565b7f45524332303a206275726e2066726f6d20746865207a65726f2061646472657360008201527f7300000000000000000000000000000000000000000000000000000000000000602082015250565b60006123f36021836119af565b91506123fe82612397565b604082019050919050565b60006020820190508181036000830152612422816123e6565b9050919050565b7f45524332303a206275726e20616d6f756e7420657863656564732062616c616e60008201527f6365000000000000000000000000000000000000000000000000000000000000602082015250565b60006124856022836119af565b915061249082612429565b604082019050919050565b600060208201905081810360008301526124b481612478565b9050919050565b7f45524332303a206d696e7420746f20746865207a65726f206164647265737300600082015250565b60006124f1601f836119af565b91506124fc826124bb565b602082019050919050565b60006020820190508181036000830152612520816124e4565b905091905056fea264697066735822122029f22a8b56d00ed0a3a79deb8fa33eed23878da4ccc1eb98d9f5d94a03f2132d64736f6c63430008120033",
					"opcodes": "PUSH1 0x80 PUSH1 0x40 MSTORE PUSH1 0x0 PUSH1 0x7 SSTORE CALLVALUE DUP1 ISZERO PUSH3 0x16 JUMPI PUSH1 0x0 DUP1 REVERT JUMPDEST POP PUSH1 0x40 MLOAD DUP1 PUSH1 0x40 ADD PUSH1 0x40 MSTORE DUP1 PUSH1 0x9 DUP2 MSTORE PUSH1 0x20 ADD PUSH32 0x5375706572436F696E0000000000000000000000000000000000000000000000 DUP2 MSTORE POP PUSH1 0x40 MLOAD DUP1 PUSH1 0x40 ADD PUSH1 0x40 MSTORE DUP1 PUSH1 0x3 DUP2 MSTORE PUSH1 0x20 ADD PUSH32 0x5350430000000000000000000000000000000000000000000000000000000000 DUP2 MSTORE POP DUP2 PUSH1 0x3 SWAP1 DUP2 PUSH3 0x94 SWAP2 SWAP1 PUSH3 0x36A JUMP JUMPDEST POP DUP1 PUSH1 0x4 SWAP1 DUP2 PUSH3 0xA6 SWAP2 SWAP1 PUSH3 0x36A JUMP JUMPDEST POP POP POP CALLER PUSH1 0x8 PUSH1 0x0 PUSH2 0x100 EXP DUP2 SLOAD DUP2 PUSH20 0xFFFFFFFFFFFFFFFFFFFFFFFFFFFFFFFFFFFFFFFF MUL NOT AND SWAP1 DUP4 PUSH20 0xFFFFFFFFFFFFFFFFFFFFFFFFFFFFFFFFFFFFFFFF AND MUL OR SWAP1 SSTORE POP PUSH3 0x451 JUMP JUMPDEST PUSH1 0x0 DUP2 MLOAD SWAP1 POP SWAP2 SWAP1 POP JUMP JUMPDEST PUSH32 0x4E487B7100000000000000000000000000000000000000000000000000000000 PUSH1 0x0 MSTORE PUSH1 0x41 PUSH1 0x4 MSTORE PUSH1 0x24 PUSH1 0x0 REVERT JUMPDEST PUSH32 0x4E487B7100000000000000000000000000000000000000000000000000000000 PUSH1 0x0 MSTORE PUSH1 0x22 PUSH1 0x4 MSTORE PUSH1 0x24 PUSH1 0x0 REVERT JUMPDEST PUSH1 0x0 PUSH1 0x2 DUP3 DIV SWAP1 POP PUSH1 0x1 DUP3 AND DUP1 PUSH3 0x172 JUMPI PUSH1 0x7F DUP3 AND SWAP2 POP JUMPDEST PUSH1 0x20 DUP3 LT DUP2 SUB PUSH3 0x188 JUMPI PUSH3 0x187 PUSH3 0x12A JUMP JUMPDEST JUMPDEST POP SWAP2 SWAP1 POP JUMP JUMPDEST PUSH1 0x0 DUP2 SWAP1 POP DUP2 PUSH1 0x0 MSTORE PUSH1 0x20 PUSH1 0x0 KECCAK256 SWAP1 POP SWAP2 SWAP1 POP JUMP JUMPDEST PUSH1 0x0 PUSH1 0x20 PUSH1 0x1F DUP4 ADD DIV SWAP1 POP SWAP2 SWAP1 POP JUMP JUMPDEST PUSH1 0x0 DUP3 DUP3 SHL SWAP1 POP SWAP3 SWAP2 POP POP JUMP JUMPDEST PUSH1 0x0 PUSH1 0x8 DUP4 MUL PUSH3 0x1F2 PUSH32 0xFFFFFFFFFFFFFFFFFFFFFFFFFFFFFFFFFFFFFFFFFFFFFFFFFFFFFFFFFFFFFFFF DUP3 PUSH3 0x1B3 JUMP JUMPDEST PUSH3 0x1FE DUP7 DUP4 PUSH3 0x1B3 JUMP JUMPDEST SWAP6 POP DUP1 NOT DUP5 AND SWAP4 POP DUP1 DUP7 AND DUP5 OR SWAP3 POP POP POP SWAP4 SWAP3 POP POP POP JUMP JUMPDEST PUSH1 0x0 DUP2 SWAP1 POP SWAP2 SWAP1 POP JUMP JUMPDEST PUSH1 0x0 DUP2 SWAP1 POP SWAP2 SWAP1 POP JUMP JUMPDEST PUSH1 0x0 PUSH3 0x24B PUSH3 0x245 PUSH3 0x23F DUP5 PUSH3 0x216 JUMP JUMPDEST PUSH3 0x220 JUMP JUMPDEST PUSH3 0x216 JUMP JUMPDEST SWAP1 POP SWAP2 SWAP1 POP JUMP JUMPDEST PUSH1 0x0 DUP2 SWAP1 POP SWAP2 SWAP1 POP JUMP JUMPDEST PUSH3 0x267 DUP4 PUSH3 0x22A JUMP JUMPDEST PUSH3 0x27F PUSH3 0x276 DUP3 PUSH3 0x252 JUMP JUMPDEST DUP5 DUP5 SLOAD PUSH3 0x1C0 JUMP JUMPDEST DUP3 SSTORE POP POP POP POP JUMP JUMPDEST PUSH1 0x0 SWAP1 JUMP JUMPDEST PUSH3 0x296 PUSH3 0x287 JUMP JUMPDEST PUSH3 0x2A3 DUP2 DUP5 DUP5 PUSH3 0x25C JUMP JUMPDEST POP POP POP JUMP JUMPDEST JUMPDEST DUP2 DUP2 LT ISZERO PUSH3 0x2CB JUMPI PUSH3 0x2BF PUSH1 0x0 DUP3 PUSH3 0x28C JUMP JUMPDEST PUSH1 0x1 DUP2 ADD SWAP1 POP PUSH3 0x2A9 JUMP JUMPDEST POP POP JUMP JUMPDEST PUSH1 0x1F DUP3 GT ISZERO PUSH3 0x31A JUMPI PUSH3 0x2E4 DUP2 PUSH3 0x18E JUMP JUMPDEST PUSH3 0x2EF DUP5 PUSH3 0x1A3 JUMP JUMPDEST DUP2 ADD PUSH1 0x20 DUP6 LT ISZERO PUSH3 0x2FF JUMPI DUP2 SWAP1 POP JUMPDEST PUSH3 0x317 PUSH3 0x30E DUP6 PUSH3 0x1A3 JUMP JUMPDEST DUP4 ADD DUP3 PUSH3 0x2A8 JUMP JUMPDEST POP POP JUMPDEST POP POP POP JUMP JUMPDEST PUSH1 0x0 DUP3 DUP3 SHR SWAP1 POP SWAP3 SWAP2 POP POP JUMP JUMPDEST PUSH1 0x0 PUSH3 0x33F PUSH1 0x0 NOT DUP5 PUSH1 0x8 MUL PUSH3 0x31F JUMP JUMPDEST NOT DUP1 DUP4 AND SWAP2 POP POP SWAP3 SWAP2 POP POP JUMP JUMPDEST PUSH1 0x0 PUSH3 0x35A DUP4 DUP4 PUSH3 0x32C JUMP JUMPDEST SWAP2 POP DUP3 PUSH1 0x2 MUL DUP3 OR SWAP1 POP SWAP3 SWAP2 POP POP JUMP JUMPDEST PUSH3 0x375 DUP3 PUSH3 0xF0 JUMP JUMPDEST PUSH8 0xFFFFFFFFFFFFFFFF DUP2 GT ISZERO PUSH3 0x391 JUMPI PUSH3 0x390 PUSH3 0xFB JUMP JUMPDEST JUMPDEST PUSH3 0x39D DUP3 SLOAD PUSH3 0x159 JUMP JUMPDEST PUSH3 0x3AA DUP3 DUP3 DUP6 PUSH3 0x2CF JUMP JUMPDEST PUSH1 0x0 PUSH1 0x20 SWAP1 POP PUSH1 0x1F DUP4 GT PUSH1 0x1 DUP2 EQ PUSH3 0x3E2 JUMPI PUSH1 0x0 DUP5 ISZERO PUSH3 0x3CD JUMPI DUP3 DUP8 ADD MLOAD SWAP1 POP JUMPDEST PUSH3 0x3D9 DUP6 DUP3 PUSH3 0x34C JUMP JUMPDEST DUP7 SSTORE POP PUSH3 0x449 JUMP JUMPDEST PUSH1 0x1F NOT DUP5 AND PUSH3 0x3F2 DUP7 PUSH3 0x18E JUMP JUMPDEST PUSH1 0x0 JUMPDEST DUP3 DUP2 LT ISZERO PUSH3 0x41C JUMPI DUP5 DUP10 ADD MLOAD DUP3 SSTORE PUSH1 0x1 DUP3 ADD SWAP2 POP PUSH1 0x20 DUP6 ADD SWAP5 POP PUSH1 0x20 DUP2 ADD SWAP1 POP PUSH3 0x3F5 JUMP JUMPDEST DUP7 DUP4 LT ISZERO PUSH3 0x43C JUMPI DUP5 DUP10 ADD MLOAD PUSH3 0x438 PUSH1 0x1F DUP10 AND DUP3 PUSH3 0x32C JUMP JUMPDEST DUP4 SSTORE POP JUMPDEST PUSH1 0x1 PUSH1 0x2 DUP9 MUL ADD DUP9 SSTORE POP POP POP JUMPDEST POP POP POP POP POP POP JUMP JUMPDEST PUSH2 0x255D DUP1 PUSH3 0x461 PUSH1 0x0 CODECOPY PUSH1 0x0 RETURN INVALID PUSH1 0x80 PUSH1 0x40 MSTORE CALLVALUE DUP1 ISZERO PUSH2 0x10 JUMPI PUSH1 0x0 DUP1 REVERT JUMPDEST POP PUSH1 0x4 CALLDATASIZE LT PUSH2 0xF5 JUMPI PUSH1 0x0 CALLDATALOAD PUSH1 0xE0 SHR DUP1 PUSH4 0x39509351 GT PUSH2 0x97 JUMPI DUP1 PUSH4 0xA457C2D7 GT PUSH2 0x66 JUMPI DUP1 PUSH4 0xA457C2D7 EQ PUSH2 0x29A JUMPI DUP1 PUSH4 0xA9059CBB EQ PUSH2 0x2CA JUMPI DUP1 PUSH4 0xBBE6331B EQ PUSH2 0x2FA JUMPI DUP1 PUSH4 0xDD62ED3E EQ PUSH2 0x32A JUMPI PUSH2 0xF5 JUMP JUMPDEST DUP1 PUSH4 0x39509351 EQ PUSH2 0x200 JUMPI DUP1 PUSH4 0x40C10F19 EQ PUSH2 0x230 JUMPI DUP1 PUSH4 0x70A08231 EQ PUSH2 0x24C JUMPI DUP1 PUSH4 0x95D89B41 EQ PUSH2 0x27C JUMPI PUSH2 0xF5 JUMP JUMPDEST DUP1 PUSH4 0x2312DB25 GT PUSH2 0xD3 JUMPI DUP1 PUSH4 0x2312DB25 EQ PUSH2 0x166 JUMPI DUP1 PUSH4 0x23B872DD EQ PUSH2 0x196 JUMPI DUP1 PUSH4 0x29DB5884 EQ PUSH2 0x1C6 JUMPI DUP1 PUSH4 0x313CE567 EQ PUSH2 0x1E2 JUMPI PUSH2 0xF5 JUMP JUMPDEST DUP1 PUSH4 0x6FDDE03 EQ PUSH2 0xFA JUMPI DUP1 PUSH4 0x95EA7B3 EQ PUSH2 0x118 JUMPI DUP1 PUSH4 0x18160DDD EQ PUSH2 0x148 JUMPI JUMPDEST PUSH1 0x0 DUP1 REVERT JUMPDEST PUSH2 0x102 PUSH2 0x35A JUMP JUMPDEST PUSH1 0x40 MLOAD PUSH2 0x10F SWAP2 SWAP1 PUSH2 0x1A34 JUMP JUMPDEST PUSH1 0x40 MLOAD DUP1 SWAP2 SUB SWAP1 RETURN JUMPDEST PUSH2 0x132 PUSH1 0x4 DUP1 CALLDATASIZE SUB DUP2 ADD SWAP1 PUSH2 0x12D SWAP2 SWAP1 PUSH2 0x1AEF JUMP JUMPDEST PUSH2 0x3EC JUMP JUMPDEST PUSH1 0x40 MLOAD PUSH2 0x13F SWAP2 SWAP1 PUSH2 0x1B4A JUMP JUMPDEST PUSH1 0x40 MLOAD DUP1 SWAP2 SUB SWAP1 RETURN JUMPDEST PUSH2 0x150 PUSH2 0x40F JUMP JUMPDEST PUSH1 0x40 MLOAD PUSH2 0x15D SWAP2 SWAP1 PUSH2 0x1B74 JUMP JUMPDEST PUSH1 0x40 MLOAD DUP1 SWAP2 SUB SWAP1 RETURN JUMPDEST PUSH2 0x180 PUSH1 0x4 DUP1 CALLDATASIZE SUB DUP2 ADD SWAP1 PUSH2 0x17B SWAP2 SWAP1 PUSH2 0x1B8F JUMP JUMPDEST PUSH2 0x419 JUMP JUMPDEST PUSH1 0x40 MLOAD PUSH2 0x18D SWAP2 SWAP1 PUSH2 0x1B74 JUMP JUMPDEST PUSH1 0x40 MLOAD DUP1 SWAP2 SUB SWAP1 RETURN JUMPDEST PUSH2 0x1B0 PUSH1 0x4 DUP1 CALLDATASIZE SUB DUP2 ADD SWAP1 PUSH2 0x1AB SWAP2 SWAP1 PUSH2 0x1BBC JUMP JUMPDEST PUSH2 0x465 JUMP JUMPDEST PUSH1 0x40 MLOAD PUSH2 0x1BD SWAP2 SWAP1 PUSH2 0x1B4A JUMP JUMPDEST PUSH1 0x40 MLOAD DUP1 SWAP2 SUB SWAP1 RETURN JUMPDEST PUSH2 0x1E0 PUSH1 0x4 DUP1 CALLDATASIZE SUB DUP2 ADD SWAP1 PUSH2 0x1DB SWAP2 SWAP1 PUSH2 0x1B8F JUMP JUMPDEST PUSH2 0x7A9 JUMP JUMPDEST STOP JUMPDEST PUSH2 0x1EA PUSH2 0xA4B JUMP JUMPDEST PUSH1 0x40 MLOAD PUSH2 0x1F7 SWAP2 SWAP1 PUSH2 0x1C2B JUMP JUMPDEST PUSH1 0x40 MLOAD DUP1 SWAP2 SUB SWAP1 RETURN JUMPDEST PUSH2 0x21A PUSH1 0x4 DUP1 CALLDATASIZE SUB DUP2 ADD SWAP1 PUSH2 0x215 SWAP2 SWAP1 PUSH2 0x1AEF JUMP JUMPDEST PUSH2 0xA54 JUMP JUMPDEST PUSH1 0x40 MLOAD PUSH2 0x227 SWAP2 SWAP1 PUSH2 0x1B4A JUMP JUMPDEST PUSH1 0x40 MLOAD DUP1 SWAP2 SUB SWAP1 RETURN JUMPDEST PUSH2 0x24A PUSH1 0x4 DUP1 CALLDATASIZE SUB DUP2 ADD SWAP1 PUSH2 0x245 SWAP2 SWAP1 PUSH2 0x1AEF JUMP JUMPDEST PUSH2 0xA8B JUMP JUMPDEST STOP JUMPDEST PUSH2 0x266 PUSH1 0x4 DUP1 CALLDATASIZE SUB DUP2 ADD SWAP1 PUSH2 0x261 SWAP2 SWAP1 PUSH2 0x1B8F JUMP JUMPDEST PUSH2 0xF3B JUMP JUMPDEST PUSH1 0x40 MLOAD PUSH2 0x273 SWAP2 SWAP1 PUSH2 0x1B74 JUMP JUMPDEST PUSH1 0x40 MLOAD DUP1 SWAP2 SUB SWAP1 RETURN JUMPDEST PUSH2 0x284 PUSH2 0xF83 JUMP JUMPDEST PUSH1 0x40 MLOAD PUSH2 0x291 SWAP2 SWAP1 PUSH2 0x1A34 JUMP JUMPDEST PUSH1 0x40 MLOAD DUP1 SWAP2 SUB SWAP1 RETURN JUMPDEST PUSH2 0x2B4 PUSH1 0x4 DUP1 CALLDATASIZE SUB DUP2 ADD SWAP1 PUSH2 0x2AF SWAP2 SWAP1 PUSH2 0x1AEF JUMP JUMPDEST PUSH2 0x1015 JUMP JUMPDEST PUSH1 0x40 MLOAD PUSH2 0x2C1 SWAP2 SWAP1 PUSH2 0x1B4A JUMP JUMPDEST PUSH1 0x40 MLOAD DUP1 SWAP2 SUB SWAP1 RETURN JUMPDEST PUSH2 0x2E4 PUSH1 0x4 DUP1 CALLDATASIZE SUB DUP2 ADD SWAP1 PUSH2 0x2DF SWAP2 SWAP1 PUSH2 0x1AEF JUMP JUMPDEST PUSH2 0x108C JUMP JUMPDEST PUSH1 0x40 MLOAD PUSH2 0x2F1 SWAP2 SWAP1 PUSH2 0x1B4A JUMP JUMPDEST PUSH1 0x40 MLOAD DUP1 SWAP2 SUB SWAP1 RETURN JUMPDEST PUSH2 0x314 PUSH1 0x4 DUP1 CALLDATASIZE SUB DUP2 ADD SWAP1 PUSH2 0x30F SWAP2 SWAP1 PUSH2 0x1B8F JUMP JUMPDEST PUSH2 0x10AF JUMP JUMPDEST PUSH1 0x40 MLOAD PUSH2 0x321 SWAP2 SWAP1 PUSH2 0x1D83 JUMP JUMPDEST PUSH1 0x40 MLOAD DUP1 SWAP2 SUB SWAP1 RETURN JUMPDEST PUSH2 0x344 PUSH1 0x4 DUP1 CALLDATASIZE SUB DUP2 ADD SWAP1 PUSH2 0x33F SWAP2 SWAP1 PUSH2 0x1DA5 JUMP JUMPDEST PUSH2 0x118F JUMP JUMPDEST PUSH1 0x40 MLOAD PUSH2 0x351 SWAP2 SWAP1 PUSH2 0x1B74 JUMP JUMPDEST PUSH1 0x40 MLOAD DUP1 SWAP2 SUB SWAP1 RETURN JUMPDEST PUSH1 0x60 PUSH1 0x3 DUP1 SLOAD PUSH2 0x369 SWAP1 PUSH2 0x1E14 JUMP JUMPDEST DUP1 PUSH1 0x1F ADD PUSH1 0x20 DUP1 SWAP2 DIV MUL PUSH1 0x20 ADD PUSH1 0x40 MLOAD SWAP1 DUP2 ADD PUSH1 0x40 MSTORE DUP1 SWAP3 SWAP2 SWAP1 DUP2 DUP2 MSTORE PUSH1 0x20 ADD DUP3 DUP1 SLOAD PUSH2 0x395 SWAP1 PUSH2 0x1E14 JUMP JUMPDEST DUP1 ISZERO PUSH2 0x3E2 JUMPI DUP1 PUSH1 0x1F LT PUSH2 0x3B7 JUMPI PUSH2 0x100 DUP1 DUP4 SLOAD DIV MUL DUP4 MSTORE SWAP2 PUSH1 0x20 ADD SWAP2 PUSH2 0x3E2 JUMP JUMPDEST DUP3 ADD SWAP2 SWAP1 PUSH1 0x0 MSTORE PUSH1 0x20 PUSH1 0x0 KECCAK256 SWAP1 JUMPDEST DUP2 SLOAD DUP2 MSTORE SWAP1 PUSH1 0x1 ADD SWAP1 PUSH1 0x20 ADD DUP1 DUP4 GT PUSH2 0x3C5 JUMPI DUP3 SWAP1 SUB PUSH1 0x1F AND DUP3 ADD SWAP2 JUMPDEST POP POP POP POP POP SWAP1 POP SWAP1 JUMP JUMPDEST PUSH1 0x0 DUP1 PUSH2 0x3F7 PUSH2 0x1216 JUMP JUMPDEST SWAP1 POP PUSH2 0x404 DUP2 DUP6 DUP6 PUSH2 0x121E JUMP JUMPDEST PUSH1 0x1 SWAP2 POP POP SWAP3 SWAP2 POP POP JUMP JUMPDEST PUSH1 0x0 PUSH1 0x7 SLOAD SWAP1 POP SWAP1 JUMP JUMPDEST PUSH1 0x0 PUSH1 0x5 PUSH1 0x0 DUP4 PUSH20 0xFFFFFFFFFFFFFFFFFFFFFFFFFFFFFFFFFFFFFFFF AND PUSH20 0xFFFFFFFFFFFFFFFFFFFFFFFFFFFFFFFFFFFFFFFF AND DUP2 MSTORE PUSH1 0x20 ADD SWAP1 DUP2 MSTORE PUSH1 0x20 ADD PUSH1 0x0 KECCAK256 PUSH1 0x0 ADD SLOAD SWAP1 POP SWAP2 SWAP1 POP JUMP JUMPDEST PUSH1 0x0 PUSH2 0x470 DUP5 PUSH2 0x7A9 JUMP JUMPDEST DUP2 PUSH1 0x5 PUSH1 0x0 DUP7 PUSH20 0xFFFFFFFFFFFFFFFFFFFFFFFFFFFFFFFFFFFFFFFF AND PUSH20 0xFFFFFFFFFFFFFFFFFFFFFFFFFFFFFFFFFFFFFFFF AND DUP2 MSTORE PUSH1 0x20 ADD SWAP1 DUP2 MSTORE PUSH1 0x20 ADD PUSH1 0x0 KECCAK256 PUSH1 0x0 ADD SLOAD LT ISZERO PUSH2 0x4F5 JUMPI PUSH1 0x40 MLOAD PUSH32 0x8C379A000000000000000000000000000000000000000000000000000000000 DUP2 MSTORE PUSH1 0x4 ADD PUSH2 0x4EC SWAP1 PUSH2 0x1E91 JUMP JUMPDEST PUSH1 0x40 MLOAD DUP1 SWAP2 SUB SWAP1 REVERT JUMPDEST PUSH1 0x0 JUMPDEST PUSH1 0x5 PUSH1 0x0 DUP7 PUSH20 0xFFFFFFFFFFFFFFFFFFFFFFFFFFFFFFFFFFFFFFFF AND PUSH20 0xFFFFFFFFFFFFFFFFFFFFFFFFFFFFFFFFFFFFFFFF AND DUP2 MSTORE PUSH1 0x20 ADD SWAP1 DUP2 MSTORE PUSH1 0x20 ADD PUSH1 0x0 KECCAK256 PUSH1 0x1 ADD DUP1 SLOAD SWAP1 POP DUP2 LT ISZERO PUSH2 0x792 JUMPI PUSH1 0x0 PUSH1 0x5 PUSH1 0x0 DUP8 PUSH20 0xFFFFFFFFFFFFFFFFFFFFFFFFFFFFFFFFFFFFFFFF AND PUSH20 0xFFFFFFFFFFFFFFFFFFFFFFFFFFFFFFFFFFFFFFFF AND DUP2 MSTORE PUSH1 0x20 ADD SWAP1 DUP2 MSTORE PUSH1 0x20 ADD PUSH1 0x0 KECCAK256 PUSH1 0x1 ADD DUP3 DUP2 SLOAD DUP2 LT PUSH2 0x59B JUMPI PUSH2 0x59A PUSH2 0x1EB1 JUMP JUMPDEST JUMPDEST SWAP1 PUSH1 0x0 MSTORE PUSH1 0x20 PUSH1 0x0 KECCAK256 SWAP1 PUSH1 0x3 MUL ADD PUSH1 0x0 ADD SLOAD GT ISZERO PUSH2 0x77F JUMPI DUP3 PUSH1 0x5 PUSH1 0x0 DUP8 PUSH20 0xFFFFFFFFFFFFFFFFFFFFFFFFFFFFFFFFFFFFFFFF AND PUSH20 0xFFFFFFFFFFFFFFFFFFFFFFFFFFFFFFFFFFFFFFFF AND DUP2 MSTORE PUSH1 0x20 ADD SWAP1 DUP2 MSTORE PUSH1 0x20 ADD PUSH1 0x0 KECCAK256 PUSH1 0x1 ADD DUP3 DUP2 SLOAD DUP2 LT PUSH2 0x608 JUMPI PUSH2 0x607 PUSH2 0x1EB1 JUMP JUMPDEST JUMPDEST SWAP1 PUSH1 0x0 MSTORE PUSH1 0x20 PUSH1 0x0 KECCAK256 SWAP1 PUSH1 0x3 MUL ADD PUSH1 0x0 ADD SLOAD LT PUSH2 0x6A0 JUMPI DUP3 PUSH1 0x5 PUSH1 0x0 DUP8 PUSH20 0xFFFFFFFFFFFFFFFFFFFFFFFFFFFFFFFFFFFFFFFF AND PUSH20 0xFFFFFFFFFFFFFFFFFFFFFFFFFFFFFFFFFFFFFFFF AND DUP2 MSTORE PUSH1 0x20 ADD SWAP1 DUP2 MSTORE PUSH1 0x20 ADD PUSH1 0x0 KECCAK256 PUSH1 0x1 ADD DUP3 DUP2 SLOAD DUP2 LT PUSH2 0x674 JUMPI PUSH2 0x673 PUSH2 0x1EB1 JUMP JUMPDEST JUMPDEST SWAP1 PUSH1 0x0 MSTORE PUSH1 0x20 PUSH1 0x0 KECCAK256 SWAP1 PUSH1 0x3 MUL ADD PUSH1 0x0 ADD PUSH1 0x0 DUP3 DUP3 SLOAD PUSH2 0x694 SWAP2 SWAP1 PUSH2 0x1F0F JUMP JUMPDEST SWAP3 POP POP DUP2 SWAP1 SSTORE POP PUSH2 0x792 JUMP JUMPDEST PUSH1 0x5 PUSH1 0x0 DUP7 PUSH20 0xFFFFFFFFFFFFFFFFFFFFFFFFFFFFFFFFFFFFFFFF AND PUSH20 0xFFFFFFFFFFFFFFFFFFFFFFFFFFFFFFFFFFFFFFFF AND DUP2 MSTORE PUSH1 0x20 ADD SWAP1 DUP2 MSTORE PUSH1 0x20 ADD PUSH1 0x0 KECCAK256 PUSH1 0x1 ADD DUP2 DUP2 SLOAD DUP2 LT PUSH2 0x6F4 JUMPI PUSH2 0x6F3 PUSH2 0x1EB1 JUMP JUMPDEST JUMPDEST SWAP1 PUSH1 0x0 MSTORE PUSH1 0x20 PUSH1 0x0 KECCAK256 SWAP1 PUSH1 0x3 MUL ADD PUSH1 0x0 ADD SLOAD DUP4 PUSH2 0x711 SWAP2 SWAP1 PUSH2 0x1F0F JUMP JUMPDEST SWAP3 POP PUSH1 0x0 PUSH1 0x5 PUSH1 0x0 DUP8 PUSH20 0xFFFFFFFFFFFFFFFFFFFFFFFFFFFFFFFFFFFFFFFF AND PUSH20 0xFFFFFFFFFFFFFFFFFFFFFFFFFFFFFFFFFFFFFFFF AND DUP2 MSTORE PUSH1 0x20 ADD SWAP1 DUP2 MSTORE PUSH1 0x20 ADD PUSH1 0x0 KECCAK256 PUSH1 0x1 ADD DUP3 DUP2 SLOAD DUP2 LT PUSH2 0x769 JUMPI PUSH2 0x768 PUSH2 0x1EB1 JUMP JUMPDEST JUMPDEST SWAP1 PUSH1 0x0 MSTORE PUSH1 0x20 PUSH1 0x0 KECCAK256 SWAP1 PUSH1 0x3 MUL ADD PUSH1 0x0 ADD DUP2 SWAP1 SSTORE POP JUMPDEST DUP1 DUP1 PUSH2 0x78A SWAP1 PUSH2 0x1F43 JUMP JUMPDEST SWAP2 POP POP PUSH2 0x4F8 JUMP JUMPDEST POP PUSH2 0x79E DUP5 DUP5 DUP5 PUSH2 0x13E7 JUMP JUMPDEST PUSH1 0x1 SWAP1 POP SWAP4 SWAP3 POP POP POP JUMP JUMPDEST PUSH1 0x0 DUP1 JUMPDEST PUSH1 0x5 PUSH1 0x0 DUP5 PUSH20 0xFFFFFFFFFFFFFFFFFFFFFFFFFFFFFFFFFFFFFFFF AND PUSH20 0xFFFFFFFFFFFFFFFFFFFFFFFFFFFFFFFFFFFFFFFF AND DUP2 MSTORE PUSH1 0x20 ADD SWAP1 DUP2 MSTORE PUSH1 0x20 ADD PUSH1 0x0 KECCAK256 PUSH1 0x1 ADD DUP1 SLOAD SWAP1 POP DUP2 LT ISZERO PUSH2 0x9CA JUMPI TIMESTAMP PUSH1 0x5 PUSH1 0x0 DUP6 PUSH20 0xFFFFFFFFFFFFFFFFFFFFFFFFFFFFFFFFFFFFFFFF AND PUSH20 0xFFFFFFFFFFFFFFFFFFFFFFFFFFFFFFFFFFFFFFFF AND DUP2 MSTORE PUSH1 0x20 ADD SWAP1 DUP2 MSTORE PUSH1 0x20 ADD PUSH1 0x0 KECCAK256 PUSH1 0x1 ADD DUP3 DUP2 SLOAD DUP2 LT PUSH2 0x84F JUMPI PUSH2 0x84E PUSH2 0x1EB1 JUMP JUMPDEST JUMPDEST SWAP1 PUSH1 0x0 MSTORE PUSH1 0x20 PUSH1 0x0 KECCAK256 SWAP1 PUSH1 0x3 MUL ADD PUSH1 0x2 ADD SLOAD LT DUP1 ISZERO PUSH2 0x8D3 JUMPI POP PUSH1 0x0 PUSH1 0x5 PUSH1 0x0 DUP6 PUSH20 0xFFFFFFFFFFFFFFFFFFFFFFFFFFFFFFFFFFFFFFFF AND PUSH20 0xFFFFFFFFFFFFFFFFFFFFFFFFFFFFFFFFFFFFFFFF AND DUP2 MSTORE PUSH1 0x20 ADD SWAP1 DUP2 MSTORE PUSH1 0x20 ADD PUSH1 0x0 KECCAK256 PUSH1 0x1 ADD DUP3 DUP2 SLOAD DUP2 LT PUSH2 0x8BF JUMPI PUSH2 0x8BE PUSH2 0x1EB1 JUMP JUMPDEST JUMPDEST SWAP1 PUSH1 0x0 MSTORE PUSH1 0x20 PUSH1 0x0 KECCAK256 SWAP1 PUSH1 0x3 MUL ADD PUSH1 0x0 ADD SLOAD GT JUMPDEST ISZERO PUSH2 0x9B7 JUMPI PUSH1 0x5 PUSH1 0x0 DUP5 PUSH20 0xFFFFFFFFFFFFFFFFFFFFFFFFFFFFFFFFFFFFFFFF AND PUSH20 0xFFFFFFFFFFFFFFFFFFFFFFFFFFFFFFFFFFFFFFFF AND DUP2 MSTORE PUSH1 0x20 ADD SWAP1 DUP2 MSTORE PUSH1 0x20 ADD PUSH1 0x0 KECCAK256 PUSH1 0x1 ADD DUP2 DUP2 SLOAD DUP2 LT PUSH2 0x92C JUMPI PUSH2 0x92B PUSH2 0x1EB1 JUMP JUMPDEST JUMPDEST SWAP1 PUSH1 0x0 MSTORE PUSH1 0x20 PUSH1 0x0 KECCAK256 SWAP1 PUSH1 0x3 MUL ADD PUSH1 0x0 ADD SLOAD DUP3 PUSH2 0x949 SWAP2 SWAP1 PUSH2 0x1F8B JUMP JUMPDEST SWAP2 POP PUSH1 0x0 PUSH1 0x5 PUSH1 0x0 DUP6 PUSH20 0xFFFFFFFFFFFFFFFFFFFFFFFFFFFFFFFFFFFFFFFF AND PUSH20 0xFFFFFFFFFFFFFFFFFFFFFFFFFFFFFFFFFFFFFFFF AND DUP2 MSTORE PUSH1 0x20 ADD SWAP1 DUP2 MSTORE PUSH1 0x20 ADD PUSH1 0x0 KECCAK256 PUSH1 0x1 ADD DUP3 DUP2 SLOAD DUP2 LT PUSH2 0x9A1 JUMPI PUSH2 0x9A0 PUSH2 0x1EB1 JUMP JUMPDEST JUMPDEST SWAP1 PUSH1 0x0 MSTORE PUSH1 0x20 PUSH1 0x0 KECCAK256 SWAP1 PUSH1 0x3 MUL ADD PUSH1 0x0 ADD DUP2 SWAP1 SSTORE POP JUMPDEST DUP1 DUP1 PUSH2 0x9C2 SWAP1 PUSH2 0x1F43 JUMP JUMPDEST SWAP2 POP POP PUSH2 0x7AD JUMP JUMPDEST POP PUSH2 0x9D5 DUP3 DUP3 PUSH2 0x165D JUMP JUMPDEST DUP1 PUSH1 0x5 PUSH1 0x0 DUP5 PUSH20 0xFFFFFFFFFFFFFFFFFFFFFFFFFFFFFFFFFFFFFFFF AND PUSH20 0xFFFFFFFFFFFFFFFFFFFFFFFFFFFFFFFFFFFFFFFF AND DUP2 MSTORE PUSH1 0x20 ADD SWAP1 DUP2 MSTORE PUSH1 0x20 ADD PUSH1 0x0 KECCAK256 PUSH1 0x0 ADD PUSH1 0x0 DUP3 DUP3 SLOAD PUSH2 0xA27 SWAP2 SWAP1 PUSH2 0x1F0F JUMP JUMPDEST SWAP3 POP POP DUP2 SWAP1 SSTORE POP DUP1 PUSH1 0x7 PUSH1 0x0 DUP3 DUP3 SLOAD PUSH2 0xA40 SWAP2 SWAP1 PUSH2 0x1F0F JUMP JUMPDEST SWAP3 POP POP DUP2 SWAP1 SSTORE POP POP POP JUMP JUMPDEST PUSH1 0x0 PUSH1 0x12 SWAP1 POP SWAP1 JUMP JUMPDEST PUSH1 0x0 DUP1 PUSH2 0xA5F PUSH2 0x1216 JUMP JUMPDEST SWAP1 POP PUSH2 0xA80 DUP2 DUP6 DUP6 PUSH2 0xA71 DUP6 DUP10 PUSH2 0x118F JUMP JUMPDEST PUSH2 0xA7B SWAP2 SWAP1 PUSH2 0x1F8B JUMP JUMPDEST PUSH2 0x121E JUMP JUMPDEST PUSH1 0x1 SWAP2 POP POP SWAP3 SWAP2 POP POP JUMP JUMPDEST PUSH1 0x8 PUSH1 0x0 SWAP1 SLOAD SWAP1 PUSH2 0x100 EXP SWAP1 DIV PUSH20 0xFFFFFFFFFFFFFFFFFFFFFFFFFFFFFFFFFFFFFFFF AND PUSH20 0xFFFFFFFFFFFFFFFFFFFFFFFFFFFFFFFFFFFFFFFF AND CALLER PUSH20 0xFFFFFFFFFFFFFFFFFFFFFFFFFFFFFFFFFFFFFFFF AND EQ PUSH2 0xB1B JUMPI PUSH1 0x40 MLOAD PUSH32 0x8C379A000000000000000000000000000000000000000000000000000000000 DUP2 MSTORE PUSH1 0x4 ADD PUSH2 0xB12 SWAP1 PUSH2 0x200B JUMP JUMPDEST PUSH1 0x40 MLOAD DUP1 SWAP2 SUB SWAP1 REVERT JUMPDEST PUSH1 0x0 PUSH1 0x40 MLOAD DUP1 PUSH1 0x60 ADD PUSH1 0x40 MSTORE DUP1 DUP4 DUP2 MSTORE PUSH1 0x20 ADD TIMESTAMP DUP2 MSTORE PUSH1 0x20 ADD PUSH2 0x12C TIMESTAMP PUSH2 0xB42 SWAP2 SWAP1 PUSH2 0x1F8B JUMP JUMPDEST DUP2 MSTORE POP SWAP1 POP DUP2 PUSH1 0x5 PUSH1 0x0 PUSH1 0x8 PUSH1 0x0 SWAP1 SLOAD SWAP1 PUSH2 0x100 EXP SWAP1 DIV PUSH20 0xFFFFFFFFFFFFFFFFFFFFFFFFFFFFFFFFFFFFFFFF AND PUSH20 0xFFFFFFFFFFFFFFFFFFFFFFFFFFFFFFFFFFFFFFFF AND PUSH20 0xFFFFFFFFFFFFFFFFFFFFFFFFFFFFFFFFFFFFFFFF AND DUP2 MSTORE PUSH1 0x20 ADD SWAP1 DUP2 MSTORE PUSH1 0x20 ADD PUSH1 0x0 KECCAK256 PUSH1 0x0 ADD SLOAD LT PUSH2 0xC60 JUMPI DUP2 PUSH1 0x5 PUSH1 0x0 PUSH1 0x8 PUSH1 0x0 SWAP1 SLOAD SWAP1 PUSH2 0x100 EXP SWAP1 DIV PUSH20 0xFFFFFFFFFFFFFFFFFFFFFFFFFFFFFFFFFFFFFFFF AND PUSH20 0xFFFFFFFFFFFFFFFFFFFFFFFFFFFFFFFFFFFFFFFF AND PUSH20 0xFFFFFFFFFFFFFFFFFFFFFFFFFFFFFFFFFFFFFFFF AND DUP2 MSTORE PUSH1 0x20 ADD SWAP1 DUP2 MSTORE PUSH1 0x20 ADD PUSH1 0x0 KECCAK256 PUSH1 0x0 ADD PUSH1 0x0 DUP3 DUP3 SLOAD PUSH2 0xC26 SWAP2 SWAP1 PUSH2 0x1F0F JUMP JUMPDEST SWAP3 POP POP DUP2 SWAP1 SSTORE POP PUSH2 0xC5A PUSH1 0x8 PUSH1 0x0 SWAP1 SLOAD SWAP1 PUSH2 0x100 EXP SWAP1 DIV PUSH20 0xFFFFFFFFFFFFFFFFFFFFFFFFFFFFFFFFFFFFFFFF AND DUP5 DUP5 PUSH2 0x465 JUMP JUMPDEST POP PUSH2 0xD64 JUMP JUMPDEST PUSH1 0x5 PUSH1 0x0 PUSH1 0x8 PUSH1 0x0 SWAP1 SLOAD SWAP1 PUSH2 0x100 EXP SWAP1 DIV PUSH20 0xFFFFFFFFFFFFFFFFFFFFFFFFFFFFFFFFFFFFFFFF AND PUSH20 0xFFFFFFFFFFFFFFFFFFFFFFFFFFFFFFFFFFFFFFFF AND PUSH20 0xFFFFFFFFFFFFFFFFFFFFFFFFFFFFFFFFFFFFFFFF AND DUP2 MSTORE PUSH1 0x20 ADD SWAP1 DUP2 MSTORE PUSH1 0x20 ADD PUSH1 0x0 KECCAK256 PUSH1 0x0 ADD SLOAD DUP3 PUSH2 0xCD0 SWAP2 SWAP1 PUSH2 0x1F0F JUMP JUMPDEST SWAP2 POP PUSH1 0x0 PUSH1 0x5 PUSH1 0x0 PUSH1 0x8 PUSH1 0x0 SWAP1 SLOAD SWAP1 PUSH2 0x100 EXP SWAP1 DIV PUSH20 0xFFFFFFFFFFFFFFFFFFFFFFFFFFFFFFFFFFFFFFFF AND PUSH20 0xFFFFFFFFFFFFFFFFFFFFFFFFFFFFFFFFFFFFFFFF AND PUSH20 0xFFFFFFFFFFFFFFFFFFFFFFFFFFFFFFFFFFFFFFFF AND DUP2 MSTORE PUSH1 0x20 ADD SWAP1 DUP2 MSTORE PUSH1 0x20 ADD PUSH1 0x0 KECCAK256 PUSH1 0x0 ADD DUP2 SWAP1 SSTORE POP PUSH2 0xD46 DUP4 DUP4 PUSH2 0x182A JUMP JUMPDEST DUP1 PUSH1 0x0 ADD MLOAD PUSH1 0x7 PUSH1 0x0 DUP3 DUP3 SLOAD PUSH2 0xD5C SWAP2 SWAP1 PUSH2 0x1F8B JUMP JUMPDEST SWAP3 POP POP DUP2 SWAP1 SSTORE POP JUMPDEST DUP1 PUSH1 0x0 ADD MLOAD PUSH1 0x5 PUSH1 0x0 DUP6 PUSH20 0xFFFFFFFFFFFFFFFFFFFFFFFFFFFFFFFFFFFFFFFF AND PUSH20 0xFFFFFFFFFFFFFFFFFFFFFFFFFFFFFFFFFFFFFFFF AND DUP2 MSTORE PUSH1 0x20 ADD SWAP1 DUP2 MSTORE PUSH1 0x20 ADD PUSH1 0x0 KECCAK256 PUSH1 0x0 ADD PUSH1 0x0 DUP3 DUP3 SLOAD PUSH2 0xDBA SWAP2 SWAP1 PUSH2 0x1F8B JUMP JUMPDEST SWAP3 POP POP DUP2 SWAP1 SSTORE POP DUP1 PUSH1 0x0 ADD MLOAD PUSH1 0x6 PUSH1 0x0 DUP6 PUSH20 0xFFFFFFFFFFFFFFFFFFFFFFFFFFFFFFFFFFFFFFFF AND PUSH20 0xFFFFFFFFFFFFFFFFFFFFFFFFFFFFFFFFFFFFFFFF AND DUP2 MSTORE PUSH1 0x20 ADD SWAP1 DUP2 MSTORE PUSH1 0x20 ADD PUSH1 0x0 KECCAK256 PUSH1 0x0 ADD PUSH1 0x0 DUP3 DUP3 SLOAD PUSH2 0xE17 SWAP2 SWAP1 PUSH2 0x1F8B JUMP JUMPDEST SWAP3 POP POP DUP2 SWAP1 SSTORE POP PUSH1 0x5 PUSH1 0x0 DUP5 PUSH20 0xFFFFFFFFFFFFFFFFFFFFFFFFFFFFFFFFFFFFFFFF AND PUSH20 0xFFFFFFFFFFFFFFFFFFFFFFFFFFFFFFFFFFFFFFFF AND DUP2 MSTORE PUSH1 0x20 ADD SWAP1 DUP2 MSTORE PUSH1 0x20 ADD PUSH1 0x0 KECCAK256 PUSH1 0x1 ADD DUP2 SWAP1 DUP1 PUSH1 0x1 DUP2 SLOAD ADD DUP1 DUP3 SSTORE DUP1 SWAP2 POP POP PUSH1 0x1 SWAP1 SUB SWAP1 PUSH1 0x0 MSTORE PUSH1 0x20 PUSH1 0x0 KECCAK256 SWAP1 PUSH1 0x3 MUL ADD PUSH1 0x0 SWAP1 SWAP2 SWAP1 SWAP2 SWAP1 SWAP2 POP PUSH1 0x0 DUP3 ADD MLOAD DUP2 PUSH1 0x0 ADD SSTORE PUSH1 0x20 DUP3 ADD MLOAD DUP2 PUSH1 0x1 ADD SSTORE PUSH1 0x40 DUP3 ADD MLOAD DUP2 PUSH1 0x2 ADD SSTORE POP POP PUSH1 0x6 PUSH1 0x0 DUP5 PUSH20 0xFFFFFFFFFFFFFFFFFFFFFFFFFFFFFFFFFFFFFFFF AND PUSH20 0xFFFFFFFFFFFFFFFFFFFFFFFFFFFFFFFFFFFFFFFF AND DUP2 MSTORE PUSH1 0x20 ADD SWAP1 DUP2 MSTORE PUSH1 0x20 ADD PUSH1 0x0 KECCAK256 PUSH1 0x1 ADD DUP2 SWAP1 DUP1 PUSH1 0x1 DUP2 SLOAD ADD DUP1 DUP3 SSTORE DUP1 SWAP2 POP POP PUSH1 0x1 SWAP1 SUB SWAP1 PUSH1 0x0 MSTORE PUSH1 0x20 PUSH1 0x0 KECCAK256 SWAP1 PUSH1 0x3 MUL ADD PUSH1 0x0 SWAP1 SWAP2 SWAP1 SWAP2 SWAP1 SWAP2 POP PUSH1 0x0 DUP3 ADD MLOAD DUP2 PUSH1 0x0 ADD SSTORE PUSH1 0x20 DUP3 ADD MLOAD DUP2 PUSH1 0x1 ADD SSTORE PUSH1 0x40 DUP3 ADD MLOAD DUP2 PUSH1 0x2 ADD SSTORE POP POP POP POP POP JUMP JUMPDEST PUSH1 0x0 DUP1 PUSH1 0x0 DUP4 PUSH20 0xFFFFFFFFFFFFFFFFFFFFFFFFFFFFFFFFFFFFFFFF AND PUSH20 0xFFFFFFFFFFFFFFFFFFFFFFFFFFFFFFFFFFFFFFFF AND DUP2 MSTORE PUSH1 0x20 ADD SWAP1 DUP2 MSTORE PUSH1 0x20 ADD PUSH1 0x0 KECCAK256 SLOAD SWAP1 POP SWAP2 SWAP1 POP JUMP JUMPDEST PUSH1 0x60 PUSH1 0x4 DUP1 SLOAD PUSH2 0xF92 SWAP1 PUSH2 0x1E14 JUMP JUMPDEST DUP1 PUSH1 0x1F ADD PUSH1 0x20 DUP1 SWAP2 DIV MUL PUSH1 0x20 ADD PUSH1 0x40 MLOAD SWAP1 DUP2 ADD PUSH1 0x40 MSTORE DUP1 SWAP3 SWAP2 SWAP1 DUP2 DUP2 MSTORE PUSH1 0x20 ADD DUP3 DUP1 SLOAD PUSH2 0xFBE SWAP1 PUSH2 0x1E14 JUMP JUMPDEST DUP1 ISZERO PUSH2 0x100B JUMPI DUP1 PUSH1 0x1F LT PUSH2 0xFE0 JUMPI PUSH2 0x100 DUP1 DUP4 SLOAD DIV MUL DUP4 MSTORE SWAP2 PUSH1 0x20 ADD SWAP2 PUSH2 0x100B JUMP JUMPDEST DUP3 ADD SWAP2 SWAP1 PUSH1 0x0 MSTORE PUSH1 0x20 PUSH1 0x0 KECCAK256 SWAP1 JUMPDEST DUP2 SLOAD DUP2 MSTORE SWAP1 PUSH1 0x1 ADD SWAP1 PUSH1 0x20 ADD DUP1 DUP4 GT PUSH2 0xFEE JUMPI DUP3 SWAP1 SUB PUSH1 0x1F AND DUP3 ADD SWAP2 JUMPDEST POP POP POP POP POP SWAP1 POP SWAP1 JUMP JUMPDEST PUSH1 0x0 DUP1 PUSH2 0x1020 PUSH2 0x1216 JUMP JUMPDEST SWAP1 POP PUSH1 0x0 PUSH2 0x102E DUP3 DUP7 PUSH2 0x118F JUMP JUMPDEST SWAP1 POP DUP4 DUP2 LT ISZERO PUSH2 0x1073 JUMPI PUSH1 0x40 MLOAD PUSH32 0x8C379A000000000000000000000000000000000000000000000000000000000 DUP2 MSTORE PUSH1 0x4 ADD PUSH2 0x106A SWAP1 PUSH2 0x209D JUMP JUMPDEST PUSH1 0x40 MLOAD DUP1 SWAP2 SUB SWAP1 REVERT JUMPDEST PUSH2 0x1080 DUP3 DUP7 DUP7 DUP5 SUB PUSH2 0x121E JUMP JUMPDEST PUSH1 0x1 SWAP3 POP POP POP SWAP3 SWAP2 POP POP JUMP JUMPDEST PUSH1 0x0 DUP1 PUSH2 0x1097 PUSH2 0x1216 JUMP JUMPDEST SWAP1 POP PUSH2 0x10A4 DUP2 DUP6 DUP6 PUSH2 0x13E7 JUMP JUMPDEST PUSH1 0x1 SWAP2 POP POP SWAP3 SWAP2 POP POP JUMP JUMPDEST PUSH2 0x10B7 PUSH2 0x198A JUMP JUMPDEST PUSH1 0x6 PUSH1 0x0 DUP4 PUSH20 0xFFFFFFFFFFFFFFFFFFFFFFFFFFFFFFFFFFFFFFFF AND PUSH20 0xFFFFFFFFFFFFFFFFFFFFFFFFFFFFFFFFFFFFFFFF AND DUP2 MSTORE PUSH1 0x20 ADD SWAP1 DUP2 MSTORE PUSH1 0x20 ADD PUSH1 0x0 KECCAK256 PUSH1 0x40 MLOAD DUP1 PUSH1 0x40 ADD PUSH1 0x40 MSTORE SWAP1 DUP2 PUSH1 0x0 DUP3 ADD SLOAD DUP2 MSTORE PUSH1 0x20 ADD PUSH1 0x1 DUP3 ADD DUP1 SLOAD DUP1 PUSH1 0x20 MUL PUSH1 0x20 ADD PUSH1 0x40 MLOAD SWAP1 DUP2 ADD PUSH1 0x40 MSTORE DUP1 SWAP3 SWAP2 SWAP1 DUP2 DUP2 MSTORE PUSH1 0x20 ADD PUSH1 0x0 SWAP1 JUMPDEST DUP3 DUP3 LT ISZERO PUSH2 0x1180 JUMPI DUP4 DUP3 SWAP1 PUSH1 0x0 MSTORE PUSH1 0x20 PUSH1 0x0 KECCAK256 SWAP1 PUSH1 0x3 MUL ADD PUSH1 0x40 MLOAD DUP1 PUSH1 0x60 ADD PUSH1 0x40 MSTORE SWAP1 DUP2 PUSH1 0x0 DUP3 ADD SLOAD DUP2 MSTORE PUSH1 0x20 ADD PUSH1 0x1 DUP3 ADD SLOAD DUP2 MSTORE PUSH1 0x20 ADD PUSH1 0x2 DUP3 ADD SLOAD DUP2 MSTORE POP POP DUP2 MSTORE PUSH1 0x20 ADD SWAP1 PUSH1 0x1 ADD SWAP1 PUSH2 0x1130 JUMP JUMPDEST POP POP POP POP DUP2 MSTORE POP POP SWAP1 POP SWAP2 SWAP1 POP JUMP JUMPDEST PUSH1 0x0 PUSH1 0x1 PUSH1 0x0 DUP5 PUSH20 0xFFFFFFFFFFFFFFFFFFFFFFFFFFFFFFFFFFFFFFFF AND PUSH20 0xFFFFFFFFFFFFFFFFFFFFFFFFFFFFFFFFFFFFFFFF AND DUP2 MSTORE PUSH1 0x20 ADD SWAP1 DUP2 MSTORE PUSH1 0x20 ADD PUSH1 0x0 KECCAK256 PUSH1 0x0 DUP4 PUSH20 0xFFFFFFFFFFFFFFFFFFFFFFFFFFFFFFFFFFFFFFFF AND PUSH20 0xFFFFFFFFFFFFFFFFFFFFFFFFFFFFFFFFFFFFFFFF AND DUP2 MSTORE PUSH1 0x20 ADD SWAP1 DUP2 MSTORE PUSH1 0x20 ADD PUSH1 0x0 KECCAK256 SLOAD SWAP1 POP SWAP3 SWAP2 POP POP JUMP JUMPDEST PUSH1 0x0 CALLER SWAP1 POP SWAP1 JUMP JUMPDEST PUSH1 0x0 PUSH20 0xFFFFFFFFFFFFFFFFFFFFFFFFFFFFFFFFFFFFFFFF AND DUP4 PUSH20 0xFFFFFFFFFFFFFFFFFFFFFFFFFFFFFFFFFFFFFFFF AND SUB PUSH2 0x128D JUMPI PUSH1 0x40 MLOAD PUSH32 0x8C379A000000000000000000000000000000000000000000000000000000000 DUP2 MSTORE PUSH1 0x4 ADD PUSH2 0x1284 SWAP1 PUSH2 0x212F JUMP JUMPDEST PUSH1 0x40 MLOAD DUP1 SWAP2 SUB SWAP1 REVERT JUMPDEST PUSH1 0x0 PUSH20 0xFFFFFFFFFFFFFFFFFFFFFFFFFFFFFFFFFFFFFFFF AND DUP3 PUSH20 0xFFFFFFFFFFFFFFFFFFFFFFFFFFFFFFFFFFFFFFFF AND SUB PUSH2 0x12FC JUMPI PUSH1 0x40 MLOAD PUSH32 0x8C379A000000000000000000000000000000000000000000000000000000000 DUP2 MSTORE PUSH1 0x4 ADD PUSH2 0x12F3 SWAP1 PUSH2 0x21C1 JUMP JUMPDEST PUSH1 0x40 MLOAD DUP1 SWAP2 SUB SWAP1 REVERT JUMPDEST DUP1 PUSH1 0x1 PUSH1 0x0 DUP6 PUSH20 0xFFFFFFFFFFFFFFFFFFFFFFFFFFFFFFFFFFFFFFFF AND PUSH20 0xFFFFFFFFFFFFFFFFFFFFFFFFFFFFFFFFFFFFFFFF AND DUP2 MSTORE PUSH1 0x20 ADD SWAP1 DUP2 MSTORE PUSH1 0x20 ADD PUSH1 0x0 KECCAK256 PUSH1 0x0 DUP5 PUSH20 0xFFFFFFFFFFFFFFFFFFFFFFFFFFFFFFFFFFFFFFFF AND PUSH20 0xFFFFFFFFFFFFFFFFFFFFFFFFFFFFFFFFFFFFFFFF AND DUP2 MSTORE PUSH1 0x20 ADD SWAP1 DUP2 MSTORE PUSH1 0x20 ADD PUSH1 0x0 KECCAK256 DUP2 SWAP1 SSTORE POP DUP2 PUSH20 0xFFFFFFFFFFFFFFFFFFFFFFFFFFFFFFFFFFFFFFFF AND DUP4 PUSH20 0xFFFFFFFFFFFFFFFFFFFFFFFFFFFFFFFFFFFFFFFF AND PUSH32 0x8C5BE1E5EBEC7D5BD14F71427D1E84F3DD0314C0F7B2291E5B200AC8C7C3B925 DUP4 PUSH1 0x40 MLOAD PUSH2 0x13DA SWAP2 SWAP1 PUSH2 0x1B74 JUMP JUMPDEST PUSH1 0x40 MLOAD DUP1 SWAP2 SUB SWAP1 LOG3 POP POP POP JUMP JUMPDEST PUSH1 0x0 PUSH20 0xFFFFFFFFFFFFFFFFFFFFFFFFFFFFFFFFFFFFFFFF AND DUP4 PUSH20 0xFFFFFFFFFFFFFFFFFFFFFFFFFFFFFFFFFFFFFFFF AND SUB PUSH2 0x1456 JUMPI PUSH1 0x40 MLOAD PUSH32 0x8C379A000000000000000000000000000000000000000000000000000000000 DUP2 MSTORE PUSH1 0x4 ADD PUSH2 0x144D SWAP1 PUSH2 0x2253 JUMP JUMPDEST PUSH1 0x40 MLOAD DUP1 SWAP2 SUB SWAP1 REVERT JUMPDEST PUSH1 0x0 PUSH20 0xFFFFFFFFFFFFFFFFFFFFFFFFFFFFFFFFFFFFFFFF AND DUP3 PUSH20 0xFFFFFFFFFFFFFFFFFFFFFFFFFFFFFFFFFFFFFFFF AND SUB PUSH2 0x14C5 JUMPI PUSH1 0x40 MLOAD PUSH32 0x8C379A000000000000000000000000000000000000000000000000000000000 DUP2 MSTORE PUSH1 0x4 ADD PUSH2 0x14BC SWAP1 PUSH2 0x22E5 JUMP JUMPDEST PUSH1 0x40 MLOAD DUP1 SWAP2 SUB SWAP1 REVERT JUMPDEST PUSH2 0x14D0 DUP4 DUP4 DUP4 PUSH2 0x1980 JUMP JUMPDEST PUSH1 0x0 DUP1 PUSH1 0x0 DUP6 PUSH20 0xFFFFFFFFFFFFFFFFFFFFFFFFFFFFFFFFFFFFFFFF AND PUSH20 0xFFFFFFFFFFFFFFFFFFFFFFFFFFFFFFFFFFFFFFFF AND DUP2 MSTORE PUSH1 0x20 ADD SWAP1 DUP2 MSTORE PUSH1 0x20 ADD PUSH1 0x0 KECCAK256 SLOAD SWAP1 POP DUP2 DUP2 LT ISZERO PUSH2 0x1556 JUMPI PUSH1 0x40 MLOAD PUSH32 0x8C379A000000000000000000000000000000000000000000000000000000000 DUP2 MSTORE PUSH1 0x4 ADD PUSH2 0x154D SWAP1 PUSH2 0x2377 JUMP JUMPDEST PUSH1 0x40 MLOAD DUP1 SWAP2 SUB SWAP1 REVERT JUMPDEST DUP2 DUP2 SUB PUSH1 0x0 DUP1 DUP7 PUSH20 0xFFFFFFFFFFFFFFFFFFFFFFFFFFFFFFFFFFFFFFFF AND PUSH20 0xFFFFFFFFFFFFFFFFFFFFFFFFFFFFFFFFFFFFFFFF AND DUP2 MSTORE PUSH1 0x20 ADD SWAP1 DUP2 MSTORE PUSH1 0x20 ADD PUSH1 0x0 KECCAK256 DUP2 SWAP1 SSTORE POP DUP2 PUSH1 0x0 DUP1 DUP6 PUSH20 0xFFFFFFFFFFFFFFFFFFFFFFFFFFFFFFFFFFFFFFFF AND PUSH20 0xFFFFFFFFFFFFFFFFFFFFFFFFFFFFFFFFFFFFFFFF AND DUP2 MSTORE PUSH1 0x20 ADD SWAP1 DUP2 MSTORE PUSH1 0x20 ADD PUSH1 0x0 KECCAK256 PUSH1 0x0 DUP3 DUP3 SLOAD ADD SWAP3 POP POP DUP2 SWAP1 SSTORE POP DUP3 PUSH20 0xFFFFFFFFFFFFFFFFFFFFFFFFFFFFFFFFFFFFFFFF AND DUP5 PUSH20 0xFFFFFFFFFFFFFFFFFFFFFFFFFFFFFFFFFFFFFFFF AND PUSH32 0xDDF252AD1BE2C89B69C2B068FC378DAA952BA7F163C4A11628F55A4DF523B3EF DUP5 PUSH1 0x40 MLOAD PUSH2 0x1644 SWAP2 SWAP1 PUSH2 0x1B74 JUMP JUMPDEST PUSH1 0x40 MLOAD DUP1 SWAP2 SUB SWAP1 LOG3 PUSH2 0x1657 DUP5 DUP5 DUP5 PUSH2 0x1985 JUMP JUMPDEST POP POP POP POP JUMP JUMPDEST PUSH1 0x0 PUSH20 0xFFFFFFFFFFFFFFFFFFFFFFFFFFFFFFFFFFFFFFFF AND DUP3 PUSH20 0xFFFFFFFFFFFFFFFFFFFFFFFFFFFFFFFFFFFFFFFF AND SUB PUSH2 0x16CC JUMPI PUSH1 0x40 MLOAD PUSH32 0x8C379A000000000000000000000000000000000000000000000000000000000 DUP2 MSTORE PUSH1 0x4 ADD PUSH2 0x16C3 SWAP1 PUSH2 0x2409 JUMP JUMPDEST PUSH1 0x40 MLOAD DUP1 SWAP2 SUB SWAP1 REVERT JUMPDEST PUSH2 0x16D8 DUP3 PUSH1 0x0 DUP4 PUSH2 0x1980 JUMP JUMPDEST PUSH1 0x0 DUP1 PUSH1 0x0 DUP5 PUSH20 0xFFFFFFFFFFFFFFFFFFFFFFFFFFFFFFFFFFFFFFFF AND PUSH20 0xFFFFFFFFFFFFFFFFFFFFFFFFFFFFFFFFFFFFFFFF AND DUP2 MSTORE PUSH1 0x20 ADD SWAP1 DUP2 MSTORE PUSH1 0x20 ADD PUSH1 0x0 KECCAK256 SLOAD SWAP1 POP DUP2 DUP2 LT ISZERO PUSH2 0x175E JUMPI PUSH1 0x40 MLOAD PUSH32 0x8C379A000000000000000000000000000000000000000000000000000000000 DUP2 MSTORE PUSH1 0x4 ADD PUSH2 0x1755 SWAP1 PUSH2 0x249B JUMP JUMPDEST PUSH1 0x40 MLOAD DUP1 SWAP2 SUB SWAP1 REVERT JUMPDEST DUP2 DUP2 SUB PUSH1 0x0 DUP1 DUP6 PUSH20 0xFFFFFFFFFFFFFFFFFFFFFFFFFFFFFFFFFFFFFFFF AND PUSH20 0xFFFFFFFFFFFFFFFFFFFFFFFFFFFFFFFFFFFFFFFF AND DUP2 MSTORE PUSH1 0x20 ADD SWAP1 DUP2 MSTORE PUSH1 0x20 ADD PUSH1 0x0 KECCAK256 DUP2 SWAP1 SSTORE POP DUP2 PUSH1 0x2 PUSH1 0x0 DUP3 DUP3 SLOAD SUB SWAP3 POP POP DUP2 SWAP1 SSTORE POP PUSH1 0x0 PUSH20 0xFFFFFFFFFFFFFFFFFFFFFFFFFFFFFFFFFFFFFFFF AND DUP4 PUSH20 0xFFFFFFFFFFFFFFFFFFFFFFFFFFFFFFFFFFFFFFFF AND PUSH32 0xDDF252AD1BE2C89B69C2B068FC378DAA952BA7F163C4A11628F55A4DF523B3EF DUP5 PUSH1 0x40 MLOAD PUSH2 0x1811 SWAP2 SWAP1 PUSH2 0x1B74 JUMP JUMPDEST PUSH1 0x40 MLOAD DUP1 SWAP2 SUB SWAP1 LOG3 PUSH2 0x1825 DUP4 PUSH1 0x0 DUP5 PUSH2 0x1985 JUMP JUMPDEST POP POP POP JUMP JUMPDEST PUSH1 0x0 PUSH20 0xFFFFFFFFFFFFFFFFFFFFFFFFFFFFFFFFFFFFFFFF AND DUP3 PUSH20 0xFFFFFFFFFFFFFFFFFFFFFFFFFFFFFFFFFFFFFFFF AND SUB PUSH2 0x1899 JUMPI PUSH1 0x40 MLOAD PUSH32 0x8C379A000000000000000000000000000000000000000000000000000000000 DUP2 MSTORE PUSH1 0x4 ADD PUSH2 0x1890 SWAP1 PUSH2 0x2507 JUMP JUMPDEST PUSH1 0x40 MLOAD DUP1 SWAP2 SUB SWAP1 REVERT JUMPDEST PUSH2 0x18A5 PUSH1 0x0 DUP4 DUP4 PUSH2 0x1980 JUMP JUMPDEST DUP1 PUSH1 0x2 PUSH1 0x0 DUP3 DUP3 SLOAD PUSH2 0x18B7 SWAP2 SWAP1 PUSH2 0x1F8B JUMP JUMPDEST SWAP3 POP POP DUP2 SWAP1 SSTORE POP DUP1 PUSH1 0x0 DUP1 DUP5 PUSH20 0xFFFFFFFFFFFFFFFFFFFFFFFFFFFFFFFFFFFFFFFF AND PUSH20 0xFFFFFFFFFFFFFFFFFFFFFFFFFFFFFFFFFFFFFFFF AND DUP2 MSTORE PUSH1 0x20 ADD SWAP1 DUP2 MSTORE PUSH1 0x20 ADD PUSH1 0x0 KECCAK256 PUSH1 0x0 DUP3 DUP3 SLOAD ADD SWAP3 POP POP DUP2 SWAP1 SSTORE POP DUP2 PUSH20 0xFFFFFFFFFFFFFFFFFFFFFFFFFFFFFFFFFFFFFFFF AND PUSH1 0x0 PUSH20 0xFFFFFFFFFFFFFFFFFFFFFFFFFFFFFFFFFFFFFFFF AND PUSH32 0xDDF252AD1BE2C89B69C2B068FC378DAA952BA7F163C4A11628F55A4DF523B3EF DUP4 PUSH1 0x40 MLOAD PUSH2 0x1968 SWAP2 SWAP1 PUSH2 0x1B74 JUMP JUMPDEST PUSH1 0x40 MLOAD DUP1 SWAP2 SUB SWAP1 LOG3 PUSH2 0x197C PUSH1 0x0 DUP4 DUP4 PUSH2 0x1985 JUMP JUMPDEST POP POP JUMP JUMPDEST POP POP POP JUMP JUMPDEST POP POP POP JUMP JUMPDEST PUSH1 0x40 MLOAD DUP1 PUSH1 0x40 ADD PUSH1 0x40 MSTORE DUP1 PUSH1 0x0 DUP2 MSTORE PUSH1 0x20 ADD PUSH1 0x60 DUP2 MSTORE POP SWAP1 JUMP JUMPDEST PUSH1 0x0 DUP2 MLOAD SWAP1 POP SWAP2 SWAP1 POP JUMP JUMPDEST PUSH1 0x0 DUP3 DUP3 MSTORE PUSH1 0x20 DUP3 ADD SWAP1 POP SWAP3 SWAP2 POP POP JUMP JUMPDEST PUSH1 0x0 JUMPDEST DUP4 DUP2 LT ISZERO PUSH2 0x19DE JUMPI DUP1 DUP3 ADD MLOAD DUP2 DUP5 ADD MSTORE PUSH1 0x20 DUP2 ADD SWAP1 POP PUSH2 0x19C3 JUMP JUMPDEST PUSH1 0x0 DUP5 DUP5 ADD MSTORE POP POP POP POP JUMP JUMPDEST PUSH1 0x0 PUSH1 0x1F NOT PUSH1 0x1F DUP4 ADD AND SWAP1 POP SWAP2 SWAP1 POP JUMP JUMPDEST PUSH1 0x0 PUSH2 0x1A06 DUP3 PUSH2 0x19A4 JUMP JUMPDEST PUSH2 0x1A10 DUP2 DUP6 PUSH2 0x19AF JUMP JUMPDEST SWAP4 POP PUSH2 0x1A20 DUP2 DUP6 PUSH1 0x20 DUP7 ADD PUSH2 0x19C0 JUMP JUMPDEST PUSH2 0x1A29 DUP2 PUSH2 0x19EA JUMP JUMPDEST DUP5 ADD SWAP2 POP POP SWAP3 SWAP2 POP POP JUMP JUMPDEST PUSH1 0x0 PUSH1 0x20 DUP3 ADD SWAP1 POP DUP2 DUP2 SUB PUSH1 0x0 DUP4 ADD MSTORE PUSH2 0x1A4E DUP2 DUP5 PUSH2 0x19FB JUMP JUMPDEST SWAP1 POP SWAP3 SWAP2 POP POP JUMP JUMPDEST PUSH1 0x0 DUP1 REVERT JUMPDEST PUSH1 0x0 PUSH20 0xFFFFFFFFFFFFFFFFFFFFFFFFFFFFFFFFFFFFFFFF DUP3 AND SWAP1 POP SWAP2 SWAP1 POP JUMP JUMPDEST PUSH1 0x0 PUSH2 0x1A86 DUP3 PUSH2 0x1A5B JUMP JUMPDEST SWAP1 POP SWAP2 SWAP1 POP JUMP JUMPDEST PUSH2 0x1A96 DUP2 PUSH2 0x1A7B JUMP JUMPDEST DUP2 EQ PUSH2 0x1AA1 JUMPI PUSH1 0x0 DUP1 REVERT JUMPDEST POP JUMP JUMPDEST PUSH1 0x0 DUP2 CALLDATALOAD SWAP1 POP PUSH2 0x1AB3 DUP2 PUSH2 0x1A8D JUMP JUMPDEST SWAP3 SWAP2 POP POP JUMP JUMPDEST PUSH1 0x0 DUP2 SWAP1 POP SWAP2 SWAP1 POP JUMP JUMPDEST PUSH2 0x1ACC DUP2 PUSH2 0x1AB9 JUMP JUMPDEST DUP2 EQ PUSH2 0x1AD7 JUMPI PUSH1 0x0 DUP1 REVERT JUMPDEST POP JUMP JUMPDEST PUSH1 0x0 DUP2 CALLDATALOAD SWAP1 POP PUSH2 0x1AE9 DUP2 PUSH2 0x1AC3 JUMP JUMPDEST SWAP3 SWAP2 POP POP JUMP JUMPDEST PUSH1 0x0 DUP1 PUSH1 0x40 DUP4 DUP6 SUB SLT ISZERO PUSH2 0x1B06 JUMPI PUSH2 0x1B05 PUSH2 0x1A56 JUMP JUMPDEST JUMPDEST PUSH1 0x0 PUSH2 0x1B14 DUP6 DUP3 DUP7 ADD PUSH2 0x1AA4 JUMP JUMPDEST SWAP3 POP POP PUSH1 0x20 PUSH2 0x1B25 DUP6 DUP3 DUP7 ADD PUSH2 0x1ADA JUMP JUMPDEST SWAP2 POP POP SWAP3 POP SWAP3 SWAP1 POP JUMP JUMPDEST PUSH1 0x0 DUP2 ISZERO ISZERO SWAP1 POP SWAP2 SWAP1 POP JUMP JUMPDEST PUSH2 0x1B44 DUP2 PUSH2 0x1B2F JUMP JUMPDEST DUP3 MSTORE POP POP JUMP JUMPDEST PUSH1 0x0 PUSH1 0x20 DUP3 ADD SWAP1 POP PUSH2 0x1B5F PUSH1 0x0 DUP4 ADD DUP5 PUSH2 0x1B3B JUMP JUMPDEST SWAP3 SWAP2 POP POP JUMP JUMPDEST PUSH2 0x1B6E DUP2 PUSH2 0x1AB9 JUMP JUMPDEST DUP3 MSTORE POP POP JUMP JUMPDEST PUSH1 0x0 PUSH1 0x20 DUP3 ADD SWAP1 POP PUSH2 0x1B89 PUSH1 0x0 DUP4 ADD DUP5 PUSH2 0x1B65 JUMP JUMPDEST SWAP3 SWAP2 POP POP JUMP JUMPDEST PUSH1 0x0 PUSH1 0x20 DUP3 DUP5 SUB SLT ISZERO PUSH2 0x1BA5 JUMPI PUSH2 0x1BA4 PUSH2 0x1A56 JUMP JUMPDEST JUMPDEST PUSH1 0x0 PUSH2 0x1BB3 DUP5 DUP3 DUP6 ADD PUSH2 0x1AA4 JUMP JUMPDEST SWAP2 POP POP SWAP3 SWAP2 POP POP JUMP JUMPDEST PUSH1 0x0 DUP1 PUSH1 0x0 PUSH1 0x60 DUP5 DUP7 SUB SLT ISZERO PUSH2 0x1BD5 JUMPI PUSH2 0x1BD4 PUSH2 0x1A56 JUMP JUMPDEST JUMPDEST PUSH1 0x0 PUSH2 0x1BE3 DUP7 DUP3 DUP8 ADD PUSH2 0x1AA4 JUMP JUMPDEST SWAP4 POP POP PUSH1 0x20 PUSH2 0x1BF4 DUP7 DUP3 DUP8 ADD PUSH2 0x1AA4 JUMP JUMPDEST SWAP3 POP POP PUSH1 0x40 PUSH2 0x1C05 DUP7 DUP3 DUP8 ADD PUSH2 0x1ADA JUMP JUMPDEST SWAP2 POP POP SWAP3 POP SWAP3 POP SWAP3 JUMP JUMPDEST PUSH1 0x0 PUSH1 0xFF DUP3 AND SWAP1 POP SWAP2 SWAP1 POP JUMP JUMPDEST PUSH2 0x1C25 DUP2 PUSH2 0x1C0F JUMP JUMPDEST DUP3 MSTORE POP POP JUMP JUMPDEST PUSH1 0x0 PUSH1 0x20 DUP3 ADD SWAP1 POP PUSH2 0x1C40 PUSH1 0x0 DUP4 ADD DUP5 PUSH2 0x1C1C JUMP JUMPDEST SWAP3 SWAP2 POP POP JUMP JUMPDEST PUSH2 0x1C4F DUP2 PUSH2 0x1AB9 JUMP JUMPDEST DUP3 MSTORE POP POP JUMP JUMPDEST PUSH1 0x0 DUP2 MLOAD SWAP1 POP SWAP2 SWAP1 POP JUMP JUMPDEST PUSH1 0x0 DUP3 DUP3 MSTORE PUSH1 0x20 DUP3 ADD SWAP1 POP SWAP3 SWAP2 POP POP JUMP JUMPDEST PUSH1 0x0 DUP2 SWAP1 POP PUSH1 0x20 DUP3 ADD SWAP1 POP SWAP2 SWAP1 POP JUMP JUMPDEST PUSH1 0x60 DUP3 ADD PUSH1 0x0 DUP3 ADD MLOAD PUSH2 0x1C97 PUSH1 0x0 DUP6 ADD DUP3 PUSH2 0x1C46 JUMP JUMPDEST POP PUSH1 0x20 DUP3 ADD MLOAD PUSH2 0x1CAA PUSH1 0x20 DUP6 ADD DUP3 PUSH2 0x1C46 JUMP JUMPDEST POP PUSH1 0x40 DUP3 ADD MLOAD PUSH2 0x1CBD PUSH1 0x40 DUP6 ADD DUP3 PUSH2 0x1C46 JUMP JUMPDEST POP POP POP POP JUMP JUMPDEST PUSH1 0x0 PUSH2 0x1CCF DUP4 DUP4 PUSH2 0x1C81 JUMP JUMPDEST PUSH1 0x60 DUP4 ADD SWAP1 POP SWAP3 SWAP2 POP POP JUMP JUMPDEST PUSH1 0x0 PUSH1 0x20 DUP3 ADD SWAP1 POP SWAP2 SWAP1 POP JUMP JUMPDEST PUSH1 0x0 PUSH2 0x1CF3 DUP3 PUSH2 0x1C55 JUMP JUMPDEST PUSH2 0x1CFD DUP2 DUP6 PUSH2 0x1C60 JUMP JUMPDEST SWAP4 POP PUSH2 0x1D08 DUP4 PUSH2 0x1C71 JUMP JUMPDEST DUP1 PUSH1 0x0 JUMPDEST DUP4 DUP2 LT ISZERO PUSH2 0x1D39 JUMPI DUP2 MLOAD PUSH2 0x1D20 DUP9 DUP3 PUSH2 0x1CC3 JUMP JUMPDEST SWAP8 POP PUSH2 0x1D2B DUP4 PUSH2 0x1CDB JUMP JUMPDEST SWAP3 POP POP PUSH1 0x1 DUP2 ADD SWAP1 POP PUSH2 0x1D0C JUMP JUMPDEST POP DUP6 SWAP4 POP POP POP POP SWAP3 SWAP2 POP POP JUMP JUMPDEST PUSH1 0x0 PUSH1 0x40 DUP4 ADD PUSH1 0x0 DUP4 ADD MLOAD PUSH2 0x1D5E PUSH1 0x0 DUP7 ADD DUP3 PUSH2 0x1C46 JUMP JUMPDEST POP PUSH1 0x20 DUP4 ADD MLOAD DUP5 DUP3 SUB PUSH1 0x20 DUP7 ADD MSTORE PUSH2 0x1D76 DUP3 DUP3 PUSH2 0x1CE8 JUMP JUMPDEST SWAP2 POP POP DUP1 SWAP2 POP POP SWAP3 SWAP2 POP POP JUMP JUMPDEST PUSH1 0x0 PUSH1 0x20 DUP3 ADD SWAP1 POP DUP2 DUP2 SUB PUSH1 0x0 DUP4 ADD MSTORE PUSH2 0x1D9D DUP2 DUP5 PUSH2 0x1D46 JUMP JUMPDEST SWAP1 POP SWAP3 SWAP2 POP POP JUMP JUMPDEST PUSH1 0x0 DUP1 PUSH1 0x40 DUP4 DUP6 SUB SLT ISZERO PUSH2 0x1DBC JUMPI PUSH2 0x1DBB PUSH2 0x1A56 JUMP JUMPDEST JUMPDEST PUSH1 0x0 PUSH2 0x1DCA DUP6 DUP3 DUP7 ADD PUSH2 0x1AA4 JUMP JUMPDEST SWAP3 POP POP PUSH1 0x20 PUSH2 0x1DDB DUP6 DUP3 DUP7 ADD PUSH2 0x1AA4 JUMP JUMPDEST SWAP2 POP POP SWAP3 POP SWAP3 SWAP1 POP JUMP JUMPDEST PUSH32 0x4E487B7100000000000000000000000000000000000000000000000000000000 PUSH1 0x0 MSTORE PUSH1 0x22 PUSH1 0x4 MSTORE PUSH1 0x24 PUSH1 0x0 REVERT JUMPDEST PUSH1 0x0 PUSH1 0x2 DUP3 DIV SWAP1 POP PUSH1 0x1 DUP3 AND DUP1 PUSH2 0x1E2C JUMPI PUSH1 0x7F DUP3 AND SWAP2 POP JUMPDEST PUSH1 0x20 DUP3 LT DUP2 SUB PUSH2 0x1E3F JUMPI PUSH2 0x1E3E PUSH2 0x1DE5 JUMP JUMPDEST JUMPDEST POP SWAP2 SWAP1 POP JUMP JUMPDEST PUSH32 0x4E6F7420456E6F75676820746F6B656E73210000000000000000000000000000 PUSH1 0x0 DUP3 ADD MSTORE POP JUMP JUMPDEST PUSH1 0x0 PUSH2 0x1E7B PUSH1 0x12 DUP4 PUSH2 0x19AF JUMP JUMPDEST SWAP2 POP PUSH2 0x1E86 DUP3 PUSH2 0x1E45 JUMP JUMPDEST PUSH1 0x20 DUP3 ADD SWAP1 POP SWAP2 SWAP1 POP JUMP JUMPDEST PUSH1 0x0 PUSH1 0x20 DUP3 ADD SWAP1 POP DUP2 DUP2 SUB PUSH1 0x0 DUP4 ADD MSTORE PUSH2 0x1EAA DUP2 PUSH2 0x1E6E JUMP JUMPDEST SWAP1 POP SWAP2 SWAP1 POP JUMP JUMPDEST PUSH32 0x4E487B7100000000000000000000000000000000000000000000000000000000 PUSH1 0x0 MSTORE PUSH1 0x32 PUSH1 0x4 MSTORE PUSH1 0x24 PUSH1 0x0 REVERT JUMPDEST PUSH32 0x4E487B7100000000000000000000000000000000000000000000000000000000 PUSH1 0x0 MSTORE PUSH1 0x11 PUSH1 0x4 MSTORE PUSH1 0x24 PUSH1 0x0 REVERT JUMPDEST PUSH1 0x0 PUSH2 0x1F1A DUP3 PUSH2 0x1AB9 JUMP JUMPDEST SWAP2 POP PUSH2 0x1F25 DUP4 PUSH2 0x1AB9 JUMP JUMPDEST SWAP3 POP DUP3 DUP3 SUB SWAP1 POP DUP2 DUP2 GT ISZERO PUSH2 0x1F3D JUMPI PUSH2 0x1F3C PUSH2 0x1EE0 JUMP JUMPDEST JUMPDEST SWAP3 SWAP2 POP POP JUMP JUMPDEST PUSH1 0x0 PUSH2 0x1F4E DUP3 PUSH2 0x1AB9 JUMP JUMPDEST SWAP2 POP PUSH32 0xFFFFFFFFFFFFFFFFFFFFFFFFFFFFFFFFFFFFFFFFFFFFFFFFFFFFFFFFFFFFFFFF DUP3 SUB PUSH2 0x1F80 JUMPI PUSH2 0x1F7F PUSH2 0x1EE0 JUMP JUMPDEST JUMPDEST PUSH1 0x1 DUP3 ADD SWAP1 POP SWAP2 SWAP1 POP JUMP JUMPDEST PUSH1 0x0 PUSH2 0x1F96 DUP3 PUSH2 0x1AB9 JUMP JUMPDEST SWAP2 POP PUSH2 0x1FA1 DUP4 PUSH2 0x1AB9 JUMP JUMPDEST SWAP3 POP DUP3 DUP3 ADD SWAP1 POP DUP1 DUP3 GT ISZERO PUSH2 0x1FB9 JUMPI PUSH2 0x1FB8 PUSH2 0x1EE0 JUMP JUMPDEST JUMPDEST SWAP3 SWAP2 POP POP JUMP JUMPDEST PUSH32 0x4E6F7420417574686F72697A6564210000000000000000000000000000000000 PUSH1 0x0 DUP3 ADD MSTORE POP JUMP JUMPDEST PUSH1 0x0 PUSH2 0x1FF5 PUSH1 0xF DUP4 PUSH2 0x19AF JUMP JUMPDEST SWAP2 POP PUSH2 0x2000 DUP3 PUSH2 0x1FBF JUMP JUMPDEST PUSH1 0x20 DUP3 ADD SWAP1 POP SWAP2 SWAP1 POP JUMP JUMPDEST PUSH1 0x0 PUSH1 0x20 DUP3 ADD SWAP1 POP DUP2 DUP2 SUB PUSH1 0x0 DUP4 ADD MSTORE PUSH2 0x2024 DUP2 PUSH2 0x1FE8 JUMP JUMPDEST SWAP1 POP SWAP2 SWAP1 POP JUMP JUMPDEST PUSH32 0x45524332303A2064656372656173656420616C6C6F77616E63652062656C6F77 PUSH1 0x0 DUP3 ADD MSTORE PUSH32 0x207A65726F000000000000000000000000000000000000000000000000000000 PUSH1 0x20 DUP3 ADD MSTORE POP JUMP JUMPDEST PUSH1 0x0 PUSH2 0x2087 PUSH1 0x25 DUP4 PUSH2 0x19AF JUMP JUMPDEST SWAP2 POP PUSH2 0x2092 DUP3 PUSH2 0x202B JUMP JUMPDEST PUSH1 0x40 DUP3 ADD SWAP1 POP SWAP2 SWAP1 POP JUMP JUMPDEST PUSH1 0x0 PUSH1 0x20 DUP3 ADD SWAP1 POP DUP2 DUP2 SUB PUSH1 0x0 DUP4 ADD MSTORE PUSH2 0x20B6 DUP2 PUSH2 0x207A JUMP JUMPDEST SWAP1 POP SWAP2 SWAP1 POP JUMP JUMPDEST PUSH32 0x45524332303A20617070726F76652066726F6D20746865207A65726F20616464 PUSH1 0x0 DUP3 ADD MSTORE PUSH32 0x7265737300000000000000000000000000000000000000000000000000000000 PUSH1 0x20 DUP3 ADD MSTORE POP JUMP JUMPDEST PUSH1 0x0 PUSH2 0x2119 PUSH1 0x24 DUP4 PUSH2 0x19AF JUMP JUMPDEST SWAP2 POP PUSH2 0x2124 DUP3 PUSH2 0x20BD JUMP JUMPDEST PUSH1 0x40 DUP3 ADD SWAP1 POP SWAP2 SWAP1 POP JUMP JUMPDEST PUSH1 0x0 PUSH1 0x20 DUP3 ADD SWAP1 POP DUP2 DUP2 SUB PUSH1 0x0 DUP4 ADD MSTORE PUSH2 0x2148 DUP2 PUSH2 0x210C JUMP JUMPDEST SWAP1 POP SWAP2 SWAP1 POP JUMP JUMPDEST PUSH32 0x45524332303A20617070726F766520746F20746865207A65726F206164647265 PUSH1 0x0 DUP3 ADD MSTORE PUSH32 0x7373000000000000000000000000000000000000000000000000000000000000 PUSH1 0x20 DUP3 ADD MSTORE POP JUMP JUMPDEST PUSH1 0x0 PUSH2 0x21AB PUSH1 0x22 DUP4 PUSH2 0x19AF JUMP JUMPDEST SWAP2 POP PUSH2 0x21B6 DUP3 PUSH2 0x214F JUMP JUMPDEST PUSH1 0x40 DUP3 ADD SWAP1 POP SWAP2 SWAP1 POP JUMP JUMPDEST PUSH1 0x0 PUSH1 0x20 DUP3 ADD SWAP1 POP DUP2 DUP2 SUB PUSH1 0x0 DUP4 ADD MSTORE PUSH2 0x21DA DUP2 PUSH2 0x219E JUMP JUMPDEST SWAP1 POP SWAP2 SWAP1 POP JUMP JUMPDEST PUSH32 0x45524332303A207472616E736665722066726F6D20746865207A65726F206164 PUSH1 0x0 DUP3 ADD MSTORE PUSH32 0x6472657373000000000000000000000000000000000000000000000000000000 PUSH1 0x20 DUP3 ADD MSTORE POP JUMP JUMPDEST PUSH1 0x0 PUSH2 0x223D PUSH1 0x25 DUP4 PUSH2 0x19AF JUMP JUMPDEST SWAP2 POP PUSH2 0x2248 DUP3 PUSH2 0x21E1 JUMP JUMPDEST PUSH1 0x40 DUP3 ADD SWAP1 POP SWAP2 SWAP1 POP JUMP JUMPDEST PUSH1 0x0 PUSH1 0x20 DUP3 ADD SWAP1 POP DUP2 DUP2 SUB PUSH1 0x0 DUP4 ADD MSTORE PUSH2 0x226C DUP2 PUSH2 0x2230 JUMP JUMPDEST SWAP1 POP SWAP2 SWAP1 POP JUMP JUMPDEST PUSH32 0x45524332303A207472616E7366657220746F20746865207A65726F2061646472 PUSH1 0x0 DUP3 ADD MSTORE PUSH32 0x6573730000000000000000000000000000000000000000000000000000000000 PUSH1 0x20 DUP3 ADD MSTORE POP JUMP JUMPDEST PUSH1 0x0 PUSH2 0x22CF PUSH1 0x23 DUP4 PUSH2 0x19AF JUMP JUMPDEST SWAP2 POP PUSH2 0x22DA DUP3 PUSH2 0x2273 JUMP JUMPDEST PUSH1 0x40 DUP3 ADD SWAP1 POP SWAP2 SWAP1 POP JUMP JUMPDEST PUSH1 0x0 PUSH1 0x20 DUP3 ADD SWAP1 POP DUP2 DUP2 SUB PUSH1 0x0 DUP4 ADD MSTORE PUSH2 0x22FE DUP2 PUSH2 0x22C2 JUMP JUMPDEST SWAP1 POP SWAP2 SWAP1 POP JUMP JUMPDEST PUSH32 0x45524332303A207472616E7366657220616D6F756E7420657863656564732062 PUSH1 0x0 DUP3 ADD MSTORE PUSH32 0x616C616E63650000000000000000000000000000000000000000000000000000 PUSH1 0x20 DUP3 ADD MSTORE POP JUMP JUMPDEST PUSH1 0x0 PUSH2 0x2361 PUSH1 0x26 DUP4 PUSH2 0x19AF JUMP JUMPDEST SWAP2 POP PUSH2 0x236C DUP3 PUSH2 0x2305 JUMP JUMPDEST PUSH1 0x40 DUP3 ADD SWAP1 POP SWAP2 SWAP1 POP JUMP JUMPDEST PUSH1 0x0 PUSH1 0x20 DUP3 ADD SWAP1 POP DUP2 DUP2 SUB PUSH1 0x0 DUP4 ADD MSTORE PUSH2 0x2390 DUP2 PUSH2 0x2354 JUMP JUMPDEST SWAP1 POP SWAP2 SWAP1 POP JUMP JUMPDEST PUSH32 0x45524332303A206275726E2066726F6D20746865207A65726F20616464726573 PUSH1 0x0 DUP3 ADD MSTORE PUSH32 0x7300000000000000000000000000000000000000000000000000000000000000 PUSH1 0x20 DUP3 ADD MSTORE POP JUMP JUMPDEST PUSH1 0x0 PUSH2 0x23F3 PUSH1 0x21 DUP4 PUSH2 0x19AF JUMP JUMPDEST SWAP2 POP PUSH2 0x23FE DUP3 PUSH2 0x2397 JUMP JUMPDEST PUSH1 0x40 DUP3 ADD SWAP1 POP SWAP2 SWAP1 POP JUMP JUMPDEST PUSH1 0x0 PUSH1 0x20 DUP3 ADD SWAP1 POP DUP2 DUP2 SUB PUSH1 0x0 DUP4 ADD MSTORE PUSH2 0x2422 DUP2 PUSH2 0x23E6 JUMP JUMPDEST SWAP1 POP SWAP2 SWAP1 POP JUMP JUMPDEST PUSH32 0x45524332303A206275726E20616D6F756E7420657863656564732062616C616E PUSH1 0x0 DUP3 ADD MSTORE PUSH32 0x6365000000000000000000000000000000000000000000000000000000000000 PUSH1 0x20 DUP3 ADD MSTORE POP JUMP JUMPDEST PUSH1 0x0 PUSH2 0x2485 PUSH1 0x22 DUP4 PUSH2 0x19AF JUMP JUMPDEST SWAP2 POP PUSH2 0x2490 DUP3 PUSH2 0x2429 JUMP JUMPDEST PUSH1 0x40 DUP3 ADD SWAP1 POP SWAP2 SWAP1 POP JUMP JUMPDEST PUSH1 0x0 PUSH1 0x20 DUP3 ADD SWAP1 POP DUP2 DUP2 SUB PUSH1 0x0 DUP4 ADD MSTORE PUSH2 0x24B4 DUP2 PUSH2 0x2478 JUMP JUMPDEST SWAP1 POP SWAP2 SWAP1 POP JUMP JUMPDEST PUSH32 0x45524332303A206D696E7420746F20746865207A65726F206164647265737300 PUSH1 0x0 DUP3 ADD MSTORE POP JUMP JUMPDEST PUSH1 0x0 PUSH2 0x24F1 PUSH1 0x1F DUP4 PUSH2 0x19AF JUMP JUMPDEST SWAP2 POP PUSH2 0x24FC DUP3 PUSH2 0x24BB JUMP JUMPDEST PUSH1 0x20 DUP3 ADD SWAP1 POP SWAP2 SWAP1 POP JUMP JUMPDEST PUSH1 0x0 PUSH1 0x20 DUP3 ADD SWAP1 POP DUP2 DUP2 SUB PUSH1 0x0 DUP4 ADD MSTORE PUSH2 0x2520 DUP2 PUSH2 0x24E4 JUMP JUMPDEST SWAP1 POP SWAP2 SWAP1 POP JUMP INVALID LOG2 PUSH5 0x6970667358 0x22 SLT KECCAK256 0x29 CALLCODE 0x2A DUP12 JUMP 0xD0 0xE 0xD0 LOG3 0xA7 SWAP14 0xEB DUP16 LOG3 RETURNDATACOPY 0xED 0x23 DUP8 DUP14 LOG4 0xCC 0xC1 0xEB SWAP9 0xD9 CREATE2 0xD9 0x4A SUB CALLCODE SGT 0x2D PUSH5 0x736F6C6343 STOP ADDMOD SLT STOP CALLER "
				},
				"gasEstimates": {
					"creation": {
						"codeDepositCost": "1913000",
						"executionCost": "infinite",
						"totalCost": "infinite"
					},
					"external": {
						"allowance(address,address)": "infinite",
						"approve(address,uint256)": "infinite",
						"balanceOf(address)": "2908",
						"decimals()": "432",
						"decreaseAllowance(address,uint256)": "infinite",
						"earningHistory(address)": "infinite",
						"expireTokens(address)": "infinite",
						"increaseAllowance(address,uint256)": "infinite",
						"mint(address,uint256)": "infinite",
						"name()": "infinite",
						"symbol()": "infinite",
						"totalSupply()": "2505",
						"transfer(address,uint256)": "infinite",
						"transferFrom(address,address,uint256)": "infinite",
						"viewTokens(address)": "2870"
					}
				},
				"methodIdentifiers": {
					"allowance(address,address)": "dd62ed3e",
					"approve(address,uint256)": "095ea7b3",
					"balanceOf(address)": "70a08231",
					"decimals()": "313ce567",
					"decreaseAllowance(address,uint256)": "a457c2d7",
					"earningHistory(address)": "bbe6331b",
					"expireTokens(address)": "29db5884",
					"increaseAllowance(address,uint256)": "39509351",
					"mint(address,uint256)": "40c10f19",
					"name()": "06fdde03",
					"symbol()": "95d89b41",
					"totalSupply()": "18160ddd",
					"transfer(address,uint256)": "a9059cbb",
					"transferFrom(address,address,uint256)": "23b872dd",
					"viewTokens(address)": "2312db25"
				}
			},
			"storageLayout": {
				"storage": [
					{
						"astId": 15,
						"contract": "Programming/Node/truffle/contracts/supercoin.sol:SuperToken",
						"label": "_balances",
						"offset": 0,
						"slot": "0",
						"type": "t_mapping(t_address,t_uint256)"
					},
					{
						"astId": 21,
						"contract": "Programming/Node/truffle/contracts/supercoin.sol:SuperToken",
						"label": "_allowances",
						"offset": 0,
						"slot": "1",
						"type": "t_mapping(t_address,t_mapping(t_address,t_uint256))"
					},
					{
						"astId": 23,
						"contract": "Programming/Node/truffle/contracts/supercoin.sol:SuperToken",
						"label": "_totalSupply",
						"offset": 0,
						"slot": "2",
						"type": "t_uint256"
					},
					{
						"astId": 25,
						"contract": "Programming/Node/truffle/contracts/supercoin.sol:SuperToken",
						"label": "_name",
						"offset": 0,
						"slot": "3",
						"type": "t_string_storage"
					},
					{
						"astId": 27,
						"contract": "Programming/Node/truffle/contracts/supercoin.sol:SuperToken",
						"label": "_symbol",
						"offset": 0,
						"slot": "4",
						"type": "t_string_storage"
					},
					{
						"astId": 742,
						"contract": "Programming/Node/truffle/contracts/supercoin.sol:SuperToken",
						"label": "tokenBalance",
						"offset": 0,
						"slot": "5",
						"type": "t_mapping(t_address,t_struct(UserData)730_storage)"
					},
					{
						"astId": 747,
						"contract": "Programming/Node/truffle/contracts/supercoin.sol:SuperToken",
						"label": "tokenHistory",
						"offset": 0,
						"slot": "6",
						"type": "t_mapping(t_address,t_struct(UserHistory)737_storage)"
					},
					{
						"astId": 753,
						"contract": "Programming/Node/truffle/contracts/supercoin.sol:SuperToken",
						"label": "totalTokensIssued",
						"offset": 0,
						"slot": "7",
						"type": "t_uint256"
					},
					{
						"astId": 755,
						"contract": "Programming/Node/truffle/contracts/supercoin.sol:SuperToken",
						"label": "_owner",
						"offset": 0,
						"slot": "8",
						"type": "t_address"
					}
				],
				"types": {
					"t_address": {
						"encoding": "inplace",
						"label": "address",
						"numberOfBytes": "20"
					},
					"t_array(t_struct(TokenData)723_storage)dyn_storage": {
						"base": "t_struct(TokenData)723_storage",
						"encoding": "dynamic_array",
						"label": "struct SuperToken.TokenData[]",
						"numberOfBytes": "32"
					},
					"t_mapping(t_address,t_mapping(t_address,t_uint256))": {
						"encoding": "mapping",
						"key": "t_address",
						"label": "mapping(address => mapping(address => uint256))",
						"numberOfBytes": "32",
						"value": "t_mapping(t_address,t_uint256)"
					},
					"t_mapping(t_address,t_struct(UserData)730_storage)": {
						"encoding": "mapping",
						"key": "t_address",
						"label": "mapping(address => struct SuperToken.UserData)",
						"numberOfBytes": "32",
						"value": "t_struct(UserData)730_storage"
					},
					"t_mapping(t_address,t_struct(UserHistory)737_storage)": {
						"encoding": "mapping",
						"key": "t_address",
						"label": "mapping(address => struct SuperToken.UserHistory)",
						"numberOfBytes": "32",
						"value": "t_struct(UserHistory)737_storage"
					},
					"t_mapping(t_address,t_uint256)": {
						"encoding": "mapping",
						"key": "t_address",
						"label": "mapping(address => uint256)",
						"numberOfBytes": "32",
						"value": "t_uint256"
					},
					"t_string_storage": {
						"encoding": "bytes",
						"label": "string",
						"numberOfBytes": "32"
					},
					"t_struct(TokenData)723_storage": {
						"encoding": "inplace",
						"label": "struct SuperToken.TokenData",
						"members": [
							{
								"astId": 718,
								"contract": "Programming/Node/truffle/contracts/supercoin.sol:SuperToken",
								"label": "amount",
								"offset": 0,
								"slot": "0",
								"type": "t_uint256"
							},
							{
								"astId": 720,
								"contract": "Programming/Node/truffle/contracts/supercoin.sol:SuperToken",
								"label": "createAt",
								"offset": 0,
								"slot": "1",
								"type": "t_uint256"
							},
							{
								"astId": 722,
								"contract": "Programming/Node/truffle/contracts/supercoin.sol:SuperToken",
								"label": "expiryDate",
								"offset": 0,
								"slot": "2",
								"type": "t_uint256"
							}
						],
						"numberOfBytes": "96"
					},
					"t_struct(UserData)730_storage": {
						"encoding": "inplace",
						"label": "struct SuperToken.UserData",
						"members": [
							{
								"astId": 725,
								"contract": "Programming/Node/truffle/contracts/supercoin.sol:SuperToken",
								"label": "totalTokens",
								"offset": 0,
								"slot": "0",
								"type": "t_uint256"
							},
							{
								"astId": 729,
								"contract": "Programming/Node/truffle/contracts/supercoin.sol:SuperToken",
								"label": "tokenDetails",
								"offset": 0,
								"slot": "1",
								"type": "t_array(t_struct(TokenData)723_storage)dyn_storage"
							}
						],
						"numberOfBytes": "64"
					},
					"t_struct(UserHistory)737_storage": {
						"encoding": "inplace",
						"label": "struct SuperToken.UserHistory",
						"members": [
							{
								"astId": 732,
								"contract": "Programming/Node/truffle/contracts/supercoin.sol:SuperToken",
								"label": "totalEarning",
								"offset": 0,
								"slot": "0",
								"type": "t_uint256"
							},
							{
								"astId": 736,
								"contract": "Programming/Node/truffle/contracts/supercoin.sol:SuperToken",
								"label": "earningHistory",
								"offset": 0,
								"slot": "1",
								"type": "t_array(t_struct(TokenData)723_storage)dyn_storage"
							}
						],
						"numberOfBytes": "64"
					},
					"t_uint256": {
						"encoding": "inplace",
						"label": "uint256",
						"numberOfBytes": "32"
					}
				}
			},
			"userdoc": {
				"kind": "user",
				"methods": {},
				"version": 1
			}
		}
	}
}