{
  "contractName": "SuperToken",
  "abi": [
    {
      "inputs": [],
      "stateMutability": "nonpayable",
      "type": "constructor"
    },
    {
      "anonymous": false,
      "inputs": [
        {
          "indexed": true,
          "internalType": "address",
          "name": "owner",
          "type": "address"
        },
        {
          "indexed": true,
          "internalType": "address",
          "name": "spender",
          "type": "address"
        },
        {
          "indexed": false,
          "internalType": "uint256",
          "name": "value",
          "type": "uint256"
        }
      ],
      "name": "Approval",
      "type": "event"
    },
    {
      "anonymous": false,
      "inputs": [
        {
          "indexed": true,
          "internalType": "address",
          "name": "from",
          "type": "address"
        },
        {
          "indexed": true,
          "internalType": "address",
          "name": "to",
          "type": "address"
        },
        {
          "indexed": false,
          "internalType": "uint256",
          "name": "value",
          "type": "uint256"
        }
      ],
      "name": "Transfer",
      "type": "event"
    },
    {
      "inputs": [
        {
          "internalType": "address",
          "name": "owner",
          "type": "address"
        },
        {
          "internalType": "address",
          "name": "spender",
          "type": "address"
        }
      ],
      "name": "allowance",
      "outputs": [
        {
          "internalType": "uint256",
          "name": "",
          "type": "uint256"
        }
      ],
      "stateMutability": "view",
      "type": "function",
      "constant": true
    },
    {
      "inputs": [
        {
          "internalType": "address",
          "name": "spender",
          "type": "address"
        },
        {
          "internalType": "uint256",
          "name": "amount",
          "type": "uint256"
        }
      ],
      "name": "approve",
      "outputs": [
        {
          "internalType": "bool",
          "name": "",
          "type": "bool"
        }
      ],
      "stateMutability": "nonpayable",
      "type": "function"
    },
    {
      "inputs": [
        {
          "internalType": "address",
          "name": "account",
          "type": "address"
        }
      ],
      "name": "balanceOf",
      "outputs": [
        {
          "internalType": "uint256",
          "name": "",
          "type": "uint256"
        }
      ],
      "stateMutability": "view",
      "type": "function",
      "constant": true
    },
    {
      "inputs": [],
      "name": "decimals",
      "outputs": [
        {
          "internalType": "uint8",
          "name": "",
          "type": "uint8"
        }
      ],
      "stateMutability": "view",
      "type": "function",
      "constant": true
    },
    {
      "inputs": [
        {
          "internalType": "address",
          "name": "spender",
          "type": "address"
        },
        {
          "internalType": "uint256",
          "name": "subtractedValue",
          "type": "uint256"
        }
      ],
      "name": "decreaseAllowance",
      "outputs": [
        {
          "internalType": "bool",
          "name": "",
          "type": "bool"
        }
      ],
      "stateMutability": "nonpayable",
      "type": "function"
    },
    {
      "inputs": [
        {
          "internalType": "address",
          "name": "spender",
          "type": "address"
        },
        {
          "internalType": "uint256",
          "name": "addedValue",
          "type": "uint256"
        }
      ],
      "name": "increaseAllowance",
      "outputs": [
        {
          "internalType": "bool",
          "name": "",
          "type": "bool"
        }
      ],
      "stateMutability": "nonpayable",
      "type": "function"
    },
    {
      "inputs": [],
      "name": "name",
      "outputs": [
        {
          "internalType": "string",
          "name": "",
          "type": "string"
        }
      ],
      "stateMutability": "view",
      "type": "function",
      "constant": true
    },
    {
      "inputs": [],
      "name": "symbol",
      "outputs": [
        {
          "internalType": "string",
          "name": "",
          "type": "string"
        }
      ],
      "stateMutability": "view",
      "type": "function",
      "constant": true
    },
    {
      "inputs": [
        {
          "internalType": "address",
          "name": "to",
          "type": "address"
        },
        {
          "internalType": "uint256",
          "name": "amount",
          "type": "uint256"
        }
      ],
      "name": "transfer",
      "outputs": [
        {
          "internalType": "bool",
          "name": "",
          "type": "bool"
        }
      ],
      "stateMutability": "nonpayable",
      "type": "function"
    },
    {
      "inputs": [
        {
          "internalType": "address",
          "name": "to",
          "type": "address"
        },
        {
          "internalType": "uint256",
          "name": "amount",
          "type": "uint256"
        }
      ],
      "name": "mint",
      "outputs": [],
      "stateMutability": "nonpayable",
      "type": "function"
    },
    {
      "inputs": [
        {
          "internalType": "address",
          "name": "from",
          "type": "address"
        },
        {
          "internalType": "address",
          "name": "to",
          "type": "address"
        },
        {
          "internalType": "uint256",
          "name": "amount",
          "type": "uint256"
        }
      ],
      "name": "transferFrom",
      "outputs": [
        {
          "internalType": "bool",
          "name": "",
          "type": "bool"
        }
      ],
      "stateMutability": "nonpayable",
      "type": "function"
    },
    {
      "inputs": [
        {
          "internalType": "address",
          "name": "user",
          "type": "address"
        }
      ],
      "name": "expireTokens",
      "outputs": [],
      "stateMutability": "nonpayable",
      "type": "function"
    },
    {
      "inputs": [
        {
          "internalType": "address",
          "name": "user",
          "type": "address"
        }
      ],
      "name": "viewTokens",
      "outputs": [
        {
          "internalType": "uint256",
          "name": "",
          "type": "uint256"
        }
      ],
      "stateMutability": "view",
      "type": "function",
      "constant": true
    },
    {
      "inputs": [
        {
          "internalType": "address",
          "name": "user",
          "type": "address"
        }
      ],
      "name": "earningHistory",
      "outputs": [
        {
          "components": [
            {
              "internalType": "uint256",
              "name": "totalEarning",
              "type": "uint256"
            },
            {
              "components": [
                {
                  "internalType": "uint256",
                  "name": "amount",
                  "type": "uint256"
                },
                {
                  "internalType": "uint256",
                  "name": "createAt",
                  "type": "uint256"
                },
                {
                  "internalType": "uint256",
                  "name": "expiryDate",
                  "type": "uint256"
                },
                {
                  "internalType": "address",
                  "name": "from",
                  "type": "address"
                }
              ],
              "internalType": "struct SuperToken.TokenData[]",
              "name": "earningHistory",
              "type": "tuple[]"
            }
          ],
          "internalType": "struct SuperToken.UserHistory",
          "name": "",
          "type": "tuple"
        }
      ],
      "stateMutability": "view",
      "type": "function",
      "constant": true
    },
    {
      "inputs": [],
      "name": "totalSupply",
      "outputs": [
        {
          "internalType": "uint256",
          "name": "",
          "type": "uint256"
        }
      ],
      "stateMutability": "view",
      "type": "function",
      "constant": true
    }
  ],
  "bytecode": "0x608060405260006007553480156200001657600080fd5b506040518060400160405280600981526020017f5375706572436f696e00000000000000000000000000000000000000000000008152506040518060400160405280600381526020017f535043000000000000000000000000000000000000000000000000000000000081525081600390805190602001906200009b929190620000fe565b508060049080519060200190620000b4929190620000fe565b50505033600860006101000a81548173ffffffffffffffffffffffffffffffffffffffff021916908373ffffffffffffffffffffffffffffffffffffffff16021790555062000213565b8280546200010c90620001ae565b90600052602060002090601f0160209004810192826200013057600085556200017c565b82601f106200014b57805160ff19168380011785556200017c565b828001600101855582156200017c579182015b828111156200017b5782518255916020019190600101906200015e565b5b5090506200018b91906200018f565b5090565b5b80821115620001aa57600081600090555060010162000190565b5090565b60006002820490506001821680620001c757607f821691505b60208210811415620001de57620001dd620001e4565b5b50919050565b7f4e487b7100000000000000000000000000000000000000000000000000000000600052602260045260246000fd5b6127a080620002236000396000f3fe608060405234801561001057600080fd5b50600436106100f55760003560e01c80633950935111610097578063a457c2d711610066578063a457c2d71461029a578063a9059cbb146102ca578063bbe6331b146102fa578063dd62ed3e1461032a576100f5565b8063395093511461020057806340c10f191461023057806370a082311461024c57806395d89b411461027c576100f5565b80632312db25116100d35780632312db251461016657806323b872dd1461019657806329db5884146101c6578063313ce567146101e2576100f5565b806306fdde03146100fa578063095ea7b31461011857806318160ddd14610148575b600080fd5b61010261035a565b60405161010f9190612311565b60405180910390f35b610132600480360381019061012d9190611d3e565b6103ec565b60405161013f91906122f6565b60405180910390f35b61015061040f565b60405161015d91906124b5565b60405180910390f35b610180600480360381019061017b9190611c8a565b610419565b60405161018d91906124b5565b60405180910390f35b6101b060048036038101906101ab9190611cef565b610465565b6040516101bd91906122f6565b60405180910390f35b6101e060048036038101906101db9190611c8a565b610a9f565b005b6101ea610dd9565b6040516101f791906124d0565b60405180910390f35b61021a60048036038101906102159190611d3e565b610de2565b60405161022791906122f6565b60405180910390f35b61024a60048036038101906102459190611d3e565b610e19565b005b61026660048036038101906102619190611c8a565b61119b565b60405161027391906124b5565b60405180910390f35b6102846111e3565b6040516102919190612311565b60405180910390f35b6102b460048036038101906102af9190611d3e565b611275565b6040516102c191906122f6565b60405180910390f35b6102e460048036038101906102df9190611d3e565b6112ec565b6040516102f191906122f6565b60405180910390f35b610314600480360381019061030f9190611c8a565b61130f565b6040516103219190612493565b60405180910390f35b610344600480360381019061033f9190611cb3565b611445565b60405161035191906124b5565b60405180910390f35b60606003805461036990612652565b80601f016020809104026020016040519081016040528092919081815260200182805461039590612652565b80156103e25780601f106103b7576101008083540402835291602001916103e2565b820191906000526020600020905b8154815290600101906020018083116103c557829003601f168201915b5050505050905090565b6000806103f76114cc565b90506104048185856114d4565b600191505092915050565b6000600754905090565b6000600560008373ffffffffffffffffffffffffffffffffffffffff1673ffffffffffffffffffffffffffffffffffffffff168152602001908152602001600020600001549050919050565b600081600560008673ffffffffffffffffffffffffffffffffffffffff1673ffffffffffffffffffffffffffffffffffffffff1681526020019081526020016000206000015410156104ec576040517f08c379a00000000000000000000000000000000000000000000000000000000081526004016104e390612433565b60405180910390fd5b6000604051806080016040528084815260200142815260200161012c426105139190612540565b81526020018673ffffffffffffffffffffffffffffffffffffffff16815250905082600560008773ffffffffffffffffffffffffffffffffffffffff1673ffffffffffffffffffffffffffffffffffffffff16815260200190815260200160002060000160008282546105869190612596565b9250508190555082600560008673ffffffffffffffffffffffffffffffffffffffff1673ffffffffffffffffffffffffffffffffffffffff16815260200190815260200160002060000160008282546105df9190612540565b925050819055508060000151600660008673ffffffffffffffffffffffffffffffffffffffff1673ffffffffffffffffffffffffffffffffffffffff168152602001908152602001600020600001600082825461063c9190612540565b92505081905550600660008573ffffffffffffffffffffffffffffffffffffffff1673ffffffffffffffffffffffffffffffffffffffff16815260200190815260200160002060010181908060018154018082558091505060019003906000526020600020906004020160009091909190915060008201518160000155602082015181600101556040820151816002015560608201518160030160006101000a81548173ffffffffffffffffffffffffffffffffffffffff021916908373ffffffffffffffffffffffffffffffffffffffff1602179055505050600083905060005b600560008873ffffffffffffffffffffffffffffffffffffffff1673ffffffffffffffffffffffffffffffffffffffff16815260200190815260200160002060010180549050811080156107725750600085115b15610a86576000600560008973ffffffffffffffffffffffffffffffffffffffff1673ffffffffffffffffffffffffffffffffffffffff16815260200190815260200160002060010182815481106107f3577f4e487b7100000000000000000000000000000000000000000000000000000000600052603260045260246000fd5b9060005260206000209060040201600001541115610a735784600560008973ffffffffffffffffffffffffffffffffffffffff1673ffffffffffffffffffffffffffffffffffffffff1681526020019081526020016000206001018281548110610886577f4e487b7100000000000000000000000000000000000000000000000000000000600052603260045260246000fd5b906000526020600020906004020160000154106109485784600560008973ffffffffffffffffffffffffffffffffffffffff1673ffffffffffffffffffffffffffffffffffffffff1681526020019081526020016000206001018281548110610918577f4e487b7100000000000000000000000000000000000000000000000000000000600052603260045260246000fd5b906000526020600020906004020160000160008282546109389190612596565b9250508190555060009450610a86565b600560008873ffffffffffffffffffffffffffffffffffffffff1673ffffffffffffffffffffffffffffffffffffffff16815260200190815260200160002060010181815481106109c2577f4e487b7100000000000000000000000000000000000000000000000000000000600052603260045260246000fd5b906000526020600020906004020160000154856109df9190612596565b94506000600560008973ffffffffffffffffffffffffffffffffffffffff1673ffffffffffffffffffffffffffffffffffffffff1681526020019081526020016000206001018281548110610a5d577f4e487b7100000000000000000000000000000000000000000000000000000000600052603260045260246000fd5b9060005260206000209060040201600001819055505b8080610a7e90612684565b91505061071e565b50610a9286868361169f565b6001925050509392505050565b6000805b600560008473ffffffffffffffffffffffffffffffffffffffff1673ffffffffffffffffffffffffffffffffffffffff16815260200190815260200160002060010180549050811015610d585742600560008573ffffffffffffffffffffffffffffffffffffffff1673ffffffffffffffffffffffffffffffffffffffff1681526020019081526020016000206001018281548110610b6b577f4e487b7100000000000000000000000000000000000000000000000000000000600052603260045260246000fd5b906000526020600020906004020160020154108015610c1557506000600560008573ffffffffffffffffffffffffffffffffffffffff1673ffffffffffffffffffffffffffffffffffffffff1681526020019081526020016000206001018281548110610c01577f4e487b7100000000000000000000000000000000000000000000000000000000600052603260045260246000fd5b906000526020600020906004020160000154115b15610d4557600560008473ffffffffffffffffffffffffffffffffffffffff1673ffffffffffffffffffffffffffffffffffffffff1681526020019081526020016000206001018181548110610c94577f4e487b7100000000000000000000000000000000000000000000000000000000600052603260045260246000fd5b90600052602060002090600402016000015482610cb19190612540565b91506000600560008573ffffffffffffffffffffffffffffffffffffffff1673ffffffffffffffffffffffffffffffffffffffff1681526020019081526020016000206001018281548110610d2f577f4e487b7100000000000000000000000000000000000000000000000000000000600052603260045260246000fd5b9060005260206000209060040201600001819055505b8080610d5090612684565b915050610aa3565b50610d638282611917565b80600560008473ffffffffffffffffffffffffffffffffffffffff1673ffffffffffffffffffffffffffffffffffffffff1681526020019081526020016000206000016000828254610db59190612596565b925050819055508060076000828254610dce9190612596565b925050819055505050565b60006012905090565b600080610ded6114cc565b9050610e0e818585610dff8589611445565b610e099190612540565b6114d4565b600191505092915050565b600860009054906101000a900473ffffffffffffffffffffffffffffffffffffffff1673ffffffffffffffffffffffffffffffffffffffff163373ffffffffffffffffffffffffffffffffffffffff1614610ea9576040517f08c379a0000000000000000000000000000000000000000000000000000000008152600401610ea090612413565b60405180910390fd5b6000604051806080016040528083815260200142815260200161012c42610ed09190612540565b8152602001600860009054906101000a900473ffffffffffffffffffffffffffffffffffffffff1673ffffffffffffffffffffffffffffffffffffffff168152509050610f1d8383611ae5565b8060000151600560008573ffffffffffffffffffffffffffffffffffffffff1673ffffffffffffffffffffffffffffffffffffffff1681526020019081526020016000206000016000828254610f739190612540565b925050819055508060000151600660008573ffffffffffffffffffffffffffffffffffffffff1673ffffffffffffffffffffffffffffffffffffffff1681526020019081526020016000206000016000828254610fd09190612540565b92505081905550600560008473ffffffffffffffffffffffffffffffffffffffff1673ffffffffffffffffffffffffffffffffffffffff16815260200190815260200160002060010181908060018154018082558091505060019003906000526020600020906004020160009091909190915060008201518160000155602082015181600101556040820151816002015560608201518160030160006101000a81548173ffffffffffffffffffffffffffffffffffffffff021916908373ffffffffffffffffffffffffffffffffffffffff1602179055505050600660008473ffffffffffffffffffffffffffffffffffffffff1673ffffffffffffffffffffffffffffffffffffffff16815260200190815260200160002060010181908060018154018082558091505060019003906000526020600020906004020160009091909190915060008201518160000155602082015181600101556040820151816002015560608201518160030160006101000a81548173ffffffffffffffffffffffffffffffffffffffff021916908373ffffffffffffffffffffffffffffffffffffffff1602179055505050816007600082825461118f9190612540565b92505081905550505050565b60008060008373ffffffffffffffffffffffffffffffffffffffff1673ffffffffffffffffffffffffffffffffffffffff168152602001908152602001600020549050919050565b6060600480546111f290612652565b80601f016020809104026020016040519081016040528092919081815260200182805461121e90612652565b801561126b5780601f106112405761010080835404028352916020019161126b565b820191906000526020600020905b81548152906001019060200180831161124e57829003601f168201915b5050505050905090565b6000806112806114cc565b9050600061128e8286611445565b9050838110156112d3576040517f08c379a00000000000000000000000000000000000000000000000000000000081526004016112ca90612453565b60405180910390fd5b6112e082868684036114d4565b60019250505092915050565b6000806112f76114cc565b905061130481858561169f565b600191505092915050565b611317611c46565b600660008373ffffffffffffffffffffffffffffffffffffffff1673ffffffffffffffffffffffffffffffffffffffff1681526020019081526020016000206040518060400160405290816000820154815260200160018201805480602002602001604051908101604052809291908181526020016000905b8282101561143657838290600052602060002090600402016040518060800160405290816000820154815260200160018201548152602001600282015481526020016003820160009054906101000a900473ffffffffffffffffffffffffffffffffffffffff1673ffffffffffffffffffffffffffffffffffffffff1673ffffffffffffffffffffffffffffffffffffffff168152505081526020019060010190611390565b50505050815250509050919050565b6000600160008473ffffffffffffffffffffffffffffffffffffffff1673ffffffffffffffffffffffffffffffffffffffff16815260200190815260200160002060008373ffffffffffffffffffffffffffffffffffffffff1673ffffffffffffffffffffffffffffffffffffffff16815260200190815260200160002054905092915050565b600033905090565b600073ffffffffffffffffffffffffffffffffffffffff168373ffffffffffffffffffffffffffffffffffffffff161415611544576040517f08c379a000000000000000000000000000000000000000000000000000000000815260040161153b906123f3565b60405180910390fd5b600073ffffffffffffffffffffffffffffffffffffffff168273ffffffffffffffffffffffffffffffffffffffff1614156115b4576040517f08c379a00000000000000000000000000000000000000000000000000000000081526004016115ab90612373565b60405180910390fd5b80600160008573ffffffffffffffffffffffffffffffffffffffff1673ffffffffffffffffffffffffffffffffffffffff16815260200190815260200160002060008473ffffffffffffffffffffffffffffffffffffffff1673ffffffffffffffffffffffffffffffffffffffff168152602001908152602001600020819055508173ffffffffffffffffffffffffffffffffffffffff168373ffffffffffffffffffffffffffffffffffffffff167f8c5be1e5ebec7d5bd14f71427d1e84f3dd0314c0f7b2291e5b200ac8c7c3b9258360405161169291906124b5565b60405180910390a3505050565b600073ffffffffffffffffffffffffffffffffffffffff168373ffffffffffffffffffffffffffffffffffffffff16141561170f576040517f08c379a0000000000000000000000000000000000000000000000000000000008152600401611706906123d3565b60405180910390fd5b600073ffffffffffffffffffffffffffffffffffffffff168273ffffffffffffffffffffffffffffffffffffffff16141561177f576040517f08c379a000000000000000000000000000000000000000000000000000000000815260040161177690612333565b60405180910390fd5b61178a838383611c3c565b60008060008573ffffffffffffffffffffffffffffffffffffffff1673ffffffffffffffffffffffffffffffffffffffff16815260200190815260200160002054905081811015611810576040517f08c379a000000000000000000000000000000000000000000000000000000000815260040161180790612393565b60405180910390fd5b8181036000808673ffffffffffffffffffffffffffffffffffffffff1673ffffffffffffffffffffffffffffffffffffffff16815260200190815260200160002081905550816000808573ffffffffffffffffffffffffffffffffffffffff1673ffffffffffffffffffffffffffffffffffffffff168152602001908152602001600020600082825401925050819055508273ffffffffffffffffffffffffffffffffffffffff168473ffffffffffffffffffffffffffffffffffffffff167fddf252ad1be2c89b69c2b068fc378daa952ba7f163c4a11628f55a4df523b3ef846040516118fe91906124b5565b60405180910390a3611911848484611c41565b50505050565b600073ffffffffffffffffffffffffffffffffffffffff168273ffffffffffffffffffffffffffffffffffffffff161415611987576040517f08c379a000000000000000000000000000000000000000000000000000000000815260040161197e906123b3565b60405180910390fd5b61199382600083611c3c565b60008060008473ffffffffffffffffffffffffffffffffffffffff1673ffffffffffffffffffffffffffffffffffffffff16815260200190815260200160002054905081811015611a19576040517f08c379a0000000000000000000000000000000000000000000000000000000008152600401611a1090612353565b60405180910390fd5b8181036000808573ffffffffffffffffffffffffffffffffffffffff1673ffffffffffffffffffffffffffffffffffffffff1681526020019081526020016000208190555081600260008282540392505081905550600073ffffffffffffffffffffffffffffffffffffffff168373ffffffffffffffffffffffffffffffffffffffff167fddf252ad1be2c89b69c2b068fc378daa952ba7f163c4a11628f55a4df523b3ef84604051611acc91906124b5565b60405180910390a3611ae083600084611c41565b505050565b600073ffffffffffffffffffffffffffffffffffffffff168273ffffffffffffffffffffffffffffffffffffffff161415611b55576040517f08c379a0000000000000000000000000000000000000000000000000000000008152600401611b4c90612473565b60405180910390fd5b611b6160008383611c3c565b8060026000828254611b739190612540565b92505081905550806000808473ffffffffffffffffffffffffffffffffffffffff1673ffffffffffffffffffffffffffffffffffffffff168152602001908152602001600020600082825401925050819055508173ffffffffffffffffffffffffffffffffffffffff16600073ffffffffffffffffffffffffffffffffffffffff167fddf252ad1be2c89b69c2b068fc378daa952ba7f163c4a11628f55a4df523b3ef83604051611c2491906124b5565b60405180910390a3611c3860008383611c41565b5050565b505050565b505050565b604051806040016040528060008152602001606081525090565b600081359050611c6f8161273c565b92915050565b600081359050611c8481612753565b92915050565b600060208284031215611c9c57600080fd5b6000611caa84828501611c60565b91505092915050565b60008060408385031215611cc657600080fd5b6000611cd485828601611c60565b9250506020611ce585828601611c60565b9150509250929050565b600080600060608486031215611d0457600080fd5b6000611d1286828701611c60565b9350506020611d2386828701611c60565b9250506040611d3486828701611c75565b9150509250925092565b60008060408385031215611d5157600080fd5b6000611d5f85828601611c60565b9250506020611d7085828601611c75565b9150509250929050565b6000611d868383612237565b60808301905092915050565b611d9b816125ca565b82525050565b6000611dac826124fb565b611db6818561251e565b9350611dc1836124eb565b8060005b83811015611df2578151611dd98882611d7a565b9750611de483612511565b925050600181019050611dc5565b5085935050505092915050565b611e08816125dc565b82525050565b6000611e1982612506565b611e23818561252f565b9350611e3381856020860161261f565b611e3c8161272b565b840191505092915050565b6000611e5460238361252f565b91507f45524332303a207472616e7366657220746f20746865207a65726f206164647260008301527f65737300000000000000000000000000000000000000000000000000000000006020830152604082019050919050565b6000611eba60228361252f565b91507f45524332303a206275726e20616d6f756e7420657863656564732062616c616e60008301527f63650000000000000000000000000000000000000000000000000000000000006020830152604082019050919050565b6000611f2060228361252f565b91507f45524332303a20617070726f766520746f20746865207a65726f20616464726560008301527f73730000000000000000000000000000000000000000000000000000000000006020830152604082019050919050565b6000611f8660268361252f565b91507f45524332303a207472616e7366657220616d6f756e742065786365656473206260008301527f616c616e636500000000000000000000000000000000000000000000000000006020830152604082019050919050565b6000611fec60218361252f565b91507f45524332303a206275726e2066726f6d20746865207a65726f2061646472657360008301527f73000000000000000000000000000000000000000000000000000000000000006020830152604082019050919050565b600061205260258361252f565b91507f45524332303a207472616e736665722066726f6d20746865207a65726f20616460008301527f64726573730000000000000000000000000000000000000000000000000000006020830152604082019050919050565b60006120b860248361252f565b91507f45524332303a20617070726f76652066726f6d20746865207a65726f2061646460008301527f72657373000000000000000000000000000000000000000000000000000000006020830152604082019050919050565b600061211e600f8361252f565b91507f4e6f7420417574686f72697a65642100000000000000000000000000000000006000830152602082019050919050565b600061215e60128361252f565b91507f4e6f7420456e6f75676820746f6b656e732100000000000000000000000000006000830152602082019050919050565b600061219e60258361252f565b91507f45524332303a2064656372656173656420616c6c6f77616e63652062656c6f7760008301527f207a65726f0000000000000000000000000000000000000000000000000000006020830152604082019050919050565b6000612204601f8361252f565b91507f45524332303a206d696e7420746f20746865207a65726f2061646472657373006000830152602082019050919050565b60808201600082015161224d60008501826122c9565b50602082015161226060208501826122c9565b50604082015161227360408501826122c9565b5060608201516122866060850182611d92565b50505050565b60006040830160008301516122a460008601826122c9565b50602083015184820360208601526122bc8282611da1565b9150508091505092915050565b6122d281612608565b82525050565b6122e181612608565b82525050565b6122f081612612565b82525050565b600060208201905061230b6000830184611dff565b92915050565b6000602082019050818103600083015261232b8184611e0e565b905092915050565b6000602082019050818103600083015261234c81611e47565b9050919050565b6000602082019050818103600083015261236c81611ead565b9050919050565b6000602082019050818103600083015261238c81611f13565b9050919050565b600060208201905081810360008301526123ac81611f79565b9050919050565b600060208201905081810360008301526123cc81611fdf565b9050919050565b600060208201905081810360008301526123ec81612045565b9050919050565b6000602082019050818103600083015261240c816120ab565b9050919050565b6000602082019050818103600083015261242c81612111565b9050919050565b6000602082019050818103600083015261244c81612151565b9050919050565b6000602082019050818103600083015261246c81612191565b9050919050565b6000602082019050818103600083015261248c816121f7565b9050919050565b600060208201905081810360008301526124ad818461228c565b905092915050565b60006020820190506124ca60008301846122d8565b92915050565b60006020820190506124e560008301846122e7565b92915050565b6000819050602082019050919050565b600081519050919050565b600081519050919050565b6000602082019050919050565b600082825260208201905092915050565b600082825260208201905092915050565b600061254b82612608565b915061255683612608565b9250827fffffffffffffffffffffffffffffffffffffffffffffffffffffffffffffffff0382111561258b5761258a6126cd565b5b828201905092915050565b60006125a182612608565b91506125ac83612608565b9250828210156125bf576125be6126cd565b5b828203905092915050565b60006125d5826125e8565b9050919050565b60008115159050919050565b600073ffffffffffffffffffffffffffffffffffffffff82169050919050565b6000819050919050565b600060ff82169050919050565b60005b8381101561263d578082015181840152602081019050612622565b8381111561264c576000848401525b50505050565b6000600282049050600182168061266a57607f821691505b6020821081141561267e5761267d6126fc565b5b50919050565b600061268f82612608565b91507fffffffffffffffffffffffffffffffffffffffffffffffffffffffffffffffff8214156126c2576126c16126cd565b5b600182019050919050565b7f4e487b7100000000000000000000000000000000000000000000000000000000600052601160045260246000fd5b7f4e487b7100000000000000000000000000000000000000000000000000000000600052602260045260246000fd5b6000601f19601f8301169050919050565b612745816125ca565b811461275057600080fd5b50565b61275c81612608565b811461276757600080fd5b5056fea264697066735822122055fd79b4839c89fef086fcd56ceeb8ad88a53d383a1ca938505c50912adbdd8864736f6c63430008000033",
  "immutableReferences": {},
  "source": "// SPDX-License-Identifier: MIT\r\npragma solidity ^0.8.0;\r\n\r\nimport \"@openzeppelin/contracts/token/ERC20/ERC20.sol\";\r\n\r\ncontract SuperToken is ERC20{\r\n\r\n    struct TokenData{\r\n        uint256 amount;\r\n        uint256 createAt;\r\n        uint256 expiryDate;\r\n        address from;\r\n    }\r\n\r\n    struct UserData{\r\n        uint256 totalTokens;\r\n        TokenData[] tokenDetails;\r\n    }\r\n\r\n    struct UserHistory{\r\n        uint256 totalEarning;\r\n        TokenData[] earningHistory;\r\n    }\r\n\r\n    mapping (address=>UserData) private tokenBalance;\r\n\r\n    mapping (address=>UserHistory) private tokenHistory;\r\n\r\n    uint constant expiryTime=300;\r\n\r\n    uint totalTokensIssued=0;\r\n\r\n    address private _owner;\r\n\r\n    constructor() ERC20(\"SuperCoin\",\"SPC\"){\r\n        _owner=msg.sender;\r\n    }\r\n\r\n    function mint(address to,uint256 amount) external  onlyOwner {\r\n        TokenData memory newTokens= TokenData(amount,block.timestamp,block.timestamp+expiryTime,_owner);\r\n\r\n        // if(tokenBalance[_owner].totalTokens>=amount){\r\n        //     tokenBalance[_owner].totalTokens-=amount;\r\n        //     transferFrom(_owner, to, amount);\r\n        // }\r\n        // else{\r\n        //     transferFrom(_owner, to, tokenBalance[_owner].totalTokens);\r\n        //     amount-=tokenBalance[_owner].totalTokens;\r\n        //     tokenBalance[_owner].totalTokens=0;\r\n        //     _mint(to, amount);\r\n        //     totalTokensIssued+=amount;\r\n        // }\r\n        _mint(to, amount);\r\n        tokenBalance[to].totalTokens+=newTokens.amount;\r\n        tokenHistory[to].totalEarning+=newTokens.amount;\r\n        tokenBalance[to].tokenDetails.push(newTokens);\r\n        tokenHistory[to].earningHistory.push(newTokens);\r\n        totalTokensIssued+=amount;\r\n\r\n    }\r\n\r\n\r\n    function transferFrom(address from, address to, uint256 amount) public override returns(bool){\r\n\r\n        require(tokenBalance[from].totalTokens>=amount,\"Not Enough tokens!\");\r\n        TokenData memory newTokens= TokenData(amount,block.timestamp,block.timestamp+expiryTime,from);\r\n        tokenBalance[from].totalTokens-=amount;\r\n        tokenBalance[to].totalTokens+=amount;\r\n        tokenHistory[to].totalEarning+=newTokens.amount;\r\n        tokenHistory[to].earningHistory.push(newTokens);\r\n        uint256 transact = amount;\r\n        for(uint256 i=0;i<tokenBalance[from].tokenDetails.length && amount>0;i++){\r\n            if(tokenBalance[from].tokenDetails[i].amount>0){\r\n                if(tokenBalance[from].tokenDetails[i].amount>=amount){\r\n                    tokenBalance[from].tokenDetails[i].amount-=amount;\r\n                    amount=0;\r\n                    break;\r\n                }\r\n                else{\r\n                    amount-=tokenBalance[from].tokenDetails[i].amount;\r\n                    tokenBalance[from].tokenDetails[i].amount=0;\r\n                }\r\n            }\r\n        }\r\n\r\n        _transfer(from, to, transact);\r\n\r\n        return true;\r\n    }\r\n\r\n\r\n    function expireTokens(address user) public{\r\n        uint expiredTokens=0;\r\n        for(uint i=0;i<tokenBalance[user].tokenDetails.length;i++){\r\n            if(tokenBalance[user].tokenDetails[i].expiryDate<block.timestamp && tokenBalance[user].tokenDetails[i].amount>0){\r\n                expiredTokens+=tokenBalance[user].tokenDetails[i].amount;\r\n                tokenBalance[user].tokenDetails[i].amount=0;\r\n            }\r\n        }\r\n        _burn(user, expiredTokens);\r\n        tokenBalance[user].totalTokens-=expiredTokens;\r\n        totalTokensIssued-=expiredTokens;\r\n    }\r\n\r\n    function viewTokens(address user) public view returns(uint256){\r\n        return tokenBalance[user].totalTokens;\r\n    }\r\n\r\n    function earningHistory(address user) public view returns(UserHistory memory){\r\n        return tokenHistory[user];\r\n    }\r\n\r\n    function totalSupply() public override view returns(uint256){\r\n        return totalTokensIssued;\r\n    }\r\n\r\n    modifier onlyOwner(){\r\n        require(msg.sender==_owner, \"Not Authorized!\");\r\n        _;\r\n    }\r\n}\r\n\r\n",
  "sourcePath": "D:\\Programming\\Node\\truffle\\contracts\\supercoin.sol",
  "compiler": {
    "name": "solc",
    "version": "0.8.0+commit.c7dfd78e.Emscripten.clang"
  },
  "schemaVersion": "3.4.15",
  "updatedAt": "2023-08-17T10:33:56.393Z",
  "networkType": "ethereum",
  "devdoc": {
    "kind": "dev",
    "methods": {
      "allowance(address,address)": {
        "details": "See {IERC20-allowance}."
      },
      "approve(address,uint256)": {
        "details": "See {IERC20-approve}. NOTE: If `amount` is the maximum `uint256`, the allowance is not updated on `transferFrom`. This is semantically equivalent to an infinite approval. Requirements: - `spender` cannot be the zero address."
      },
      "balanceOf(address)": {
        "details": "See {IERC20-balanceOf}."
      },
      "decimals()": {
        "details": "Returns the number of decimals used to get its user representation. For example, if `decimals` equals `2`, a balance of `505` tokens should be displayed to a user as `5.05` (`505 / 10 ** 2`). Tokens usually opt for a value of 18, imitating the relationship between Ether and Wei. This is the default value returned by this function, unless it's overridden. NOTE: This information is only used for _display_ purposes: it in no way affects any of the arithmetic of the contract, including {IERC20-balanceOf} and {IERC20-transfer}."
      },
      "decreaseAllowance(address,uint256)": {
        "details": "Atomically decreases the allowance granted to `spender` by the caller. This is an alternative to {approve} that can be used as a mitigation for problems described in {IERC20-approve}. Emits an {Approval} event indicating the updated allowance. Requirements: - `spender` cannot be the zero address. - `spender` must have allowance for the caller of at least `subtractedValue`."
      },
      "increaseAllowance(address,uint256)": {
        "details": "Atomically increases the allowance granted to `spender` by the caller. This is an alternative to {approve} that can be used as a mitigation for problems described in {IERC20-approve}. Emits an {Approval} event indicating the updated allowance. Requirements: - `spender` cannot be the zero address."
      },
      "name()": {
        "details": "Returns the name of the token."
      },
      "symbol()": {
        "details": "Returns the symbol of the token, usually a shorter version of the name."
      },
      "totalSupply()": {
        "details": "See {IERC20-totalSupply}."
      },
      "transfer(address,uint256)": {
        "details": "See {IERC20-transfer}. Requirements: - `to` cannot be the zero address. - the caller must have a balance of at least `amount`."
      },
      "transferFrom(address,address,uint256)": {
        "details": "See {IERC20-transferFrom}. Emits an {Approval} event indicating the updated allowance. This is not required by the EIP. See the note at the beginning of {ERC20}. NOTE: Does not update the allowance if the current allowance is the maximum `uint256`. Requirements: - `from` and `to` cannot be the zero address. - `from` must have a balance of at least `amount`. - the caller must have allowance for ``from``'s tokens of at least `amount`."
      }
    },
    "version": 1
  },
  "userdoc": {
    "kind": "user",
    "methods": {},
    "version": 1
  }
}